:020000040800F2
:1000000000000220953E0008293A00082B3A00081B
:100010002D3A00082F3A0008313A0008000000008D
:10002000000000000000000000000000333A00085B
:10003000353A000800000000373A0008393A000855
:10004000E53E0008E53E0008E53E0008E53E000804
:10005000E53E0008E53E0008E53E0008E53E0008F4
:10006000E53E0008E53E0008E53E0008E53E0008E4
:10007000E53E0008E53E0008E53E0008E53E0008D4
:10008000E53E0008E53E0008E53E0008E53E0008C4
:10009000E53E0008E53E0008E53E0008E53E0008B4
:1000A000E53E0008E53E0008E53E0008E53E0008A4
:1000B000E53E0008E53E0008E53E0008E53E000894
:1000C000E53E0008E53E0008E53E0008E53E000884
:1000D000E53E0008E53E0008E53E0008E53E000874
:1000E000E53E0008E53E0008E53E0008E53E000864
:1000F000E53E0008E53E0008E53E0008E53E000854
:10010000E53E0008E53E0008E53E0008E53E000843
:10011000E53E0008E53E0008E53E0008E53E000833
:10012000E53E0008E53E0008E53E0008E53E000823
:10013000E53E0008E53E0008E53E0008E53E000813
:10014000E53E0008E53E0008E53E00083D3A0008AF
:10015000E53E0008E53E0008E53E0008E53E0008F3
:10016000E53E0008E53E0008E53E0008E53E0008E3
:10017000E53E0008E53E0008E53E000800000000FE
:08018000E53E0008E53E000821
:1001900010B5054C237833B9044B13B10448AFF3C1
:1001A00000800123237010BD90000020000000009B
:1001B000244E000808B5034B1BB103490348AFF3B5
:1001C000008008BD0000000094000020244E0008BC
:1001D00001F0FF01102A2BDB10F0070F08D010F8F8
:1001E000013B013A8B422DD010F0070F42B3F6D1FC
:1001F000F0B441EA012141EA014122F007047FF015
:1002000000070023F0E80256083C85EA010586EA6B
:10021000010685FA47F5A3FA87F586FA47F6A5FAA7
:1002200087F68EB9EED1F0BC01F0FF0102F00702B3
:1002300032B110F8013B013A83EA010313B1F8D15E
:100240000020704701387047002D06BF354603383F
:10025000073815F0010F07D1013015F4807F02BF78
:10026000013015F4C03F0130F0BC0138704700BFC9
:1002700053B94AB9002908BF00281CBF4FF0FF310D
:100280004FF0FF3000F07AB9ADF1080C6DE904CE03
:1002900000F006F8DDF804E0DDE9022304B0704761
:1002A0002DE9F0478C460D460446089E002B51D19F
:1002B0008A4217466DD9B2FA82FEBEF1000F0BD00A
:1002C000CEF1200C01FA0EF520FA0CFC02FA0EF722
:1002D0004CEA050C00FA0EF44FEA174A250CBCFB59
:1002E000FAF81FFA87F90AFB18CC45EA0C4508FB17
:1002F00009F3AB420AD9ED1908F1FF3280F02381EE
:10030000AB4240F22081A8F102083D44ED1AA4B2AC
:10031000B5FBFAF00AFB105544EA054400FB09F965
:10032000A14509D9E41900F1FF3380F00A81A14504
:1003300040F2078102383C44A4EB090440EA08403B
:100340000021002E61D024FA0EF400233460736083
:10035000BDE8F0878B4207D9002E54D0002186E8F3
:1003600021000846BDE8F087B3FA83F1002940F088
:100370008E80AB4202D3824200F2FA80841A65EB8F
:1003800003050120AC46002E3FD086E81010BDE8E2
:10039000F08712B90127B7FBF2F7B7FA87FEBEF173
:1003A000000F34D1EB1B3A0C1FFA87FC0121B3FB81
:1003B000F2F8250C02FB183345EA03450CFB08F361
:1003C000AB4207D9ED1908F1FF3002D2AB4200F27F
:1003D000D1808046ED1AA3B2B5FBF2F002FB1055B6
:1003E00043EA05440CFB00FCA44507D9E41900F1DD
:1003F000FF3302D2A44500F2B8801846A4EB0C04E7
:1004000040EA08409DE731463046BDE8F087CEF12E
:10041000200405FA0EF307FA0EF720FA04F83A0C56
:1004200025FA04F448EA0308B4FBF2F14FEA184550
:1004300002FB11441FFA87FC45EA044501FB0CF35B
:10044000AB4200FA0EF409D9ED1901F1FF3080F04A
:100450008A80AB4240F2878002393D44EB1A1FFA92
:1004600088F5B3FBF2F002FB103345EA034500FBCD
:100470000CF3AB4207D9ED1900F1FF386FD2AB4254
:100480006DD902383D44EB1A40EA01418FE7C1F1D2
:10049000200722FA07F88B4005FA01F448EA030323
:1004A00020FA07FE4FEA134CFD404EEA040EB5FB5E
:1004B000FCF94FEA1E440CFB19551FFA83F844EA75
:1004C000054509FB08F4AC4202FA01F200FA01FA10
:1004D00008D9ED1809F1FF3043D2AC4241D9A9F156
:1004E00002091D442D1B1FFA8EFEB5FBFCF00CFB10
:1004F00010554EEA054400FB08F8A04507D9E4185A
:1005000000F1FF3529D2A04527D902381C4440EA22
:100510000940A4EB0804A0FB02894C45C6464D46A1
:1005200015D312D056B1BAEB0E0364EB050404FAEE
:1005300007F7CB401F43CC40376074600021BDE813
:10054000F0871846F8E69046E0E6C245EAD2B8EBF6
:10055000020E69EB03050138E4E72846D7E7404679
:1005600091E78146BEE7014678E702383C4445E71B
:10057000084608E7A8F102083D442BE7704700BF92
:1005800038B50E4A0E4B054618784FF47A73B3FB14
:10059000F0F31068B0FBF3F000F0AAF8044658B985
:1005A0000F2D09D8024629464FF0FF3000F05EF8C3
:1005B000044B20461D6038BD012038BD28000020B6
:1005C000000000200400002008B50B4B1A6842F41C
:1005D00000721A601A6842F480621A601A6842F463
:1005E00080721A60032000F02FF80020FFF7C8FF88
:1005F00003F0FEF9002008BD003C0240034A044B12
:1006000011681B780B441360704700BFC0000020C6
:1006100000000020014B1868704700BFC000002098
:1006200038B50446FFF7F6FF631C1CBF054B1B786B
:10063000054618BFE418FFF7EDFF401B8442FAD8C7
:1006400038BD00BF00000020074AD36823F4E063F0
:100650001B041B0C43F0BF63000243F4003300F49F
:10066000E0600343D360704700ED00E0174B30B506
:10067000DC68C4F30224C4F10703251D042B28BF42
:100680000423062D4FF0010505FA03F303F1FF33B0
:100690008CBF033C00241940A14005FA04F4013C3E
:1006A0002240002842EA01024FEA0212ADBF00F1E7
:1006B000604000F00F00064B00F56140B5BFD2B2BC
:1006C000D2B21A5480F8002330BD00BF00ED00E024
:1006D00014ED00E0002808DB4209012300F01F00B0
:1006E00003FA00F0014B43F82200704700E100E0FC
:1006F0000138B0F1807F0AD2064B074A5860F021DA
:1007000082F823100020072298601A6070470120A9
:10071000704700BF10E000E000ED00E02DE9F04F71
:1007200085B00B68DFF8AC81684ADFF8AC910193C3
:1007300000230124019D9C402540AC4240F0B08044
:100740004C6824F0100C0CF1FF36012E4FEA430EDA
:1007500012D88768032606FA0EF627EA0607CE683F
:1007600006FA0EF63E4386604768C4F3001627EA91
:1007700005079E403E4346600326C76806FA0EF60C
:10078000F64307EA060A8F6807FA0EF747EA0A07F0
:10079000BCF1020FC76016D14FEAD30A00EB8A0AF8
:1007A00003F0070BDAF820704FEA8B0B4FF00F0CB9
:1007B0000CFA0BFC27EA0C0C0F6907FA0BF747EA57
:1007C0000C07CAF8207007683E4004F0030707FAD8
:1007D0000EFE4EEA06060660E60061D54FF0000BFD
:1007E000CDF80CB0D8F84470394E47F48047C8F8BB
:1007F0004470D8F8447007F480470397039F23F0B0
:10080000030707F1804707F59C3703F0030CD7F87F
:1008100008A04FEA8C0C4FF00F0E0EFA0CFEB042FF
:100820002AEA0E0E43D006F58066B04241D006F5A6
:100830008066B0423FD006F58066B0423DD006F5F6
:100840008066B0423BD048453BD006F50066B042DA
:1008500039D006F58066B04214BF0826072606FA8E
:100860000CF646EA0E06BE601668EF4314F4803FAD
:100870000CBF3E402E431660566814F4003F0CBF78
:100880003E402E435660966814F4801F0CBF3E40D5
:100890002E439660D668A40254BF3E402E43D660D5
:1008A0000133102B7FF445AF05B0BDE8F08F5E46F5
:1008B000D5E70126D3E70226D1E70326CFE70426B2
:1008C000CDE70526CBE70626C9E700BF003C01407F
:1008D0000000024000380240001402400AB1816169
:1008E00070470904FBE72DE9FF47044690F8B8027A
:1008F0009DF830709DF834E0BDF838C0012828D04C
:10090000282000FB01400125002612F0800F84F80A
:10091000B85202F07F0908BF354680F83D6080F884
:10092000383080F8391080F83FE080F83A9080F84D
:100930003B5080F83C70A0F840C0CDF808C08DE86E
:100940008040206801F03EFD84F8B86204B0BDE844
:10095000F0870220FAE790F8B832012B10B5044670
:1009600009D0012380F8B832006801F0B5FD0020FD
:1009700084F8B80210BD022010BD2DE9F0410746F1
:100980008AB0002841D090F8B932046803F0FF0221
:100990001BB980F8B82203F051F9032387F8B93264
:1009A000E36B3C4613F4807354F8100B08BF3B61B3
:1009B00001F0C4FB0FCC6D460FC50FCC0FC594E8FA
:1009C000030085E8030007F104083E4698E80E009E
:1009D000386801F06DFB56F8100B012101F0B4FBF3
:1009E0000FCE6D460FC50FCE0FC594E8030085E806
:1009F000030098E80E00386801F064FC012387F8D2
:100A0000B93200200AB0BDE8F0810120FAE7000009
:100A1000F0B5282404FB01049DF81470069EBDF86F
:100A20001C5084F83B2084F83F306FB90327022B19
:100A300084F842702BD0BB4229D0012B31D128231E
:100A400003FB010300222AE04FF0020E84F842E08B
:100A5000032B26D801A454F823F000BF6D0A000828
:100A60003F0A00088F0A00088F0A0008012F18D1DA
:100A7000BAB925B9282303FB010383F85170282351
:100A800003FB010393F851204AB1022207E0282317
:100A900003FB0103D2B993F85140002CF5D183F840
:100AA0004220282404FB0103002283F83910194650
:100AB0005E649D6483F85C20DA6483F85D203831DD
:100AC000027C0068BDE8F04001F06ABD93F8502058
:100AD000DAE700BF2DE9F04F066887B004463046DC
:100AE00001F092FB012840F0B480206801F088FBFF
:100AF000002800F0AE80206801F082FB870248BF2A
:100B00002368206844BF4FF400125A6101F078FB5B
:100B1000C50248BF2368206844BF4FF480125A6161
:100B200001F06EFB400148BF2368206844BF4FF0CE
:100B300080625A6101F064FB810748BF2368206826
:100B400044BF02225A6101F05BFB820010D5D6F847
:100B5000403423F02E03C6F84034204603F0BEF89C
:100B60000121206801F054FB23684FF000525A61C4
:100B7000206801F045FBC30142D52568D5F8403413
:100B80000493D5F840340593059B23F02E03059379
:100B9000049B9F070DD5049BD80706D5AB6923F0AE
:100BA0000053AB61204603F095F8059B43F0020328
:100BB0000593049B190719D5059B43F0080305937A
:100BC000049B5A0750D5A169022945D1049B20688E
:100BD00003F4C023B3F5802F18BF012101F018FBE7
:100BE000204603F080F8204603F074F8049B9B062F
:100BF00042BF059B43F020030593059BC5F8403495
:100C0000206801F0FDFA070705D5204603F05EF8DD
:100C1000236808225A61206801F0F2FA850112D592
:100C2000206801F054FC4FF0000A019006F5A0681E
:100C300028274FF00209D346A3689A4523D3236897
:100C40004FF000725A61206801F0DAFAC30600F131
:100C5000208207B0BDE8F08FE368012B04BF4EF699
:100C60006022C5F80424BBE7204603F040F8D5F81D
:100C70004034226823F02E03C5F84034936943F0D2
:100C800000539361B2E7019A0AF00F0322FA03F3CB
:100C9000D80740F18A80D8F80030206813F4004F5C
:100CA0005FFA8AF500F004816A0100F5A063D618A6
:100CB000B168490713D50421B160F16841F0020120
:100CC000F160B168890542D5F368206843F00203FA
:100CD000F360294601F000FC4FF40073C7E0B168EF
:100CE000890602D52021B160EBE7B168090715D567
:100CF000F168039341F00201F16007FB05414FF0F9
:100D0000050E81F85DE01021B1600821B16029462F
:100D1000029201F0E1FB029A039BD2E7B168490518
:100D2000CFD5F168039341F00201F16029460292A8
:100D300001F0D2FB1021B16007FB0541082081F8CA
:100D40005D004FF48061B160039B029AB9E7B1681E
:100D5000C8073DD5216949B107FB054E3069DEF86A
:100D60004810C0F31200091ACEF84C1007FB054ECC
:100D700001208EF85D00CEF858B0B0609EF83F10AC
:100D800011F0FD0F16D1F368206843F00203F36001
:100D9000294601F0A1FB1023B36007FB054595F838
:100DA000503083F0010385F850300AF1010A08F150
:100DB000200841E70329F0D1D15841F00051D1502A
:100DC0008EF85C0002462946204602F08BFFE4E7DD
:100DD000B168890736D5F16807FB054021F00201AB
:100DE000F16090F85D1001290CD180F85C1007FBD0
:100DF0000543C6F8089093F85C202946204602F087
:100E000071FFD2E70529F0D0062901D0082914D1B5
:100E100007FB0541886D01300328886583BF0420E6
:100E2000C1F858B081F85C0081F85C90D15821F08D
:100E3000804141F00041D150D9E70329D7D180F852
:100E40005C90F3E7B16811F0800112D0F36820687C
:100E500043F00203F36007FB054329469A6D013214
:100E60009A65062283F85D2001F036FB8023B3608B
:100E70009BE7B368DA0698D507FB054292F83F3046
:100E8000032B0AD19165F368206843F00203F360F5
:100E9000294601F021FB1023E9E713F0FD03FAD105
:100EA00093652369002BF6D1032382F85D30EAE7CE
:100EB000690100F5A0628E18B36813F0040E06D025
:100EC0000423B360F36843F00203F3606DE7B36893
:100ED00013F0200314D02023B36007FB054393F8DD
:100EE0003D20012A7FF461AF83F83DE083F85C90F8
:100EF000F36843F00203F360294601F0EDFA54E78A
:100F0000D6F808E01EF0400F11D007FB054204217F
:100F100082F85D10012182F83D109365F36843F07B
:100F20000203F360294601F0D7FA40239FE7B36834
:100F300013F4007E05D0F36843F00203F360294602
:100F4000C8E6B368DB0711D5F26807FB054342F03A
:100F50000202C3F858E02946F260029301F0BCFA9D
:100F6000029B0122B26083F85D201EE7B3681B0775
:100F70000ED50823B360F36843F00203F3602946FB
:100F800001F0AAFA07FB0545052385F85D300CE75B
:100F9000B368DB0615D507FB0543032283F85D2004
:100FA00093F83D20C3F858B02AB993F83C2012B901
:100FB000012283F83D20F36843F00203F3602946E1
:100FC00067E7B3681B060CD5F36843F00203F360D0
:100FD000294607FB054501F07FFA062385F85D30B9
:100FE00044E7B3685B050FD5F36843F00203F36091
:100FF000294601F071FA1023B3604FF48063B360A7
:1010000007FB05450823C0E7B36898077FF5CDAE19
:10101000F36807FB054023F00203F36090F85D30AE
:10102000012B0ED180F85C3090F83F30023B012B51
:101030003FF6DDAE90F8513083F0010380F8513077
:10104000D5E6032B02D180F85C90D0E6042BFAD0D1
:10105000052B02D180F85C30C9E6062B02D0082BA4
:101060007FF4C5AE07FB0540836D0133032B836519
:1010700084BF042380F85C308B5888BFC0F858B018
:1010800023F0804343F0004398BF80F85C908B507E
:10109000ADE62668B36923F01003B361356AC5F382
:1010A0004342022A29D1C5F30A18B8F1000F24D00F
:1010B00005F00F05282707FB0547796CE9B1424683
:1010C000304601F08FF87B6C43447B64FB6C4344F7
:1010D000FB6406F5A0666B019A1911690A4A0A4079
:1010E0005AB19A5922F0804242F000429A5197F840
:1010F000503083F0010387F850302268936943F041
:1011000010039361A5E500BF0000F81F38B590F803
:10111000B832012B04460DD0012580F8B852006882
:1011200001F006F82946206801F0ACF8002084F8A8
:10113000B80238BD022038BD90F8B832012B10B586
:10114000044609D0012380F8B832006801F0DAFAC9
:10115000002084F8B80210BD022010BD006801F024
:1011600073B8282303FB010191F85C007047282322
:1011700003FB0101C86C7047006801F01EB90068EC
:1011800001F010B970B5044608B9012070BD90F89F
:101190003D3003F0FF021BB980F83C2002F018FA42
:1011A000242384F83D3023681A6822F001021A6073
:1011B0001A6842F400421A601A6822F400421A6067
:1011C00000F034FD6568414B9D424DD8404B98423C
:1011D000DBD922683F495368B0FBF1F123F03F03AC
:1011E0000B435360136A23F03F030131194311622B
:1011F000D169364B21F44F419D4221F0FF0100F1AE
:10120000FF3048D86D00B0FBF5F00130C0F30B03A0
:10121000042B38BF04230B43D3611168206AE369B0
:1012200021F0C00103430B4313609168E068236918
:1012300021F40341034321F0FF010B439360D16884
:10124000A069636921F0FF0103430B43D360136876
:1012500043F00103136000202023206484F83D3014
:10126000206384F83E0070BD1B4B98428DD92268E4
:10127000184E5368B0FBF6F623F03F033343536038
:10128000136A4FF49671714323F03F034FF47A765B
:10129000B1FBF6F1A9E7A36853B905EB4503B0FB31
:1012A000F3F0431CC3F30B036BB143F40043B2E709
:1012B00019236B43B0FBF3F0431CC3F30B0313B1CF
:1012C00043F44043A7E70123A5E700BFA086010040
:1012D0007F841E0040420F00FF083D00F8B5044621
:1012E000002841D090F8413003F0FF022BB9424B67
:1012F00080F84020436302F0C1F90221226884F89B
:101300004110D36923F47B6323F00F03D361636936
:1013100011628B4231D0E368002BA3680CBF10250B
:1013200020250120202B98BF6D0000F027FD2369A8
:101330006169B3F5007F1BD1E3680A22B3B1AB004A
:10134000B0FBF3F353430A22B3FBF1F30533B3FBD2
:10135000F2F303F0010212025B08991EFD290ED977
:10136000636C43F0100363640120F8BDEB00E7E712
:101370000A23B0FBF5F04343E5E70022EDE7134312
:10138000226921686668E568A069DFF87CE013439C
:101390000B62A368CF6946EA030242F400622A4363
:1013A000024307EA0E073A43CA61226A012A1DD1A5
:1013B000124A6263124F134AB94218BF4FF04022DB
:1013C0002B43D16901EA0E01D16102211162D76973
:1013D00043F40063034336F4007143EA07030CBF90
:1013E0004FF4807100219BB20B43D3610020012395
:1013F000606484F84130F8BD13140008111500082A
:10140000003800400034004040F0FFFF7047704754
:1014100070471FB503689A68019290F84120042A2A
:10142000044636D1019AD10717D55A68520614D509
:10143000C26AD96822F8021BC262428E013A92B295
:101440004286428E92B242B95A6822F060025A60D5
:10145000012380F84130FFF7DAFF019B590618D5C8
:1014600023685A68920614D55A6822F060025A60BE
:1014700000220292DA6802929B680293029B012387
:1014800084F84130636C43F0020363642046FFF745
:10149000BFFF94F84130032B36D1019B9B0719D530
:1014A00022685368180615D5636A33F8021BD160A9
:1014B0006362638D013B9BB26385638D9BB24BB9C5
:1014C000536823F0A0035360012384F84130204681
:1014D000FFF79CFF019B190716D523685A689206EF
:1014E00012D55A6822F0A0025A60002203929B682B
:1014F0000393039B012384F84130636C43F004039E
:1015000063642046FFF784FF04B010BD70470000FD
:1015100010B502688B49936886B0044600938A4BE5
:101520008A4218BF4FF04023996801915168029197
:1015300059680391416831F4007140F09080009B3C
:1015400099071AD5029B1B0617D5436A991C1B885D
:101550004162D360438D013B9BB24385438D9BB277
:101560005BB9536823F0A0035360438E9BB223B949
:10157000012380F84130FFF7C9FF019BD80722D52E
:10158000039B59061FD5E26A20686E49931CE362EB
:101590006D4B884218BF4FF04023D9681180628E8E
:1015A000013A92B26286628E92B262B95A6822F0B1
:1015B00060025A60638D9BB22BB9012384F84130DD
:1015C0002046FFF7A3FF019B5A0622D5039B9B06EB
:1015D0001FD523685B495C4A8B4218BF4FF04022FD
:1015E0002046516821F0600151605A6822F0A00243
:1015F0005A6000220492DA6804929B680493049B68
:10160000012384F84130636C43F002036364FFF705
:10161000FFFE009B180720D5029B99061DD5236865
:1016200048495A6822F0A0025A60474A8B4218BFC4
:101630004FF04022516821F0600151600022059274
:101640009B680593059B012384F84130636C43F04C
:10165000040363642046FFF7DBFE06B010BD019A69
:1016600092071AD5039A110617D5426A911C12885F
:101670004162DA60428D013A92B24285428D92B265
:101680005AB95A6822F0A0025A60438E9BB223B91D
:10169000012380F84130FFF739FF009BDA071CD5A2
:1016A000029B5B0619D5E36A9A1CE2622268D16844
:1016B0001980638E013B9BB26386638E9BB263B9D4
:1016C000536823F060035360638D9BB22BB90123F1
:1016D00084F841302046FFF719FF009B58061BD5C0
:1016E000029B990618D522681649536823F06003B7
:1016F0005360154B8A4218BF4FF0402320465A686A
:1017000022F0A0025A60012384F84130636C43F058
:1017100002036364FFF77CFE019B1A079DD5039BC0
:101720009B069AD522680749074B8A4218BF4FF09B
:101730004023596821F0A0015960536823F06003E9
:10174000536080E700380040003400402DE9F34149
:10175000044608B901203FE00368DD0710D4236880
:1017600098075AD423681A0700F19C8023685B0706
:1017700000F1BA80A069002840F01B8100202BE016
:10178000A44B9A6802F00C02042A07D09A6802F06F
:101790000C02082A0AD15B68590207D59D4B1B68C9
:1017A0009A03DCD56368002BD9D1D3E76368994DE0
:1017B000B3F5803F13D12B6843F480332B60FEF7E1
:1017C00029FF944D06462B689B03C8D4FEF722FFE1
:1017D000801B6428F7D9032002B0BDE8F081B3F57F
:1017E000A02F04D12B6843F480232B60E3E72A6801
:1017F00022F480322A602A6822F480222A60002B98
:10180000DDD1FEF707FF06462B689F03A7D5FEF73D
:1018100001FF801B6428F7D9DDE77E4B9A6812F040
:101820000C0F07D09A6802F00C02082A11D15B68ED
:101830005E020ED4774B1A68950702D5E268012A3A
:1018400088D11A68216922F0F80242EAC1021A60BE
:1018500088E7E268704BB2B101221A60FEF7DAFE47
:101860006C4D06462B68980707D52B68226923F034
:10187000F80343EAC2032B6074E7FEF7CBFE801B3C
:101880000228EFD9A7E71A60FEF7C4FE614D0646AD
:101890002B6899077FF566AFFEF7BCFE801B022818
:1018A000F6D998E762695D4B7AB101221A60FEF7BA
:1018B000B1FE584D06466B6F9F073FF557AFFEF7D9
:1018C000A9FE801B0228F6D985E71A60FEF7A2FE62
:1018D000504D06466B6F98077FF548AFFEF79AFEAE
:1018E000801B0228F6D976E74A4B1A6C12F0805218
:1018F00028D101921A6C42F080521A641B6C03F0DA
:1019000080530193019B0126454D2B68D9051BD5BA
:10191000A368404D012B27D12B6F43F001032B67A8
:10192000FEF778FE3B4D074641F288382B6F9B0748
:1019300039D5002E3FF41EAF364A136C23F0805386
:10194000136417E70026DFE72B6843F480732B60EE
:10195000FEF760FE07462B68DA05D9D4FEF75AFE7B
:10196000C01B0228F7D936E7052B04D12B6F43F0B3
:1019700004032B67D0E72A6F22F001022A672A6F3F
:1019800022F004022A67002BCAD1FEF743FE41F27F
:10199000883807462B6F9807CBD5FEF73BFEC01B58
:1019A0004045F7D917E7FEF735FEC01B4045BDD9C6
:1019B00011E7184DAB6803F00C03082B47D0194E04
:1019C00000230228336035D1FEF724FE07462B683A
:1019D000990129D4226AE3691343626A43EA8213B4
:1019E000E26A43EA0263A26A0A4C5208013A43EAF5
:1019F00002436B6001233360FEF70CFE054623684B
:101A00009A013FF5BBAEFEF705FE401B0228F6D952
:101A1000E1E600BF0038024000004742800E474226
:101A20000070004060004742FEF7F4FDC01B022832
:101A3000CDD9D0E6FEF7EEFD04462B689B017FF57D
:101A40009DAEFEF7E7FD001B0228F6D9C3E601288C
:101A50003FF4C2AEA868E36900F480029A427FF4C2
:101A600079AE226A00F03F0393427FF473AE626A5C
:101A700047F6C073034093427FF46CAEA26A00F451
:101A8000403393427FF466AEE36A00F07060C01AA0
:101A900018BF0120A0E600BF134908B58B6803F00A
:101AA0000C03042B03D0082B03D0104808BD1048AA
:101AB00008BD4A684B68496813F4800314BF0C489A
:101AC0000A48C1F3881118BF002302F03F02A1FBAE
:101AD0000001FEF7CDFB044B5B68C3F30143013308
:101AE0005B00B0FBF3F008BD003802400024F400B6
:101AF00000127A002DE9F0410D46044610B901208C
:101B0000BDE8F081444B1A6802F00F028A4229D3E3
:101B100021688F072ED4C80741D43F4B1A6802F0C2
:101B20000F02954267D3226851076DD4130707D57A
:101B30003A4A2169936823F4604343EAC1039360FE
:101B4000FFF7AAFF354B364A9B68C3F30313D35CF8
:101B5000D840344B1860344B1868FEF711FD002054
:101B6000BDE8F081CAB21A701B6803F00F039942F6
:101B7000C5D1CDE7294B11F0040F1EBF9A6842F47E
:101B8000E0529A600E0742BF9A6842F460429A603F
:101B90009A68A06822F0F00202439A60BBE762688C
:101BA0001E4B012A1DD11B6813F4003FA7D01B4E0A
:101BB000B36823F003031343B360FEF72BFD41F238
:101BC00088380746B368626803F00C03B3EB820FF2
:101BD000A3D0FEF71FFDC01B4045F3D90320BDE88D
:101BE000F081911E01291B6802D813F0007FDDE708
:101BF00013F0020FDAE7EAB21A701B6803F00F0362
:101C00009D427FF47CAF8EE70449E0688B6823F443
:101C1000E05303438B6089E7003C024000380240F8
:101C2000624E00082800002004000020044B054AF2
:101C30009B68C3F38223D35C034A1068D840704783
:101C400000380240724E000828000020036813F09C
:101C5000050FF7B5054605D1286810F0020028D118
:101C600003B0F0BD414C424E00232360FEF7D2FC8E
:101C7000074633681B0115D4AB686A681B0743EA43
:101C80008213C6F8843001232360FEF7C3FC384C6E
:101C9000064623681801DFD4FEF7BCFC801B02282F
:101CA000F7D904E0FEF7B6FCC01B0228E1D90320F7
:101CB000D6E7002301932E4B2E4C1A6C42F0805233
:101CC0001A641B6C03F080530193019B236843F457
:101CD00080732360FEF79EFC06462368D9051BD55A
:101CE000234C236F13F440731CD1EB6803F4407250
:101CF000B2F5407F1E4A34D1916823F0704021F440
:101D0000F81120F4407001439160116FC3F30B038D
:101D10000B4313670020A3E7FEF77CFC801B02281F
:101D2000DBD9C4E7EA6802F440729342DDD0236F46
:101D3000114A0121116023F44073002111602367CF
:101D4000236FDA07D1D5FEF765FC41F288370646E6
:101D5000236F9B07C9D4FEF75DFC801BB842F7D9FF
:101D6000A5E7916821F4F811CEE700BF680047426B
:101D70000038024000700040400E4742012820D148
:101D8000114B9A6812F4000204D0012A0F4818BFC0
:101D9000002070475A680C4958685302D1F88420D3
:101DA0004CBF0B4B0B4B00F03F00B3FBF0F3D1F8F3
:101DB0008400C2F388125343C0F30270B3FBF0F007
:101DC00070470020704700BF003802400080BB0011
:101DD00000127A000024F40010B50446002836D022
:101DE0000023836290F8513003F0FF021BB980F8A2
:101DF000502001F0C9FD2168A068A269022384F87F
:101E000051300B6823F040030B6063680343E068C4
:101E100003432069034360690343E0690343206A85
:101E20000343A06A034302F4007003430B60120CE7
:101E3000636A02F004021A434A60CB6923F4006328
:101E4000CB6100200123606584F8513010BD012072
:101E500010BD036889B1042907D01A6A22F0010273
:101E60001A621A6A42F001021A621A6A22F0100219
:101E70001A621A6A42F0100206E01A6A22F001029F
:101E80001A621A6A42F001021A621A6842F00102EA
:101E90001A60002070470000304A0368904212D058
:101EA000B0F1804F0FD0A2F57C4290420BD002F5EA
:101EB0008062904207D002F58062904203D002F522
:101EC0007842904219D14A6823F070031343234AA1
:101ED000904229D0B0F1804F26D0A2F57C429042AA
:101EE00022D002F5806290421ED002F580629042BC
:101EF0001AD002F57842904216D0194A904213D077
:101F000002F5806290420FD002F5806290420BD0C1
:101F1000A2F59832904207D002F58062904203D039
:101F200002F58062904203D1CA6823F440731343E0
:101F30004A6923F08003134303608B68C3620B6814
:101F40008362064B984203D003F58063984201D127
:101F50000B69036301234361704700BF0000014028
:101F600000400140F8B50C460546002843D090F8E3
:101F70003D3003F0FF021BB980F83C2001F0F4FD76
:101F80002946022351F8040B85F83D30836823F479
:101F9000804323F007038360FFF77EFF28682368F0
:101FA00086688269A168076A1E43A36922F44072A9
:101FB00022F0030241EA0323134323F47C42236902
:101FC000E1691B0143EA0123E1680B43216A22F026
:101FD000FC0243EA01331343616927F0AA026768F0
:101FE000866047EA0117836117430123076285F87A
:101FF0003D300020F8BD0120F8BD000090F83C30D5
:10200000012B30B54FF0020335D080F83D30036826
:102010000D685C6824F0700401222C4380F83C2099
:102020009A685C60154CA3421AD0B3F1804F17D068
:10203000A4F57C44A34213D004F58064A3420FD0DE
:1020400004F58064A3420BD004F57844A34207D082
:1020500004F57054A34203D0A4F59434A34204D1F0
:10206000496822F080020A439A60012380F83D30DB
:10207000002380F83C30184630BD00BF000001400E
:102080000A4B013B01D1032070470269002AF8DAAC
:102090000369064A43F001030361013AF3D003697F
:1020A00013F00103F9D11846704700BF410D03003A
:1020B00084B038B505AD85E80E000A9B012B0446B7
:1020C00025D1836B23F480338363C36823F48403B3
:1020D00023F04003C360C36823F44013C360119B23
:1020E000012B02BFC36843F48013C360FFF7C8FF2E
:1020F000089B012B07D1A36843F00603A360A368E4
:1021000043F02003A360BDE8384004B07047C368C3
:1021100043F04003C360FFF7B3FF0E9B23B9A36BEB
:1021200043F48033A363E3E7A36B23F48033F9E73D
:10213000836843F00103836000207047836823F0C5
:10214000010383600020704708B5C368012923F0AC
:10215000C043C36008D1C36843F00053C36032205A
:10216000FEF75EFA002008BD19B9C36843F080434A
:10217000F4E7012008BD0000890141F02001064A72
:102180000161013A05D0036913F02003F9D1184623
:1021900070470320704700BF410D03001023064A1B
:1021A0000361013A05D0036913F01003F9D1184611
:1021B00070470320704700BF410D030010B59DF824
:1021C00008404CB9033300EB023023F0030300F561
:1021D00080500B44994201D1002010BD51F8042BCE
:1021E0000260F7E7033222F003020A4400F5805050
:1021F000914201D108467047036841F8043BF7E774
:102200004269806910407047406900F001007047E2
:10221000D0F8003423F0030310B5C0F80034D0F830
:10222000004401F003032343012900F58062C0F854
:10223000003404D14BF680335360002010BD0229D6
:10224000FBD141F27073F7E737B500250195D0F85F
:1022500040340193019B23F02E030193019B43F42F
:1022600080730446C0F840346420FEF7D9F9019B1E
:1022700023F48073C4F840340A20FEF7D1F92846CD
:1022800003B030BD82B000230193D0F840340193F5
:10229000019B23F02E030193019BDA0406D401294C
:1022A00002BF019B43F48053C0F84034019BDB0420
:1022B00005D521B9019B23F48053C0F84034002098
:1022C00002B0704784B038B5044605A880E80E0017
:1022D0000023C4F8003EA36B43F40013A363A36B75
:1022E00023F40023A363A36B23F48023A363E36B92
:1022F000DA053FD5079B032BD4F800343CD143F0DB
:102300000403C4F8003410212046FFF735FF2046AF
:10231000FFF744FF0023069904F5A0624FF0FF3059
:102320001D468B422BD101212046FFF7ABFFC82071
:10233000FEF776F90023A3614FF0FF336361E36B8F
:10234000DB0521D54FF40073636203F18073A36250
:10235000114BC4F80031089B1BB9A36943F010036B
:10236000A361A2690D4B1343A361BDE8384000206F
:1023700004B07047D4F8003423F00403C1E7906040
:102380000133D5602032CCE78023636203F5C003BC
:10239000A362034BDDE700BF0003E000080020A3B9
:1023A000E000400082B000230193D0F84034019354
:1023B0000198C0F3414002B0704700F5806080682A
:1023C00080B270472DE9F04100EB411707F5A0649A
:1023D0009DF81C6005464FF0FF30A0604FFA82F870
:1023E00005F5806C01F00F0E032E6CD8DFE806F0C7
:1023F0000261024C40F29D41B8F1000FE16003DA46
:10240000E16841F4807105E0E96BC90542D5E168F6
:1024100041F06001E1600020DCF81840012101FA80
:102420000EF12143CCF81810A969B8F1000F41F062
:102430000071A961B4BF4FF400440024BDF82050DE
:102440009DF818109B0503F0FE53C5F30A05D20250
:1024500002F4F0422B431343B20402F44022022957
:1024600043EA02030CBF4FF40031002123430B4326
:10247000032EC7F8003528D1D7F8003543F00053B4
:10248000C7F80035BDE8F08140F29D61B8F1000F5A
:10249000E160B5DBDCF81800012101FA0EF101431F
:1024A000CCF81810A969002041F00071A961044618
:1024B000C4E740F22521B8F1000FE160EADAE168F3
:1024C00041F4C071A6E70120A6E7BDE8F08100F560
:1024D0008060406980B2704700EB411101F5A06255
:1024E000D1F8003513F4802FD1F8003543F0804344
:1024F000C1F800351ED1C36A13F47F0FD1F800353F
:1025000037D123F00043C1F80035D1F8003543F04E
:102510000043C1F80035D1F8003523F40043C1F879
:10252000003540F2E933013B02D011680029FADBA3
:1025300000207047D0F8103413F47F0FD1F8003525
:1025400017D123F00043C1F80035D1F8003543F02E
:102550000043C1F80035D1F8003523F40043C1F839
:10256000003540F2E933013BE2D011680029FADB83
:10257000DEE743F00043C1F80035D9E700EB411135
:10258000064AC1F81025D1F8003523F0804343F006
:102590000043C1F800350020704700BF00000880EC
:1025A0002DE9F341C36BDB05164604464A7817D57F
:1025B0000D79ADB94EB94B79012B11D11146FFF709
:1025C000DDFF002002B0BDE8F081012E08D100EB54
:1025D0004213D3F80C0520F06000C3F80C054D71D0
:1025E0000869002866D00B8901381844B0FBF3F065
:1025F00080B2B0F5807F03D91B020B614FF480706D
:10260000CF7817B10B8943430B6191F80AE00B694E
:102610004FEA4E7EC3F312080EF0C04E4EEA080E8B
:10262000DFF8DC8004EB421508EAC0404EEA000007
:10263000C5F8100516B1C868C5F8140504F5806E14
:10264000DEF80800D5F800C52CF0005CC5F800C520
:10265000C043D5F800C5400700F0005040EA0C0028
:10266000C5F800052548D5F800C5C0F800C0D0F869
:1026700000C02CF0804CC0F800C0D0F800C0DFB122
:102680004CF4004CC0F800C0D0F800C04CF0004C36
:10269000C0F800C00068C5F80005002E91D1002FD9
:1026A0008FD1002B8DD0C879032813D8DFE800F034
:1026B000071A071A0120A3E72CF4004CE2E7E06AAE
:1026C000DD1CC5F38F0580B2854203D9A06940F0B7
:1026D0002000A061002000909BB2C9682046FFF74F
:1026E0006DFD6EE7DEF81000DD1CC5F38F0580B2CE
:1026F0008542EFD9A06940F08060EAE7AC00002095
:102700000000F81F836823F0010310B51021044670
:102710008360FFF731FD2046FFF740FD04F5A0631D
:1027200004F5E0601A46116821F0802141F08041F3
:1027300042F8201B9042F6D10020196821F4004194
:1027400041F0404119600130B0F57A7F02D8196834
:102750000029F8DB20339A42EFD14FF0FF33C4F861
:1027600014346361A36843F00103A360002010BD2B
:102770000020704738B5D0F87833DC6921780546F9
:1027800039B100F017FE2178284600F02FFE002313
:102790002370217B41B1284600F00CFE217B2846A6
:1027A00000F024FE00232373617B41B1284600F032
:1027B00001FE617B284600F019FE00236373D5F803
:1027C0007833D86928B101F0C1FBD5F878330022FD
:1027D000DA61002038BDF0B5022285B00123114630
:1027E000054600F0B2F9FF28064602D1022005B0E6
:1027F000F0BD0146284600F09FF95020D5F87873C7
:1028000001F09CFB1A2303FB0656F86196F84A3345
:102810001A0642BF4370B6F84C33438104464178F0
:10282000284600F0CCFD014620706089029003200C
:10283000019095F81D0395F81C33627800902846A6
:1028400000F0A9FD00222178284601F008FB0023B2
:102850001A460A21284600F078F9FF28C6D01A2324
:1028600003FB005103FB005091F84A2390F85233C8
:10287000B1F84C1312F0800F0DBFA273E2736183A5
:10288000218313F0800F08BFA373B0F85423A17BFA
:1028900018BFE373284614BF6283228300F08FFDC4
:1028A000E17B6073284600F08AFD2073208B029044
:1028B000022695F81D0395F81C33A27B617B0196D7
:1028C0000090284600F067FD608B029095F81D038C
:1028D00095F81C33E27B217B019600900026284668
:1028E00000F059FD3246617B84F84C60284601F0C7
:1028F000B6FA3246217B284601F0B1FA304676E737
:1029000038B5D0F87833D969A123037421234374EF
:102910000722002343828382C2824031044600F0B2
:10292000C9FA054620B9D4F8C83302212046984791
:10293000284638BD704770477047D0F8783373B574
:10294000DC6994F84C300546042B3DD8DFE803F0F1
:1029500003061742A600002002B070BD2123A16C1F
:102960000374202343740722002343828382C2829C
:1029700000F0A0FA50BB022384F84C3024E0A123DD
:102980000374212343740722002343828382C2827B
:1029900004F1400100F08EFAC0B9626CA36C84F8B7
:1029A0004C0002F0FF115A6802F0FF1291420BD165
:1029B00094F845105A79914206D1226C1B689A42CC
:1029C00002D12846FFF7B8FF0120C5E70128FBD058
:1029D0000423D1E794F84D10012921D002292ED0EB
:1029E000D5F87833DE6996F84E30032B45D0042BAA
:1029F000EAD1317B284601F021FA0128E4D1317B6C
:102A0000284601F0D7F9B36A984240D0728B9042C1
:102A10003DD91B1AB362336A18443062032333E092
:102A2000606A228B637B0091904298BF82B2E16919
:102A3000284600F089FC022384F84D30D0E7617B02
:102A400001F0FCF9012815D1636A228B934283BF00
:102A50009B1A6362E36900238ABF9B186362E36188
:102A6000636A0BB10123E7E784F84D302846FFF78E
:102A700061FFB5E70228B3D1F4E7337B728B316A8B
:102A8000284600F078FC042386F84E309CE70023AB
:102A900086F84E302846FFF74EFF95E7002100F0FC
:102AA0000DFC002890D184F84C008DE700F5607390
:102AB00000F56F72002143F8041B9342FBD100F52F
:102AC0008E7200F54771002302F8013B9142FBD161
:102AD00001224021037043708270C0F8BC3302763B
:102AE0008171437680F81C3380F81D2300207047E5
:102AF00038B50D46044680B1002380F8C023C0F8E5
:102B00007833C0F87C33FFF7D1FF0DB1C4F8C85358
:102B1000204601F0F1F8002038BD022038BD49B14F
:102B2000D0F87C3333B90122C0F87C23C0F8741389
:102B3000184670470220704790F838338B4286BFA2
:102B400080F8201300200220704770B5002490F810
:102B500043638E42E5B201D0FF290BD190F8446364
:102B6000964201D0FF2A05D190F845639E4207D0D6
:102B7000FF2B05D00134022C00F11A00E7D1FF250C
:102B8000284670BD10B5044601F0DCF8012120464E
:102B900001F058F9002010BD30B587B002238DF840
:102BA000173090F81F33044633B9027822B1027807
:102BB000032A1CBF0322027022780B2A18D8DFE8F0
:102BC00012F00C001A001F00210117004F0007012E
:102BD000C600D000DA00E700180194F81E333BB1BC
:102BE0000123C820237001F049F9204601F0D4F8F0
:102BF000002007B030BD012BFAD102232370F7E784
:102C0000642001F03BF9204601F0B8F80523237059
:102C100084F81D030021204600F0D1FB8021607163
:102C2000204600F0CCFBA27994F81C3320710146B9
:102C30000292002594F81D230092019580222046DF
:102C400000F0A9FBA279029294F81D23009294F857
:102C50001C33617901952A46204600F09CFBC7E7AA
:102C60006378072BC4D8DFE803F004151E30384121
:102C70004F5D0821204600F0FAF905460028B7D13B
:102C8000012394F829236370217994F81C33A271ED
:102C90000292CFE71221204600F0E9F90028A7D1DF
:102CA00002236370A4E70121204600F0DDFA054607
:102CB00000289DD1022001F0E1F803220123627077
:102CC00084F81C332179A279E2E70921204600F03B
:102CD00016FA00288CD10423E3E7B4F83613204613
:102CE00000F00DFA002883D10523DAE794F83013B9
:102CF00041B1FF2304F58E72204600F08EFA0028C1
:102D00007FF476AF0623CCE794F8311341B1FF236B
:102D100004F58E72204600F080FA00287FF468AF38
:102D20000723BEE794F8321341B1FF2304F58E72F6
:102D3000204600F072FA00287FF45AAF002384F88E
:102D4000203394F83333012B09D0072356E7D4F806
:102D5000C833002B3FF44CAF01212046984708238D
:102D60004CE794F83913204600F08CFA00287FF4E1
:102D70003FAF092342E794F83B339B0606D5012178
:102D8000204600F08DFA00287FF432AF0A2335E7A1
:102D9000D4F87C33002B3FF42BAF0023C4F87833F6
:102DA000D4F8743394F843231979914208BFC4F8D6
:102DB0007833D4F87833D3B19B6820469847B0B9BC
:102DC000062323700321D4F8C833204698470FE721
:102DD000D4F878335BB11B69204698478DF817000B
:102DE0009DF81730002B7FF403AF0B2306E70D236C
:102DF00004E7D4F87833002B3FF4FAAE5B69204641
:102E00009847F5E62046FFF751FED4F87833002BBB
:102E10003FF4EEAEDB68204698470023C4F87833D1
:102E2000E6E6C0F8BC137047D0F8BC230132C0F806
:102E3000BC2302780B2A04D1D0F878330BB19B69FC
:102E400018477047012380F81F337047002380F82C
:102E50001F337047027808B54AB9D0F8C833012249
:102E600080F81E230BB104219847002008BD90F87C
:102E70001F23012A04BF02220270F6E710B50446A0
:102E800000F06EFF2179204600F0B0FA617920460B
:102E900000F0ACFA002384F81E33D4F8C83313B121
:102EA000052120469847204600F04CFF032323705D
:102EB000002010BD13B504468078012803D00228F5
:102EC00008D0012004E00223A160A2812076A37033
:102ED00002B010BD237E013B01210A2BF1D8DFE8AF
:102EE00003F0060F2B36404C646F808C950062799E
:102EF00004F11001204600F0EFF902232376E0E709
:102F00006179204600F09AFF01280FD1E28A94F9F6
:102F100010302AB1002B01DA0323EFE70523EDE798
:102F2000002B01DA0923E9E70723E7E7042801D0AA
:102F30000228C6D10B23E1E7D4F8BC33E381A28990
:102F40002379A168204600F0EFF90423D6E7217920
:102F5000204600F073FF0128E4D0052815D004288E
:102F6000E7E763790091A289A168204600F0C5F9DE
:102F7000D4F8BC33E3810623C0E76179204600F032
:102F80005DFF0128D0D0052805D10123A3700023BF
:102F9000237603209CE70228C0D0042891D10B237C
:102FA00023760123A370022092E7002223791146A1
:102FB000204600F0B9F9D4F8BC33E38108239DE73B
:102FC0002179204600F03AFF012804D10123002096
:102FD000A37020767CE70428ACD005287FF471AF7D
:102FE000D3E70022637900912046114600F085F96D
:102FF000D4F8BC33E3810A2380E76179204600F0EE
:103000001DFF0128E2D00228A9D18BE7637E01339E
:10301000DBB2022B637606D8204600F0A1FE012326
:103020002376A3704DE7D4F8C8330621204698478D
:1030300000236376B5E730B48478BDF80850012CDE
:1030400010D161F07F04047402F47F44B4F5407F32
:1030500042824FF006010CBF40F209420022417447
:103060008282C5822A46194630BCFFF723BF37B596
:1030700000F58E730D4600914FF4807200210446D6
:10308000FFF7D9FFC8BB94F81C3184F8223394F8B9
:103090001D3184F82333B4F81E31A4F8243394F896
:1030A000203184F8263394F8213184F8273394F8BA
:1030B000223184F82833082D94F8233184F82933F9
:1030C0001BD9B4F82431A4F82A33B4F82631A4F873
:1030D0002C33B4F82831A4F82E3394F82A3184F82C
:1030E000303394F82B3184F8313394F82C3184F850
:1030F000323394F82D3184F8333303B030BD2DE9E9
:10310000F74300F11C050E4600912B464FF4007268
:1031100000210446FFF78FFF48BB237F84F8343338
:10312000637F84F8353394F8203084F8383394F88A
:10313000213084F8393394F8223084F83A3394F803
:103140002330B4F81EE084F83B33092E94F8243081
:10315000A4F836E384F83C3309D927462B460646C3
:1031600009224FF01A0C022E01D0964502D803B066
:10317000BDE8F08319780B440A445978042992B2C7
:10318000F1D1197887F83E13597887F83F13997869
:1031900087F84013D97887F84113197987F84213D3
:1031A000597987F84313997987F84413D97987F8BF
:1031B0004513197A87F846130CFB06F8002197F897
:1031C00042538D4202D801361A37CCE79645FAD9D8
:1031D0001D782B442A445D78052D92B2EFD14D1C09
:1031E00008EBC501214493F8009081F8409393F8CF
:1031F000019081F8419393F8029081F8429393F8FB
:10320000039081F84393B3F80490A1F8449393F8A2
:10321000069081F84693E9B2D1E7F7B500F58E75CF
:1032200014461F46009341F440722B460021064687
:10323000FFF701FF78B996F81D31032B0BD196F8F3
:103240001C31023BBB4228BF3B469BB20246934225
:1032500003D80023237003B0F0BDA9180232897887
:1032600004F8011B92B2F2E78378012B06D1002308
:1032700005220374427441828382C3820022114674
:10328000FFF718BE8378012B06D1002309220374AF
:10329000427441828382C38200221146FFF70ABE34
:1032A0008378012B06D100230322037442744182E8
:1032B0008382C38200221146FFF7FCBD8378012B75
:1032C00006D1022243740023027443828182C382A6
:1032D00000221146FFF7EEBD30B585B0002415463B
:1032E0000823029301910394009423462246294621
:1032F00000F08AFD204605B030BD30B590F81D5372
:1033000085B0002D1C469DF82030029218BF002386
:10331000039301230093002301911A46214600F0F4
:1033200073FD002005B030BD30B585B000241D46CA
:10333000029201220191039400922346294600F053
:1033400063FD204605B030BD30B590F81D5385B003
:10335000002D1C469DF82030029218BF00230393D5
:1033600001230191009300220223214600F04CFD2D
:10337000002005B030BD30B585B01D460024029256
:1033800001220191039400920223294600F03CFDA2
:10339000204605B030BD1FB5BDF8204002949DF811
:1033A0001C4001949DF81840009400F007FD002097
:1033B00004B010BD08B500F019FD002008BD30B5FF
:1033C000002300F5607454F8045B2D04DAB207D4CE
:1033D000E03341F4004140F8231092B2D0B230BD46
:1033E00001330B2BEFD14FF6FF72F7E70A299FBF8E
:1033F00000EB8100D0F88033C3F30E03C0F88033B4
:10340000002070472DE9F04F8DB01422002107A84D
:1034100000F0A4FD0024574B01941A6B564EDFF8C0
:103420006091DFF86081DFF860A142F010021A635A
:103430001A6B02F010020192019A02941A6B42F088
:1034400004021A631A6B02F004020292029A0394B5
:103450001A6B42F080021A631A6B02F08002039228
:10346000039A04941A6B42F001021A631A6B02F079
:1034700001020492049A05941A6B42F002021A6344
:103480001A6B02F002020592059A06941A6B42F03A
:1034900008021A631B6B03F00803069322463046AA
:1034A0000821069BFDF71AFA012211464846FDF74E
:1034B00015FA224640464FF21001FDF70FFA01259A
:1034C000082707A930460797089509940A94FDF73D
:1034D00025F907A948464FF0050B0795089509946B
:1034E0000A94FDF71BF9079707A902274846089792
:1034F000DFF8989009940A94CDF82CB0FDF70EF9F6
:1035000007A91E480795CDF820900994FDF706F904
:10351000042307A95046079308940994FDF7FEF881
:103520004FF4806307A950460793089709940A94BB
:10353000CDF82CB0FDF7F2F84FF2100307A9404682
:103540000793089509940A94FDF7E8F8202307A942
:103550004046079308940994FDF7E0F807A9304620
:103560000797CDF820900994FDF7D8F80DB0BDE885
:10357000F08F00BF003802400010024000000240FF
:1035800000080240000C024000040240000012103B
:1035900008B50C480C4BDFF834E04FF4804280E86B
:1035A000084000238360C360026143618361C3619B
:1035B0000362FDF7E7FD18B1BDE8084000F0C0B9AF
:1035C00008BD00BFC400002000540040A0860100D8
:1035D00030B5044689B01422002103A800F0BEFCD7
:1035E0002268144B9A4222D1134C144800250195AD
:1035F000236B43F002032363236B03F00203019365
:10360000019B4FF41073039312230493012305933A
:1036100003A904230793FDF781F80295236C43F473
:1036200000132364236C03F400130293029B09B07C
:1036300030BD00BF0054004000380240000402408A
:1036400008B50C480C4B4FF4007E80E808404FF45E
:10365000FA5200238360C360036142618361C361E6
:103660000362FDF73BFE18B1BDE8084000F068B901
:1036700008BD00BF18010020003C004070B50446A2
:1036800088B01422002103A800F068FC22681D4BBA
:103690009A4235D103F5FE33002400941A6C1A487F
:1036A00042F400421A641A6C02F400420092009A3A
:1036B00001941A6B42F001021A631A6B02F00102C4
:1036C0000192019A02941A6B42F004021A631B6B76
:1036D00003F004030293029B02261023062503A98C
:1036E000039304960795FDF719F84FF4A05303A927
:1036F000064803930496059406940795FDF70EF883
:1037000008B070BD003C00400000024000080240CC
:1037100070B5302298B00DEB0200002100F01EFCC5
:103720001422002107A800F019FC0021102203A890
:1037300000F014FC0025214B01951A6C42F08052D8
:103740001A641B6C03F080530193019B1C4B029580
:103750001A6842F480421A601B6803F480430293A3
:10376000029B4FF480330D934FF48003139308238F
:1037700014934FF4A8730224012615930CA8072371
:1037800017930C9612941694FDF7E0FF0F230793FE
:103790004FF4A0530A9305214FF4805307A80B93CD
:1037A00008940995FEF7A6F9C02303A8039604938D
:1037B0000594FEF74BFA18B070BD00BF0038024008
:1037C000007000402DE98848504E514C514D524FE9
:1037D000FCF7FAFEFFF79CFFFFF714FEFFF7D8FE99
:1037E000FFF72EFF00F0AEF800F090F900F000FABD
:1037F0003C214A48FEF72DFB736A2380FCF70AFF41
:10380000B046474E286000F013FAFCF703FF2B6820
:10381000C01AB0F57A7FF6D9D8F824204149DFF8EC
:1038200014A1DFF8149193B20B803C490968096830
:1038300011F0100156D00121AAF8001021888B4206
:1038400009D95A1A632A06DC0022AAF80020BAF81D
:103850000020002A51D02288934284BFD8F82C102F
:103860005218D31AA9F80030D8F80830DFF8CCB0D5
:1038700003F00303032B0FBFB9F80030B9F80020A1
:103880001E23534308BFC3EB0313142293FBF2F32D
:10389000ABF80030FCF7BEFE2860D8F82430224890
:1038A000238000F00FFCBAF80010384600F00AFC44
:1038B000304600F07BFC1D4800F004FCB9F8001015
:1038C000384600F0FFFB304600F070FC184800F06E
:1038D000F9FBBBF80010384600F0F4FB304600F06E
:1038E00065FC90E7AAF8001021888B4205D292B2BD
:1038F0008A1A632A01DC0122A7E7228893423CBF8F
:10390000D8F82C105B189B1AACE700BF00040040ED
:103910006E01002064010020484E0008C80100200C
:103920004D4E000860010020404E00084F4E000838
:10393000584E0008680100206C0100206A01002038
:103940007047000008B50E480E4B4FF4827E80E8A9
:10395000084000238360C360036143614FF4007239
:10396000C3610362436283620A238261C362FEF71A
:1039700033FA18B1BDE80840FFF7E2BF08BD00BF49
:10398000700100200030014010B5044688B01422B8
:10399000002103A800F0E2FA2268134B9A4220D1DA
:1039A00003F58433002101915A6C104842F480528F
:1039B0005A645A6C02F480520192019A02911A6B75
:1039C00042F001021A631B6B03F001030293029B96
:1039D000E02303930223049303A905230793FCF731
:1039E0009DFE08B010BD00BF003001400000024045
:1039F00082B00C4B002100915A6C42F480425A6410
:103A00005A6C02F480420092009A01911A6C42F0C2
:103A100080521A641B6C03F080530193019B02B027
:103A2000704700BF003802407047FEE7FEE7FEE740
:103A3000FEE7704770477047FCF7E0BD0148FDF7AF
:103A400049B800BFD405002070B50E4615460C4697
:103A5000A31B9D4201DC284670BDAFF3008004F833
:103A6000010BF5E738B50D46144600F03DFA582332
:103A7000036000234FF06040A34201DB204638BDC5
:103A8000D0F8802ED10703D5D0F8002ED20702D46B
:103A90000133F1E700BF0268002AFBD0EA5C027044
:103AA000F6E7000008B50A4B1968024609B909494A
:103AB00019601868694602448A4206D900F014FA6F
:103AC0000C2303604FF0FF3008BD1A6008BD00BF33
:103AD000B00000209C0800204FF0FF3070474FF4EA
:103AE00000534B6000207047012070470020704752
:103AF000054BD3F8882042F47002C3F888204FF0B9
:103B000000629A60704700BF00ED00E010B58CB015
:103B10000021242203A800F021FA1148114B0024AF
:103B200080E818004FF6FF73C3600323039303A9D3
:103B300001230194029484600461846105930993D4
:103B4000FEF710FA08B1FFF7FBFE01A90448019443
:103B50000294FEF753FA08B1FFF7F2FE0CB010BD65
:103B6000C80100200004004010B5044688B01422AB
:103B7000002103A800F0F2F92268124B9A421FD1EB
:103B800003F50D33002101911A6C0F4842F0020237
:103B90001A641A6C02F002020192019A02911A6BE5
:103BA00042F004021A631B6B03F004030293029BAE
:103BB000C023039303A9022304930793FCF7AEFDEC
:103BC00008B010BD000400400008024004290AD0DB
:103BD000052904D0022905D1044B1970704703222E
:103BE000024B1A7070470122FAE700BFB4000020B0
:103BF00008B501220B490C48FEF77AFF08B1FFF720
:103C00009FFE0A490848FEF78AFF08B1FFF798FEB1
:103C10000548FEF7B7FF18B1BDE80840FFF790BEB2
:103C200008BD00BFCD3B00080802002008000020AE
:103C30000148FEF7B1BF00BF0802002030B50446BE
:103C400089B01422002103A800F088F92368B3F199
:103C5000A04F35D11B4C1C4800250195236B43F028
:103C600001032363236B03F001030193019B03A969
:103C70004FF400730393FCF751FD4FF4E0530393AB
:103C80000223049303A90A230F4807930595069579
:103C9000FCF744FD636B43F0800363630295636C40
:103CA00043F480436364636C03F4804302934320D2
:103CB0002A462946029BFCF7D9FC4320FCF70AFD63
:103CC00009B030BD0038024000000240D0F8C00208
:103CD000FFF7AAB8D0F8C002FFF7BCB8D0F8C0020E
:103CE000FFF7CCB87047D0F8C002FFF7ABB8D0F8F8
:103CF000C002FFF7ABB8000010B590F8C033012B3D
:103D000004461BD10E48C4F8C4034FF0A042026021
:103D100008228260C36002220023C0F8C04203610F
:103D20008261C361FCF729FE08B1FFF709FE044870
:103D3000FDF722FA01462046FFF773F8002010BD78
:103D4000D405002008B5D0F8C403FDF7DFF9032837
:103D50009ABF024B185C022008BD00BF7D4E0008D0
:103D600008B5D0F8C403FDF7E7F903289ABF024B62
:103D7000185C022008BD00BF7D4E000808B5D0F8D1
:103D8000C403FDF7FCF902289ABF024B185C01201E
:103D900008BD00BF7A4E000808B5D0F8C403FDF78F
:103DA000DDF903289ABF024B185C022008BD00BF52
:103DB0007D4E0008D0F8C403FDF7D9B91FB5BDF892
:103DC000204002949DF81C4001949DF818400094F6
:103DD000D0F8C403FCF787FD03289ABF024B185C98
:103DE000022004B010BD00BF7D4E000808B5D0F819
:103DF000C403FCF7B0FD03289ABF024B185C0220F5
:103E000008BD00BF7D4E00081FB59DF824400394F7
:103E1000BDF820400294079C01949DF8184000943E
:103E2000D0F8C403FCF7F4FD03289ABF024B185CDA
:103E3000022004B010BD00BF7D4E0008D0F8C403BE
:103E4000FDF78FB908B590F8C033012B02D10846B1
:103E500000F016F8C820FCF7E3FB002008BDD0F8FE
:103E6000C403282303FB010191F83B301BB181F807
:103E700050200020704781F85120FAE7FCF7D0BBB2
:103E8000B0FA80F2520901210148FCF727BD00BFBA
:103E900000080240DFF834D0002103E00C4B5B58EF
:103EA000435004310B480C4B42189A42F6D30B4A4C
:103EB00002E0002342F8043B094B9A42F9D3FFF792
:103EC00017FE00F017F8FFF77DFC70470000022096
:103ED0002C4F0008000000209000002090000020DF
:103EE0009C080020FEE70000014B1868704700BFE7
:103EF0002C00002070B50D4E0D4CA41BA410002505
:103F0000A54209D10B4E0C4C00F08CFFA41BA41051
:103F10000025A54205D170BD56F8253098470135DA
:103F2000EEE756F8253098470135F2E7244F0008B0
:103F3000244F0008244F0008284F0008024B014678
:103F4000186800F061B800BF2C000020024B014649
:103F5000186800F00BB800BF2C0000200244034694
:103F6000934200D1704703F8011BF9E738B50546C5
:103F7000002945D051F8043C0C1F002BB8BFE418B1
:103F800000F0CCFB1F4A1368104633B9636014601D
:103F90002846BDE8384000F0C2BBA3420CD92168D6
:103FA0006218934204BF1A685B68636004BF5218CA
:103FB00022600460ECE713465A680AB1A242FAD9BB
:103FC00019685818A0420BD1206801445818824241
:103FD0001960DDD1106852685A6001441960D7E752
:103FE00002D90C232B60D3E7206821188A4204BF32
:103FF00011685268626004BF091821605C60C7E7FD
:1040000038BD00BFB800002070B5CD1C25F00305F9
:1040100008350C2D38BF0C25002D064601DBA942C2
:1040200003D90C233360002070BD00F077FB234AD6
:104030001468214691B9224C23681BB9304600F020
:10404000BDF820602946304600F0B8F8431C26D160
:104050000C233360304600F062FBE4E70B685B1B27
:104060001AD40B2B0FD90B60CD50CC18304600F072
:1040700056FB04F10B00231D20F00700C31A1BD0D0
:104080005A42E25070BD8C420DBF63684B6863605A
:10409000136018BF0C46E9E70C464968CAE7C41C20
:1040A00024F00304A04205D0211A304600F086F81F
:1040B0000130CDD02560D9E770BD00BFB800002029
:1040C000BC0000200FB40A4B13B51C6824B1A369CF
:1040D00013B9204600F034FA05AB049AA1680193A5
:1040E000204600F047FB02B0BDE8104004B0704726
:1040F0002C00002070B50E46054618B183690BB937
:1041000000F01EFAAB69AC6813B9284600F018FA43
:10411000234B9C4217D16C68A3891B071DD52369CB
:10412000DBB1013EA36816F8011F013BA360E9B9AA
:10413000002B2EDA22460A21284600F04FF80130E3
:1041400011D00A2070BD174B9C4201D1AC68E3E747
:10415000154B9C4208BFEC68DEE72146284600F07C
:104160008FF80028DDD04FF0FF3070BD002B04DA4F
:10417000A269934206DB0A2904D023685A1C2260F4
:104180001970CFE72246284600F028F80130C9D13F
:10419000E9E723680A205A1C2260187070BD00BF2E
:1041A000A84E0008C84E0008884E0008024B014681
:1041B0001868FFF79FBF00BF2C00002038B5064CE1
:1041C0000023054608462360FFF76CFC431C02D120
:1041D000236803B12B6038BD98080020F8B50E465F
:1041E0001446054618B183690BB900F0A9F9214BB3
:1041F0009C422AD16C68A369A360A3891A072ED5B3
:10420000236963B323692068C01A6369F6B29842D0
:10421000374604DB2146284600F028F928BBA3686E
:10422000013BA36023685A1C22601E706369013041
:10423000984204D0A389DB0719D50A2E17D121464D
:10424000284600F013F990B10FE00B4B9C4201D1CE
:10425000AC68D0E7094B9C4208BFEC68CBE721462D
:10426000284600F00DF80028CCD04FF0FF37384634
:10427000F8BD00BFA84E0008C84E0008884E0008D0
:10428000324B70B51D6806460C4625B1AB6913B9B3
:10429000284600F055F92E4B9C420FD16C68B4F9BA
:1042A0000C309AB215072CD4D00611D409223260F2
:1042B00043F04003A3814FF0FF3070BD254B9C427B
:1042C00001D1AC68EBE7244B9C4208BFEC68E6E701
:1042D000510712D5616B41B104F14403994202D0F8
:1042E0003046FFF743FE00236363A38923F02403D2
:1042F000A3810023636023692360A38943F008033B
:10430000A38123694BB9A38903F42073B3F5007F1C
:1043100003D02146304600F0C1F9A28912F0010312
:104320000CD00023A36063695B42A361236953B986
:10433000B4F90C3013F08000BAD170BD920758BFA9
:104340006369A360F2E70020F7E700BF2C000020BC
:10435000A84E0008C84E0008884E00088A892DE93A
:10436000F041054610070C465AD44B68002B05DC7B
:104370000B6C002B02DC0020BDE8F081E66A002E09
:10438000F9D0002312F480522F682B6033D0606D77
:10439000A3895A0705D56368C01A636B0BB1236CF8
:1043A000C01A00230246E66A216A2846B047431C29
:1043B000A38906D129681D294BD82B4ACA40D607A4
:1043C00047D500226260D9042269226004D5421CCC
:1043D00001D12B6803B96065616B2F600029CAD0D9
:1043E00004F14403994202D02846FFF7BFFD0020A4
:1043F0006063BDE8F081216A01232846B047411C73
:10440000C6D12B68002BC3D01D2B01D0162B01D198
:104410002F60B0E7A38943F04003A381BDE8F0819A
:104420000F69002FA7D093070E6808BF4B690F6074
:1044300018BF0023A6EB07088B60B8F1000F9ADDC8
:1044400043463A46216AA66A2846B047002807DC58
:10445000A38943F04003A3814FF0FF30BDE8F08112
:104460000744A8EB0008E8E70100402038B50B69D5
:1044700005460C46DBB118B183690BB900F060F852
:104480000C4B9C4209D16C68B4F90C307BB12146CD
:104490002846BDE83840FFF761BF074B9C4201D179
:1044A000AC68F1E7054B9C4208BFEC68ECE70020E4
:1044B00038BD00BFA84E0008C84E0008884E00084E
:1044C000014900F0A9B800BF6D440008002310B5F1
:1044D000044603604360836081814366C281036157
:1044E00043618361194608225C30FFF737FD054BB5
:1044F0006362054BA362054BE362054B24622363B1
:1045000010BD00BFCD4C0008EF4C0008274D00083F
:104510004B4D000870B54A1E682555430E4605F1FF
:104520007401FFF771FD044640B1002180E84200AC
:104530000C30A06005F16802FFF710FD204670BD49
:10454000836910B5044633BB8364C3640365124BAF
:10455000124A1B688262984204BF0123836100F003
:104560001FF86060204600F01BF8A060204600F0B5
:1045700017F80022E06004216068FFF7A7FF01221E
:104580000921A068FFF7A2FF02221221E068FFF7CD
:104590009DFF0123A36110BD844E0008C1440008A3
:1045A000F8B51C4B1E68B369074613B93046FFF7D0
:1045B000C7FF4836B4687368013B03D5336833B12D
:1045C0003668F7E7B4F90C506DB16834F4E70421AC
:1045D0003846FFF79FFF30600028F1D10C233B6085
:1045E00004462046F8BD4FF6FF73E3810123A38103
:1045F00065662560A560656025616561A561082225
:10460000294604F15C00FFF7A9FC6563A563A56476
:10461000E564E6E7844E00082DE9F84380468946C4
:1046200000F14804002614B93046BDE8F883A568B7
:104630006768013F01D52468F5E7AB89012B07D9ED
:10464000B5F90E30013303D029464046C84706432A
:104650006835EEE770B50E46B1F90E10002990B03E
:1046600014461D4607DA00232B60B3891A0610D4BE
:104670004FF480630EE001AA00F08EFB0028F2DB0D
:10468000029A02F47042A2F500535A425A412A603B
:10469000EEE740230020236010B070BD8B8973B516
:1046A0009D0706460C4607D504F1470323602361A6
:1046B0000123636102B070BD01AB6A46FFF7CAFF18
:1046C000009905463046FFF79FFC48B9B4F90C3015
:1046D0009A05EFD423F0030343F00203A381E3E739
:1046E0000D4BB362A389206043F08003A381009B3C
:1046F0006361019B20615BB1B4F90E10304600F09C
:104700005DFB28B1A38923F0030343F00103A381D8
:10471000A3891D43A581CDE7C144000870477047B8
:104720009368013B002B10B4936009DA9469A342AB
:1047300002DBCBB20A2B03D15DF8044BFFF74EBD71
:104740001368581C10601970C8B25DF8044B7047AC
:10475000F8B506460F461446D518AC4201D10020E4
:1047600007E03A4614F8011B3046FFF7D9FF431C17
:10477000F3D1F8BD2DE9F04F9DB00C4617460393D9
:10478000064618B183690BB9FFF7DAFE7C4B9C42F1
:1047900057D17468A38918075DD52369002B5AD0B7
:1047A0000023099320238DF8293030238DF82A30F7
:1047B0004FF0010BB846454615F8013B002B55D18B
:1047C000B8EB070A0BD053463A4621463046FFF76E
:1047D000BFFF013000F0C480099B5344099398F84F
:1047E0000030002B00F0BC8000234FF0FF32049318
:1047F0000793059206938DF853301A930522297872
:104800006048FBF7E5FC05F10108049B002831D165
:10481000D90644BF20228DF853201A0744BF2B220B
:104820008DF853202A782A2A2CD0079A00210A20B2
:10483000A846013598F80030303B092B6DD971B38B
:1048400026E0514B9C4201D1B468A3E74F4B9C42F8
:1048500008BFF4689EE721463046FFF711FD0028A7
:104860009ED04FF0FF301DB0BDE8F08F252BA7D0B4
:10487000A846A0E7434A801A0BFA00F018430490B8
:104880004546BBE7039A111D12680391002A01DB1C
:10489000079204E0524243F002030792049398F80F
:1048A00000302E2B10D198F801302A2B08F101018D
:1048B00037D1039B1A1D1B680392002BB8BF4FF022
:1048C000FF3308F102080593314D98F800100322D8
:1048D0002846FBF77DFC40B14023401B03FA00F063
:1048E000049B0343049308F1010898F80010294839
:1048F0008DF82810062208F10107FBF769FC002853
:1049000034D0254B03BB039B073323F00703083345
:104910000393099B4B4409934CE700FB02320121AE
:1049200086E70023059318460A258846013198F842
:104930000020303A092A03D9002BC5D00590C3E7DF
:1049400005FB00200123F0E703AB00932246134B45
:1049500004A93046AFF30080B0F1FF3F8146D8D1C3
:10496000A3895B063FF57DAF09987CE703AB009315
:1049700022460A4B04A9304600F088F8ECE700BF55
:10498000A84E0008E84E0008C84E0008884E0008EF
:10499000EE4E0008F24E00080000000051470008EB
:1049A0002DE9F04791461F468A680B69DDF82080A3
:1049B0009342B8BF1346C9F8003091F84320064629
:1049C0000C4612B10133C9F800302368990642BF82
:1049D000D9F800300233C9F80030256815F0060513
:1049E00007D104F1190AE368D9F800209B1A9D4207
:1049F00029DB94F843302268003318BF0123920664
:104A00002ED404F1430239463046C047013021D04C
:104A10002368E568D9F8002003F00603042B08BFDB
:104A2000AD1AA36822690CBF25EAE57500259342FB
:104A3000C4BF9B1AED184FF000091A344D451BD125
:104A40000020BDE8F0870123524639463046C04772
:104A5000013003D14FF0FF30BDE8F0870135C2E7E8
:104A6000E1185A1C302081F84300224494F8451084
:104A700082F843100233C4E7012322463946304608
:104A8000C0470130E6D009F10109D7E72DE9F0432D
:104A900017460A7E85B06E2A984606460C460C9B41
:104AA00001F1430E00F0BC801AD8632A2ED00AD838
:104AB000002A00F0C880582A00F08A8004F14205DC
:104AC00084F842202AE0642A01D0692AF6D12168BC
:104AD0001A6811F0800F23D0111D1960136827E0A8
:104AE000732A00F0B48008D86F2A2AD0702AE5D142
:104AF0000A6842F020020A6003E0752A21D0782A71
:104B0000DCD1782284F845206E4964E01A6801F10E
:104B10004205111D1960136884F842300123A3E097
:104B200011F0400F02F104011960D7D0B2F9003042
:104B3000002B03DA2D225B4284F8432062490A22CB
:104B400017E02068196810F0800F03D0081D186066
:104B50000B6806E010F0400F01F104001860F7D078
:104B60000B8859496F2A14BF0A220822002084F8B2
:104B700043006568A560002DC0F29C80206820F08D
:104B800004002060002B3FD1002D40F09580754639
:104B9000082A0BD12368DA0708D5236962689A428C
:104BA000DEBF302305F8013C05F1FF35AEEB050310
:104BB0002361CDF800803B4603AA21463046FFF72B
:104BC000EFFE013055D14FF0FF3005B0BDE8F08366
:104BD00081F845203C492268186812F0800F00F1E6
:104BE00004051D6001D0036802E05506FBD503886B
:104BF000D00744BF42F0200222601BB9226822F095
:104C0000200222601022B1E77546B3FBF2F002FBEE
:104C10001033CB5C05F8013D03460028F5D1B7E71A
:104C200008681A68496910F0800F04D0101D1860D8
:104C30001368196007E010F0400F02F104001860DB
:104C40001368F6D01980002323617546B1E71A680E
:104C5000111D19601568626800212846FBF7B8FA33
:104C600008B1401B606063682361002384F843300F
:104C70009FE723692A4639463046C0470130A2D013
:104C800023689B0707D5002504F11909E368039AF7
:104C90009B1A9D4205DBE068039B9842B8BF18460B
:104CA00093E701234A4639463046C04701308AD04F
:104CB0000135EBE7002BA7D10B7884F8423004F1E3
:104CC000420565E70A4F0008F94E000810B50C468A
:104CD000B1F90E1000F094F80028ABBF636DA38902
:104CE0001B1823F48053ACBF6365A38110BD2DE96D
:104CF000F0411F468B89DB0505460C46164605D557
:104D000002230022B1F90E1000F068F8A389B4F96B
:104D10000E1023F48053A38132463B462846BDE85B
:104D2000F04100F017B810B50C46B1F90E1000F0C4
:104D300055F8431CA38915BF606523F4805343F4E1
:104D40008053A38118BFA38110BDB1F90E1000F0EC
:104D500013B8000038B5074C054608461146002236
:104D600022601A46FEF77EFE431C02D1236803B17F
:104D70002B6038BD9808002038B5064C0023054646
:104D800008462360FEF7A8FE431C02D1236803B146
:104D90002B6038BD9808002038B5074C0023054625
:104DA000084611462360FEF79AFE431C02D1236891
:104DB00003B12B6038BD00BF9808002038B5064C01
:104DC0000023054608462360FEF78EFE431C02D1F1
:104DD000236803B12B6038BD9808002038B5074C14
:104DE000054608461146002222601A46FEF77EFE5E
:104DF000431C02D1236803B12B6038BD9808002002
:104E000038B5074C054608461146002222601A466E
:104E1000FEF71AFE431C02D1236803B12B6038BD94
:104E200098080020F8B500BFF8BC08BC9E46704743
:0C4E3000F8B500BFF8BC08BC9E467047F7
:104E3C0043444300206469723A20200025640A2010
:104E4C00000D0020646966663A20200020737065AE
:104E5C0065643A2020000000000000000000010200
:104E6C000304060708090000000001020304000106
:104E7C0002000201020000003000002000000000CF
:104E8C000000000000000000000000000000000016
:104E9C000000000000000000000000000000000006
:104EAC0000000000000000000000000000000000F6
:104EBC0000000000000000000000000000000000E6
:104ECC0000000000000000000000000000000000D6
:104EDC00000000000000000000000000232D302B1B
:104EEC002000686C4C0065666745464700303132DF
:104EFC003334353637383941424344454600303136
:104F0C003233343536373839616263646566000094
:084F1C0084B3FF7F01000000D7
:044F2400B5010008CB
:044F280091010008EB
:104F2C0001000000100000003C4E000802000000D0
:104F3C00D727000875270008012900083B2900081D
:104F4C0071270008000000000024F400300000204D
:104F5C0000000000A84E0008C84E0008884E00084B
:104F6C000000000000000000000000000000000035
:104F7C000000000000000000000000000000000025
:104F8C000000000000000000000000000000000015
:104F9C000000000000000000000000000000000005
:104FAC0000000000000000000000000000000000F5
:0400000508003E951C
:00000001FF
