:020000040800F2
:1000000000000220115500083D4B00084B4B000832
:10001000514B0008574B00085D4B000800000000E2
:10002000000000000000000000000000634B00081A
:10003000714B0008000000007F4B00088D4B00084A
:1000400061550008615500086155000861550008B8
:1000500061550008615500086155000861550008A8
:100060006155000861550008615500086155000898
:100070006155000861550008615500086155000888
:100080006155000861550008615500086155000878
:100090006155000861550008615500086155000868
:1000A0006155000861550008615500086155000858
:1000B0006155000861550008615500086155000848
:1000C0006155000861550008615500086155000838
:1000D0006155000861550008994B000861550008FA
:1000E0006155000861550008615500086155000818
:1000F0006155000861550008615500086155000808
:1001000061550008615500086155000861550008F7
:100110006155000861550008AD4B000861550008A5
:1001200061550008615500086155000861550008D7
:1001300061550008615500086155000861550008C7
:1001400061550008615500086155000861550008B7
:1001500061550008615500086155000861550008A7
:100160006155000861550008615500086155000897
:100170006155000861550008615500080000000045
:080180006155000861550008FB
:1001880010B5054C237833B9044B13B10448AFF3C9
:1001980000800123237010BD9C0000200000000097
:1001A800B859000808B5034B1BB103490348AFF31E
:1001B800008008BD00000000A0000020B859000819
:1001C80081F0004102E000BF83F0004330B54FEA00
:1001D80041044FEA430594EA050F08BF90EA020F6D
:1001E8001FBF54EA000C55EA020C7FEA645C7FEA00
:1001F800655C00F0E2804FEA5454D4EB5555B8BF23
:100208006D420CDD2C4480EA020281EA030382EA93
:10021800000083EA010180EA020281EA0303362D25
:1002280088BF30BD11F0004F4FEA01314FF4801CF8
:100238004CEA113102D0404261EB410113F0004F0A
:100248004FEA03334CEA133302D0524263EB4303C1
:1002580094EA050F00F0A780A4F10104D5F1200E5F
:100268000DDB02FA0EFC22FA05F2801841F10001BA
:1002780003FA0EF2801843FA05F359410EE0A5F18E
:1002880020050EF1200E012A03FA0EFC28BF4CF0BF
:10029800020C43FA05F3C01851EBE37101F0004575
:1002A80007D54FF0000EDCF1000C7EEB00006EEB82
:1002B8000101B1F5801F1BD3B1F5001F0CD349080C
:1002C8005FEA30004FEA3C0C04F101044FEA445263
:1002D80012F5800F80F09A80BCF1004F08BF5FEAEA
:1002E800500C50F1000041EB045141EA050130BDCA
:1002F8005FEA4C0C404141EB010111F4801FA4F16D
:100308000104E9D191F0000F04BF01460020B1FAC1
:1003180081F308BF2033A3F10B03B3F120020CDAF9
:100328000C3208DD02F1140CC2F10C0201FA0CF0D7
:1003380021FA02F10CE002F11402D8BFC2F1200C3C
:1003480001FA02F120FA0CFCDCBF41EA0C019040F2
:10035800E41AA2BF01EB0451294330BD6FEA04043B
:100368001F3C1CDA0C340EDC04F11404C4F1200226
:1003780020FA04F001FA02F340EA030021FA04F338
:1003880045EA030130BDC4F10C04C4F1200220FA8F
:1003980002F001FA04F340EA0300294630BD21FACD
:1003A80004F0294630BD94F0000F83F4801306BF93
:1003B80081F480110134013D4EE77FEA645C18BF87
:1003C8007FEA655C29D094EA050F08BF90EA020F1E
:1003D80005D054EA000C04BF1946104630BD91EA16
:1003E800030F1EBF0021002030BD5FEA545C05D119
:1003F8004000494128BF41F0004130BD14F5800458
:100408003CBF01F5801130BD01F0004545F0FE41CB
:1004180041F470014FF0000030BD7FEA645C1ABF00
:10042800194610467FEA655C1CBF0B46024650EA37
:10043800013406BF52EA033591EA030F41F4002163
:1004480030BD00BF90F0000F04BF0021704730B5E9
:100458004FF4806404F132044FF000054FF00001BE
:1004680050E700BF90F0000F04BF0021704730B57F
:100478004FF4806404F1320410F0004548BF404254
:100488004FF000013EE700BF42004FEAE2014FEAA9
:1004980031014FEA02701FBF12F07F4393F07F4F84
:1004A80081F06051704792F0000F14BF93F07F4FB6
:1004B800704730B54FF4607401F0004521F00041F9
:1004C80020E700BF50EA010208BF704730B54FF07F
:1004D80000050AE050EA010208BF704730B511F084
:1004E800004502D5404261EB41014FF4806404F1BC
:1004F80032045FEA915C3FF4DCAE4FF003025FEA3E
:10050800DC0C18BF03325FEADC0C18BF033202EBC5
:10051800DC02C2F1200300FA03FC20FA02F001FA1F
:1005280003FE40EA0E0021FA02F11444C1E600BFBE
:1005380070B54FF0FF0C4CF4E06C1CEA11541DBF71
:100548001CEA135594EA0C0F95EA0C0F00F0DEF83C
:100558002C4481EA030621EA4C5123EA4C5350EA21
:10056800013518BF52EA033541F4801143F4801372
:1005780038D0A0FB02CE4FF00005E1FB02E506F003
:100588000042E0FB03E54FF00006E1FB03569CF058
:10059800000F18BF4EF0010EA4F1FF04B6F5007F5E
:1005A80064F5407404D25FEA4E0E6D4146EB0606D0
:1005B80042EAC62141EA55514FEAC52040EA5E5059
:1005C8004FEACE2EB4F1FD0C88BFBCF5E06F1ED803
:1005D800BEF1004F08BF5FEA500E50F1000041EB3A
:1005E800045170BD06F0004646EA010140EA0200E7
:1005F80081EA0301B4EB5C04C2BFD4EB0C0541EA09
:10060800045170BD41F480114FF0000E013C00F31D
:10061800AB8014F1360FDEBF002001F0004170BD41
:10062800C4F10004203C35DA0C341BDC04F114045A
:10063800C4F1200500FA05F320FA04F001FA05F2E6
:1006480040EA020001F0004221F0004110EBD370B3
:1006580021FA04F642EB06015EEA430E08BF20EADF
:10066800D37070BDC4F10C04C4F1200500FA04F382
:1006780020FA05F001FA04F240EA020001F0004114
:1006880010EBD37041F100015EEA430E08BF20EA87
:10069800D37070BDC4F1200500FA05F24EEA020ECF
:1006A80020FA04F301FA05F243EA020321FA04F0FE
:1006B80001F0004121FA04F220EA020000EBD370B5
:1006C8005EEA430E08BF20EAD37070BD94F0000FB5
:1006D8000FD101F00046400041EB010111F4801FE9
:1006E80008BF013CF7D041EA060195F0000F18BF9A
:1006F800704703F00046520043EB030313F4801FD6
:1007080008BF013DF7D043EA0603704794EA0C0F8F
:100718000CEA135518BF95EA0C0F0CD050EA4106A5
:1007280018BF52EA4306D1D181EA030101F0004122
:100738004FF0000070BD50EA410606BF104619464A
:1007480052EA430619D094EA0C0F02D150EA013656
:1007580013D195EA0C0F05D152EA03361CBF104697
:1007680019460AD181EA030101F0004141F0FE4136
:1007780041F470014FF0000070BD41F0FE4141F4BA
:10078800780170BD70B54FF0FF0C4CF4E06C1CEABA
:1007980011541DBF1CEA135594EA0C0F95EA0C0F6F
:1007A80000F0A7F8A4EB050481EA030E52EA03352A
:1007B8004FEA013100F088804FEA03334FF080554B
:1007C80045EA131343EA12634FEA022245EA111578
:1007D80045EA10654FEA00260EF000419D4208BF29
:1007E800964244F1FD0404F5407402D25B084FEAD6
:1007F8003202B61A65EB03055B084FEA32024FF482
:1008080080104FF4002CB6EB020E75EB030E22BFDE
:10081800B61A754640EA0C005B084FEA3202B6EB9E
:10082800020E75EB030E22BFB61A754640EA5C004D
:100838005B084FEA3202B6EB020E75EB030E22BFDD
:10084800B61A754640EA9C005B084FEA3202B6EBDE
:10085800020E75EB030E22BFB61A754640EADC009D
:1008680055EA060E18D04FEA051545EA16754FEAFF
:1008780006164FEAC30343EA52734FEAC2025FEA1D
:100888001C1CC0D111F4801F0BD141EA00014FF0AC
:1008980000004FF0004CB6E711F4801F04BF01437D
:1008A8000020B4F1FD0C88BFBCF5E06F3FF6AFAE99
:1008B800B5EB030C04BFB6EB020C5FEA500C50F129
:1008C800000041EB045170BD0EF0004E4EEA1131AC
:1008D80014EB5C04C2BFD4EB0C0541EA045170BDB3
:1008E80041F480114FF0000E013C90E645EA060EF7
:1008F8008DE60CEA135594EA0C0F08BF95EA0C0F25
:100908003FF43BAF94EA0C0F0AD150EA01347FF46C
:1009180034AF95EA0C0F7FF425AF104619462CE743
:1009280095EA0C0F06D152EA03353FF4FDAE1046A6
:10093800194622E750EA410618BF52EA43067FF4F7
:10094800C5AE50EA41047FF40DAF52EA43057FF487
:10095800EBAE12E74FF0FF3C06E000BF4FF0010C92
:1009680002E000BF4FF0010C4DF804CD4FEA410CF6
:100978007FEA6C5C4FEA430C18BF7FEA6C5C1BD0C3
:1009880001B050EA410C0CBF52EA430C91EA030F44
:1009980002BF90EA020F0020704710F1000F91EAA1
:1009A800030F58BF994208BF90422CBFD8176FEA6F
:1009B800E37040F0010070474FEA410C7FEA6C5C3D
:1009C80002D150EA013C07D14FEA430C7FEA6C5C44
:1009D800D6D152EA033CD3D05DF8040B704700BF70
:1009E8008446104662468C461946634600E000BFBE
:1009F80001B5FFF7B7FF002848BF10F1000F01BD90
:100A08004DF808EDFFF7F4FF0CBF012000205DF85A
:100A180008FB00BF4DF808EDFFF7EAFF34BF0120DF
:100A280000205DF808FB00BF4DF808EDFFF7E0FF78
:100A380094BF012000205DF808FB00BF4DF808EDC9
:100A4800FFF7CEFF94BF012000205DF808FB00BF30
:100A58004DF808EDFFF7C4FF34BF012000205DF812
:100A680008FB00BF4FEA410212F5001215D211D55A
:100A78006FF47873B3EB625212D94FEAC12343F093
:100A8800004343EA505311F0004F23FA02F018BF15
:100A9800404270474FF00000704750EA013005D1DE
:100AA80011F0004008BF6FF0004070474FF00000A1
:100AB800704700BF4A0011D212F5001211D20DD5AD
:100AC8006FF47873B3EB62520ED44FEAC12343F04C
:100AD800004343EA505323FA02F070474FF00000F6
:100AE800704750EA013002D14FF0FF3070474FF0A5
:100AF8000000704753B94AB9002908BF00281CBF35
:100B08004FF0FF314FF0FF3000F07AB9ADF1080C2B
:100B18006DE904CE00F006F8DDF804E0DDE9022313
:100B280004B070472DE9F0478C460D460446089EF0
:100B3800002B51D18A4217466DD9B2FA82FEBEF116
:100B4800000F0BD0CEF1200C01FA0EF520FA0CFCA8
:100B580002FA0EF74CEA050C00FA0EF44FEA174AAF
:100B6800250CBCFBFAF81FFA87F90AFB18CC45EAF2
:100B78000C4508FB09F3AB420AD9ED1908F1FF321D
:100B880080F02381AB4240F22081A8F102083D4465
:100B9800ED1AA4B2B5FBFAF00AFB105544EA054475
:100BA80000FB09F9A14509D9E41900F1FF3380F0E8
:100BB8000A81A14540F2078102383C44A4EB0904AC
:100BC80040EA08400021002E61D024FA0EF40023E8
:100BD80034607360BDE8F0878B4207D9002E54D08B
:100BE800002186E821000846BDE8F087B3FA83F1C2
:100BF800002940F08E80AB4202D3824200F2FA8094
:100C0800841A65EB03050120AC46002E3FD086E828
:100C18001010BDE8F08712B90127B7FBF2F7B7FA51
:100C280087FEBEF1000F34D1EB1B3A0C1FFA87FC8C
:100C38000121B3FBF2F8250C02FB183345EA034502
:100C48000CFB08F3AB4207D9ED1908F1FF3002D2CB
:100C5800AB4200F2D1808046ED1AA3B2B5FBF2F0A8
:100C680002FB105543EA05440CFB00FCA44507D9D8
:100C7800E41900F1FF3302D2A44500F2B880184607
:100C8800A4EB0C0440EA08409DE731463046BDE835
:100C9800F087CEF1200405FA0EF307FA0EF720FAD2
:100CA80004F83A0C25FA04F448EA0308B4FBF2F114
:100CB8004FEA184502FB11441FFA87FC45EA044530
:100CC80001FB0CF3AB4200FA0EF409D9ED1901F15E
:100CD800FF3080F08A80AB4240F2878002393D4481
:100CE800EB1A1FFA88F5B3FBF2F002FB103345EA62
:100CF800034500FB0CF3AB4207D9ED1900F1FF38AF
:100D08006FD2AB426DD902383D44EB1A40EA01413B
:100D18008FE7C1F1200722FA07F88B4005FA01F4A2
:100D280048EA030320FA07FE4FEA134CFD404EEA57
:100D3800040EB5FBFCF94FEA1E440CFB19551FFACB
:100D480083F844EA054509FB08F4AC4202FA01F2CB
:100D580000FA01FA08D9ED1809F1FF3043D2AC4284
:100D680041D9A9F102091D442D1B1FFA8EFEB5FBBE
:100D7800FCF00CFB10554EEA054400FB08F8A045B2
:100D880007D9E41800F1FF3529D2A04527D9023840
:100D98001C4440EA0940A4EB0804A0FB02894C4526
:100DA800C6464D4615D312D056B1BAEB0E0364EBC6
:100DB800050404FA07F7CB401F43CC403760746042
:100DC8000021BDE8F0871846F8E69046E0E6C245FF
:100DD800EAD2B8EB020E69EB03050138E4E72846CE
:100DE800D7E7404691E78146BEE7014678E70238F3
:100DF8003C4445E7084608E7A8F102083D442BE7CC
:100E0800704700BF80B500AF0E4A0E4B1B6843F415
:100E1800007313600B4A0B4B1B6843F48063136029
:100E2800084A084B1B6843F480731360032000F0E2
:100E38004BF9002000F008F803F054FE0023184690
:100E480080BD00BF003C024080B582B000AF786032
:100E5800124B1A68124B1B7819464FF47A73B3FB7E
:100E6800F1F3B2FBF3F3184600F063F90346002BE5
:100E780001D001230EE07B680F2B0AD80022796885
:100E88004FF0FF3000F02BF9064A7B68136000230F
:100E980000E0012318460837BD4680BD3000002019
:100EA800040000200000002080B400AF064B1B782F
:100EB8001A46064B1B681344044A136000BFBD461C
:100EC8005DF8047B704700BF04000020F403002095
:100ED80080B400AF034B1B681846BD465DF8047B21
:100EE800704700BFF403002080B584B000AF78607D
:100EF800FFF7EEFFB8607B68FB60FB68B3F1FF3F6C
:100F080005D0094B1B781A46FB681344FB6000BFE9
:100F1800FFF7DEFF0246BB68D21AFB689A42F7D396
:100F280000BF1037BD4680BD0400002080B485B0E6
:100F380000AF78607B6803F00703FB600C4BDB684D
:100F4800BB60BA684FF6FF031340BB60FB681A0228
:100F5800BB68134343F0BF6343F40033BB60044AE8
:100F6800BB68D36000BF1437BD465DF8047B70478B
:100F780000ED00E080B400AF044BDB681B0A03F00F
:100F880007031846BD465DF8047B704700ED00E096
:100F980080B483B000AF0346FB7197F90730002B8C
:100FA8000BDB094997F907305B09FA7902F01F0250
:100FB800012000FA02F241F8232000BF0C37BD4699
:100FC8005DF8047B704700BF00E100E080B483B0A7
:100FD80000AF03463960FB7197F90730002B0ADB35
:100FE8000D4997F907303A68D2B21201D2B20B44D0
:100FF80083F800230AE00949FB7903F00F03043B57
:101008003A68D2B21201D2B20B441A7600BF0C373A
:10101800BD465DF8047B704700E100E000ED00E0AC
:1010280080B489B000AFF860B9607A60FB6803F0FB
:101038000703FB61FB69C3F10703042B28BF0423E3
:10104800BB61FB690433062B02D9FB69033B00E053
:1010580000237B610122BB6902FA03F35A1EBB68B5
:101068001A407B699A4001217B6901FA03F3591EF2
:101078007B680B40134318462437BD465DF8047B54
:101088007047000080B582B000AF78607B68013B94
:10109800B3F1807F01D301230FE00A4A7B68013B4B
:1010A80053600F214FF0FF30FFF790FF054B0022F0
:1010B8009A60044B07221A60002318460837BD4679
:1010C80080BD00BF10E000E080B582B000AF78605E
:1010D8007868FFF72BFF00BF0837BD4680BD80B595
:1010E80086B000AF0346B9607A60FB7300237B616A
:1010F800FFF740FF78617A68B9687869FFF790FF71
:10110800024697F90F3011461846FFF75FFF00BFF8
:101118001837BD4680BD80B582B000AF0346FB716D
:1011280097F907301846FFF733FF00BF0837BD4669
:1011380080BD80B582B000AF78607868FFF7A2FF05
:10114800034618460837BD4680BD80B483B000AF5B
:1011580078607B6893F83530DBB2022B04D07B686B
:1011680080225A6501230CE07B68052283F835202C
:101178007B681B687A681268126822F001021A609C
:10118800002318460C37BD465DF8047B7047000005
:1011980080B489B000AF7860396000237B61002398
:1011A8003B610023BB610023FB616BE10122FB690A
:1011B80002FA03F37B613B681A687B6913403B6161
:1011C8003A697B699A4240F05A813B685B68012B17
:1011D8000BD03B685B68022B07D03B685B68112B20
:1011E80003D03B685B68122B30D17B689B68BB617E
:1011F800FB695B00032202FA03F3DB43BA6913407D
:10120800BB613B68DA68FB695B0002FA03F3BA6901
:101218001343BB617B68BA699A607B685B68BB6192
:101228000122FB6902FA03F3DB43BA691340BB618D
:101238003B685B681B0903F00102FB6902FA03F3D0
:10124800BA691343BB617B68BA695A607B68DB681B
:10125800BB61FB695B00032202FA03F3DB43BA6953
:101268001340BB613B689A68FB695B0002FA03F3B1
:10127800BA691343BB617B68BA69DA603B685B682B
:10128800022B03D03B685B68122B23D1FB69DA0879
:101298007B68083253F82230BB61FB6903F007030F
:1012A8009B000F2202FA03F3DB43BA691340BB61C8
:1012B8003B681A69FB6903F007039B0002FA03F312
:1012C800BA691343BB61FB69DA087B680832B969FC
:1012D80043F822107B681B68BB61FB695B00032233
:1012E80002FA03F3DB43BA691340BB613B685B68EE
:1012F80003F00302FB695B0002FA03F3BA691343C4
:10130800BB617B68BA691A603B685B6803F080530D
:10131800002B00F0B4800023FB605F4A5E4B5B6CDF
:1013280043F4804353645C4B5B6C03F48043FB6081
:10133800FB685A4AFB699B08023352F82330BB61A9
:10134800FB6903F003039B000F2202FA03F3DB435C
:10135800BA691340BB617B68514A93422BD07B68C2
:10136800504A934225D07B684F4A93421FD07B68EE
:101378004E4A934219D07B684D4A934213D07B68FA
:101388004C4A93420DD07B684B4A934207D07B6806
:101398004A4A934201D107230EE008230CE00623B2
:1013A8000AE0052308E0042306E0032304E00223FF
:1013B80002E0012300E00023FA6902F00302920030
:1013C8009340BA691343BB613449FB699B080233F4
:1013D800BA6941F823203A4B1B68BB613B69DB4380
:1013E800BA691340BB613B685B6803F48033002B28
:1013F80003D0BA693B691343BB61314ABB691360C7
:101408002F4B5B68BB613B69DB43BA691340BB6127
:101418003B685B6803F40033002B03D0BA693B696F
:101428001343BB61264ABB695360254B9B68BB616C
:101438003B69DB43BA691340BB613B685B6803F4F3
:101448008013002B03D0BA693B691343BB611C4A64
:10145800BB6993601A4BDB68BB613B69DB43BA69C4
:101468001340BB613B685B6803F40013002B03D097
:10147800BA693B691343BB61114ABB69D360FB6915
:101488000133FB61FB690F2B7FF690AE00BF243759
:10149800BD465DF8047B70470038024000380140C3
:1014A800000002400004024000080240000C024014
:1014B800001002400014024000180240001C0240C4
:1014C800003C014080B483B000AF78600B467B805D
:1014D80013467B707B78002B03D07A887B689A61EF
:1014E80003E07B881A047B689A6100BF0C37BD460D
:1014F8005DF8047B7047000080B586B000AF786067
:101508007B68002B01D101235BE27B681B6803F039
:101518000103002B75D0A34B9B6803F00C03042B2D
:101528000CD0A04B9B6803F00C03082B12D19D4BE9
:101538005B6803F48003B3F5800F0BD1994B1B68EC
:1015480003F40033002B5BD07B685B68002B57D11A
:10155800012336E27B685B68B3F5803F06D1914A88
:10156800904B1B6843F4803313601DE07B685B6815
:10157800B3F5A02F0CD18B4A8A4B1B6843F4802308
:101588001360884A874B1B6843F4803313600BE071
:10159800844A844B1B6823F480331360814A814B4F
:1015A8001B6823F4802313607B685B68002B13D0CF
:1015B800FFF78EFC386108E0FFF78AFC02463B69BA
:1015C800D31A642B01D90323FBE1764B1B6803F480
:1015D8000033002BF0D014E0FFF77AFC386108E004
:1015E800FFF776FC02463B69D31A642B01D9032323
:1015F800E7E16C4B1B6803F40033002BF0D100E0EB
:1016080000BF7B681B6803F00203002B63D0654BA7
:101618009B6803F00C03002B0BD0624B9B6803F014
:101628000C03082B1CD15F4B5B6803F48003002B71
:1016380016D15C4B1B6803F00203002B05D07B68B6
:10164800DB68012B01D00123BBE15649554B1B68D0
:1016580023F0F8027B681B69DB0013430B603AE058
:101668007B68DB68002B20D04F4B01221A60FFF704
:101678002FFC386108E0FFF72BFC02463B69D31AC0
:10168800022B01D903239CE1464B1B6803F002039C
:10169800002BF0D04349434B1B6823F0F8027B68CA
:1016A8001B69DB0013430B6015E03F4B00221A60F7
:1016B800FFF70EFC386108E0FFF70AFC02463B69B9
:1016C800D31A022B01D903237BE1364B1B6803F0A5
:1016D8000203002BF0D17B681B6803F00803002B82
:1016E80030D07B685B69002B16D0304B01221A6022
:1016F800FFF7EEFB386108E0FFF7EAFB02463B69BB
:10170800D31A022B01D903235BE1264B5B6F03F04D
:101718000203002BF0D015E0244B00221A60FFF7DB
:10172800D7FB386108E0FFF7D3FB02463B69D31AC1
:10173800022B01D9032344E11A4B5B6F03F0020328
:10174800002BF0D17B681B6803F00403002B00F02A
:10175800A0800023FB75134B1B6C03F08053002BF8
:101768000FD10023BB600F4A0E4B1B6C43F0805314
:1017780013640C4B1B6C03F08053BB60BB680123E4
:10178800FB750B4B1B6803F48073002B21D1084AAF
:10179800074B1B6843F480731360FFF799FB3861AC
:1017A80011E000BF0038024000004742800E474267
:1017B80000700040FFF78CFB02463B69D31A022BEE
:1017C80001D90323FDE0814B1B6803F48073002BD0
:1017D800F0D07B689B68012B06D17D4A7C4B1B6F40
:1017E80043F0010313671CE07B689B68052B0CD151
:1017F800774A774B1B6F43F004031367744A744BA3
:101808001B6F43F0010313670BE0714A704B1B6FAA
:1018180023F0010313676E4A6D4B1B6F23F004031B
:1018280013677B689B68002B15D0FFF751FB386165
:101838000AE0FFF74DFB02463B69D31A41F28832B2
:10184800934201D90323BCE0614B1B6F03F00203F1
:10185800002BEED014E0FFF73BFB38610AE0FFF7FE
:1018680037FB02463B69D31A41F28832934201D9C9
:101878000323A6E0564B1B6F03F00203002BEED1A7
:10188800FB7D012B05D1524A514B1B6C23F0805331
:1018980013647B689B69002B00F092804C4B9B681B
:1018A80003F00C03082B5CD07B689B69022B41D1A9
:1018B800484B00221A60FFF70BFB386108E0FFF77E
:1018C80007FB02463B69D31A022B01D9032378E0B0
:1018D8003F4B1B6803F00073002BF0D13C497B6839
:1018E800DA697B681B6A1A437B685B6A9B011A4347
:1018F8007B689B6A5B08013B1B041A437B68DB6AB5
:101908001B0613434B60334B01221A60FFF7E0FAC2
:10191800386108E0FFF7DCFA02463B69D31A022B6C
:1019280001D903234DE02A4B1B6803F00073002BF9
:10193800F0D045E0274B00221A60FFF7C9FA38615A
:1019480008E0FFF7C5FA02463B69D31A022B01D912
:10195800032336E01E4B1B6803F00073002BF0D105
:101968002EE07B689B69012B01D1012329E0184BEC
:101978009B68FB60FB6803F480027B68DB699A4222
:101988001CD1FB6803F03F027B681B6A9A4215D1A1
:10199800FA6847F6C07313407A68526A93420DD1C9
:1019A800FB6803F440327B689B6A9A4206D1FB6865
:1019B80003F070627B68DB6A9A4201D0012300E081
:1019C800002318461837BD4680BD00BF0070004090
:1019D800003802406000474280B584B000AF7860AC
:1019E80039607B68002B01D10123CCE0684B1B6870
:1019F80003F00F023B689A420CD2654B3A68D2B2A8
:101A08001A70634B1B6803F00F023B689A4201D0BF
:101A18000123B8E07B681B6803F00203002B20D089
:101A28007B681B6803F00403002B05D0594A594B07
:101A38009B6843F4E05393607B681B6803F00803DA
:101A4800002B05D0534A534B9B6843F46043936083
:101A58005049504B9B6823F0F0027B689B68134306
:101A68008B607B681B6803F00103002B44D07B6804
:101A78005B68012B07D1474B1B6803F40033002B2D
:101A880019D101237FE07B685B68022B03D07B6858
:101A98005B68032B07D13F4B1B6803F00073002BD7
:101AA80009D101236FE03B4B1B6803F00203002BB5
:101AB80001D1012367E03749364B9B6823F00302C5
:101AC8007B685B6813438B60FFF702FAF8600AE0F3
:101AD800FFF7FEF90246FB68D31A41F288329342B7
:101AE80001D903234FE02B4B9B6803F00C027B6862
:101AF8005B689B009A42EBD1254B1B6803F00F02F1
:101B08003B689A420CD9224B3A68D2B21A70204BE1
:101B18001B6803F00F023B689A4201D0012332E0B0
:101B28007B681B6803F00403002B08D01949194B84
:101B38009B6823F4E0527B68DB6813438B607B6807
:101B48001B6803F00803002B09D01249114B9B684E
:101B580023F460427B681B69DB0013438B6000F051
:101B680021F801460B4B9B681B0903F00F030A4A37
:101B7800D35C21FA03F3094A1360094B1B68184622
:101B8800FFF762F9002318461037BD4680BD00BF35
:101B9800003C024000380240D059000830000020C4
:101BA800000000202DE9F04F8FB000AF0023FB624A
:101BB80000237B630023BB6200233B63624B9B686B
:101BC80003F00C03042B07D0082B08D0002B40F09F
:101BD800B2805E4B3B63B1E05D4B3B63AEE05A4B7A
:101BE8005B6803F03F03FB62574B5B6803F48003B9
:101BF800002B4ED0544B5B689B094FF0000440F219
:101C0800FF114FF0000201EA030102EA04020B4649
:101C1800144660017862786A40EAD36078625B01B2
:101C28003B62D7E908345B1A64EB02044FEA841973
:101C380049EA93694FEA8318B8EB030869EB04098A
:101C48004FEAC903FB61FB6943EA5873FB614FEA3A
:101C5800C803BB61D7E9068918EB010849EB0209FB
:101C68004FEA49237B617B6943EAD8537B614FEA9A
:101C780048233B61D7E9048940464946FB6A4FF04F
:101C880000041A462346FEF735FF03460C467B63DD
:101C980043E02D4B5B689B094FF0000440F2FF11B5
:101CA8004FF0000201EA030102EA04020B4614465F
:101CB8006001F860F86840EAD360F8605B01BB60D7
:101CC800D7E902345B1A64EB0204A60146EA93667C
:101CD8009D01ED1A66EB0406F3007B607B6843EA1E
:101CE80055737B60EB003B6097E860006D1846EB2E
:101CF80002064FEA862B4BEA955B4FEA852A554642
:101D08005E4628463146FB6A4FF000041A462346D1
:101D1800FEF7F0FE03460C467B630B4B5B681B0C1F
:101D280003F0030301335B00BB627A6BBB6AB2FB4F
:101D3800F3F33B6302E0054B3B6300BF3B6B184684
:101D48003C37BD46BDE8F08F003802400024F4005F
:101D580000127A0080B400AF034B1B681846BD46DA
:101D68005DF8047B704700BF3000002080B500AFED
:101D7800FFF7F0FF0146054B9B689B0A03F007033A
:101D8800034AD35C21FA03F3184680BD00380240A9
:101D9800E059000880B500AFFFF7DCFF0146054BAE
:101DA8009B685B0B03F00703034AD35C21FA03F338
:101DB800184680BD00380240E059000880B582B05E
:101DC80000AF78607B68002B01D101231DE07B68A0
:101DD80093F83D30DBB2002B06D17B68002283F8F4
:101DE8003C20786803F048F97B68022283F83D209C
:101DF8007B681A687B6804331946104600F018FCA3
:101E08007B68012283F83D20002318460837BD4629
:101E180080BD80B485B000AF78607B681B687A6845
:101E28001268D26842F00102DA607B681B689B681E
:101E380003F00703FB60FB68062B07D07B681B6871
:101E48007A681268126842F001021A600023184684
:101E58001437BD465DF8047B704780B582B000AF8B
:101E680078607B68002B01D101231DE07B6893F823
:101E78003D30DBB2002B06D17B68002283F83C2082
:101E8800786800F015F87B68022283F83D207B68AB
:101E98001A687B6804331946104600F0C9FB7B6852
:101EA800012283F83D20002318460837BD4680BD2F
:101EB80080B483B000AF786000BF0C37BD465DF8D2
:101EC800047B704780B584B000AF786039607B6868
:101ED8001B6801223968184600F094FE7B681B686D
:101EE800154A934204D07B681B68144A934201D177
:101EF800012300E00023002B07D07B681B687A6869
:101F08001268526C42F400425A647B681B689B68F2
:101F180003F00703FB60FB68062B07D07B681B6890
:101F28007A681268126842F001021A6000231846A3
:101F38001037BD4680BD00BF0000014000040140CD
:101F480080B586B000AF786039607B68002B01D11E
:101F5800012383E07B6893F83D30DBB2002B06D188
:101F68007B68002283F83C20786803F0BDF87B6822
:101F7800022283F83D207B681A687B681B689B688F
:101F880023F4804323F0070393607B681A687B6817
:101F980004331946104600F04BFB7B681B689B68AE
:101FA8007B617B681B689B693B617B681B681B6A5C
:101FB800FB603B681B687A6913437B613B6923F4C8
:101FC800407323F003033B613B689A683B689B6955
:101FD8001B0213433A6913433B613B6923F4406393
:101FE80023F00C033B613B6923F4704323F0F003B7
:101FF8003B613B68DA683B68DB691B0213433A695B
:1020080013433B613B681B691A013B681B6A1B034E
:1020180013433A6913433B61FB6823F02203FB60D7
:10202800FB6823F08803FB603B685A683B685B6980
:102038001B011343FA681343FB607B681B687A69CA
:102048009A607B681B683A699A617B681B68FA68C2
:102058001A627B68012283F83D200023184618374E
:10206800BD4680BD80B582B000AF786039603B68FE
:10207800002B02D0042B08D00FE07B681B680122DC
:102088000021184600F0BEFD16E07B681B6801229F
:102098000421184600F0B6FD0EE07B681B6801229B
:1020A8000021184600F0AEFD7B681B680122042160
:1020B800184600F0A7FD00BF7B681B687A681268A5
:1020C800126842F001021A60002318460837BD461C
:1020D80080BD80B582B000AF78607B681B681B69E3
:1020E80003F00203022B22D17B681B68DB6803F034
:1020F8000203022B1BD17B681B686FF002021A6176
:102108007B6801221A777B681B689B6903F00303CD
:10211800002B03D0786800F06CFA05E0786800F0CE
:102128005EFA786800F06FFA7B6800221A777B689D
:102138001B681B6903F00403042B22D17B681B680E
:10214800DB6803F00403042B1BD17B681B686FF06A
:1021580004021A617B6802221A777B681B689B69F4
:1021680003F44073002B03D0786800F042FA05E0CE
:10217800786800F034FA786800F045FA7B68002245
:102188001A777B681B681B6903F00803082B22D1A8
:102198007B681B68DB6803F00803082B1BD17B688E
:1021A8001B686FF008021A617B6804221A777B6843
:1021B8001B68DB6903F00303002B03D0786800F089
:1021C80018FA05E0786800F00AFA786800F01BFA57
:1021D8007B6800221A777B681B681B6903F0100371
:1021E800102B22D17B681B68DB6803F01003102BCF
:1021F8001BD17B681B686FF010021A617B6808228C
:102208001A777B681B68DB6903F44073002B03D0E3
:10221800786800F0EEF905E0786800F0E0F9786891
:1022280000F0F1F97B6800221A777B681B681B694C
:1022380003F00103012B0ED17B681B68DB6803F0F8
:102248000103012B07D17B681B686FF001021A613B
:10225800786801F0EDFE7B681B681B6903F080035A
:10226800802B0ED17B681B68DB6803F08003802B12
:1022780007D17B681B686FF080021A61786800F0EC
:10228800BFFD7B681B681B6903F04003402B0ED120
:102298007B681B68DB6803F04003402B07D17B6831
:1022A8001B686FF040021A61786800F0B6F97B6825
:1022B8001B681B6903F02003202B0ED17B681B6869
:1022C800DB6803F02003202B07D17B681B686FF0C5
:1022D80020021A61786800F089FD00BF0837BD4602
:1022E80080BD000080B584B000AFF860B9607A6046
:1022F800FB6893F83C30012B01D10223B4E0FB6862
:10230800012283F83C20FB68022283F83D207B6889
:102318000C2B00F29F8001A252F823F059230008E9
:102328005D2400085D2400085D2400089923000846
:102338005D2400085D2400085D240008DB230008F4
:102348005D2400085D2400085D2400081B240008A3
:10235800FB681B68B968184600F00AFAFB681B6836
:10236800FA681268926942F008029A61FB681B6871
:10237800FA681268926922F004029A61FB681B6885
:10238800FA6812689169BA6812690A439A6162E048
:10239800FB681B68B968184600F05AFAFB681B68A6
:1023A800FA681268926942F400629A61FB681B68D5
:1023B800FA681268926922F480629A61FB681B6865
:1023C800FA6812689169BA68126912020A439A6136
:1023D80041E0FB681B68B968184600F0AFFAFB6873
:1023E8001B68FA681268D26942F00802DA61FB6871
:1023F8001B68FA681268D26922F00402DA61FB6885
:102408001B68FA681268D169BA6812690A43DA6106
:1024180021E0FB681B68B968184600F003FBFB68FD
:102428001B68FA681268D26942F40062DA61FB68D4
:102438001B68FA681268D26922F48062DA61FB6864
:102448001B68FA681268D169BA68126912020A43ED
:10245800DA6100E000BFFB68012283F83D20FB68D9
:10246800002283F83C20002318461037BD4680BD63
:1024780080B584B000AF786039607B6893F83C30F1
:10248800012B01D10223A6E07B68012283F83C20BE
:102498007B68022283F83D207B681B689B68FB6091
:1024A800FB6823F07703FB60FB6823F47F43FB6042
:1024B8007B681B68FA689A603B681B68402B67D08A
:1024C800402B0BD8102B73D0102B02D8002B6FD0B9
:1024D80078E0202B6CD0302B6AD073E0702B0DD0B5
:1024E800702B04D8502B33D0602B41D06AE0B3F561
:1024F800805F66D0B3F5005F17D063E07B6818682B
:102508003B6899683B685A683B68DB6800F05AFB8F
:102518007B681B689B68FB60FB6843F07703FB6084
:102528007B681B68FA689A604CE07B6818683B68AF
:1025380099683B685A683B68DB6800F043FB7B6836
:102548001B687A681268926842F480429A6039E09F
:102558007B6818683B6859683B68DB681A4600F076
:10256800B7FA7B681B685021184600F010FB29E079
:102578007B6818683B6859683B68DB681A4600F056
:10258800D6FA7B681B686021184600F000FB19E04A
:102598007B6818683B6859683B68DB681A4600F036
:1025A80097FA7B681B684021184600F0F0FA09E0AA
:1025B8007B681A683B681B681946104600F0E7FA02
:1025C80000E000BF7B68012283F83D207B68002281
:1025D80083F83C20002318461037BD4680BD80B4E0
:1025E80083B000AF786000BF0C37BD465DF8047B50
:1025F800704780B483B000AF786000BF0C37BD4629
:102608005DF8047B704780B483B000AF786000BF8A
:102618000C37BD465DF8047B704780B483B000AFCB
:10262800786000BF0C37BD465DF8047B704700003A
:1026380080B485B000AF786039607B681B68FB6048
:102648007B68404A934213D07B68B3F1804F0FD028
:102658007B683D4A93420BD07B683C4A934207D043
:102668007B683B4A934203D07B683A4A934208D13D
:10267800FB6823F07003FB603B685B68FA681343F0
:10268800FB607B682F4A93422BD07B68B3F1804F65
:1026980027D07B682C4A934223D07B682B4A9342ED
:1026A8001FD07B682A4A93421BD07B68294A9342F1
:1026B80017D07B68284A934213D07B68274A9342F5
:1026C8000FD07B68264A93420BD07B68254A9342F9
:1026D80007D07B68244A934203D07B68234A9342FD
:1026E80008D1FB6823F44073FB603B68DB68FA6839
:1026F8001343FB60FB6823F080023B685B6913436C
:10270800FB607B68FA681A603B689A687B68DA62E3
:102718003B681A687B689A627B680A4A934203D0CE
:102728007B680C4A934203D13B681A697B681A6339
:102738007B6801225A6100BF1437BD465DF8047BEF
:10274800704700BF0000014000040040000800403E
:10275800000C0040000401400040014000440140DA
:102768000048014000180040001C004000200040C4
:1027780080B487B000AF786039607B681B6A23F04B
:1027880001027B681A627B681B6A7B617B685B68F5
:102798003B617B689B69FB60FB6823F07003FB600F
:1027A800FB6823F00303FB603B681B68FA6813436C
:1027B800FB607B6923F002037B613B689B687A6955
:1027C80013437B617B68204A934203D07B681F4A8E
:1027D80093420CD17B6923F008037B613B68DB687B
:1027E8007A6913437B617B6923F004037B617B680F
:1027F800154A934203D07B68144A934211D13B692E
:1028080023F480733B613B6923F400733B613B68AD
:102818005B693A6913433B613B689B693A691343B7
:102828003B617B683A695A607B68FA689A613B68E1
:102838005A687B685A637B687A691A6200BF1C37DA
:10284800BD465DF8047B704700000140000401406C
:1028580080B487B000AF786039607B681B6A23F06A
:1028680010027B681A627B681B6A7B617B685B6805
:102878003B617B689B69FB60FB6823F4E043FB607A
:10288800FB6823F44073FB603B681B681B02FA6813
:102898001343FB607B6923F020037B613B689B68E3
:1028A8001B017A6913437B617B68224A934203D0F8
:1028B8007B68214A93420DD17B6923F080037B61B9
:1028C8003B68DB681B017A6913437B617B6923F0F2
:1028D80040037B617B68174A934203D07B68164AA2
:1028E800934213D13B6923F480633B613B6923F432
:1028F80000633B613B685B699B003A6913433B613A
:102908003B689B699B003A6913433B617B683A6962
:102918005A607B68FA689A613B685A687B689A6370
:102928007B687A691A6200BF1C37BD465DF8047B74
:10293800704700BF000001400004014080B487B028
:1029480000AF786039607B681B6A23F480727B680B
:102958001A627B681B6A7B617B685B683B617B688A
:10296800DB69FB60FB6823F07003FB60FB6823F006
:102978000303FB603B681B68FA681343FB607B69D1
:1029880023F400737B613B689B681B027A691343DD
:102998007B617B68214A934203D07B68204A93423B
:1029A8000DD17B6923F400637B613B68DB681B0204
:1029B8007A6913437B617B6923F480637B617B685D
:1029C800164A934203D07B68154A934213D13B6958
:1029D80023F480533B613B6923F400533B613B681C
:1029E8005B691B013A6913433B613B689B691B01A7
:1029F8003A6913433B617B683A695A607B68FA68B5
:102A0800DA613B685A687B68DA637B687A691A62BC
:102A180000BF1C37BD465DF8047B704700000140CD
:102A28000004014080B487B000AF786039607B68EB
:102A38001B6A23F480527B681A627B681B6A3B61BD
:102A48007B685B687B617B68DB69FB60FB6823F400
:102A5800E043FB60FB6823F44073FB603B681B6842
:102A68001B02FA681343FB603B6923F400533B6184
:102A78003B689B681B033A6913433B617B68124AB6
:102A8800934203D07B68114A934209D17B6923F4AE
:102A980080437B613B685B699B017A6913437B6177
:102AA8007B687A695A607B68FA68DA613B685A68B9
:102AB8007B681A647B683A691A6200BF1C37BD4696
:102AC8005DF8047B704700BF00000140000401402E
:102AD80080B487B000AFF860B9607A60FB681B6AA1
:102AE8007B61FB681B6A23F00102FB681A62FB68C2
:102AF8009B693B613B6923F0F0033B617B681B01E9
:102B08003A6913433B617B6923F00A037B617A6965
:102B1800BB6813437B61FB683A699A61FB687A6911
:102B28001A6200BF1C37BD465DF8047B704780B44D
:102B380087B000AFF860B9607A60FB681B6A23F061
:102B48001002FB681A62FB689B697B61FB681B6A61
:102B58003B617B6923F470437B617B681B037A6963
:102B680013437B613B6923F0A0033B61BB681B01F6
:102B78003A6913433B61FB687A699A61FB683A6971
:102B88001A6200BF1C37BD465DF8047B704780B4ED
:102B980085B000AF786039607B689B68FB60FB6834
:102BA80023F07003FB603A68FB68134343F00703A4
:102BB800FB607B68FA689A6000BF1437BD465DF811
:102BC800047B704780B487B000AFF860B9607A6062
:102BD8003B60FB689B687B617B6923F47F437B6177
:102BE8003B681A027B681A43BB6813437A6913432C
:102BF8007B61FB687A699A6000BF1C37BD465DF847
:102C0800047B704780B487B000AFF860B9607A6021
:102C1800BB6803F01F03012202FA03F37B61FB6820
:102C28001A6A7B69DB431A40FB681A62FB681A6AF6
:102C3800BB6803F01F03796801FA03F31A43FB68C2
:102C48001A6200BF1C37BD465DF8047B7047000060
:102C580080B485B000AF786039607B6893F83C3009
:102C6800012B01D102235AE07B68012283F83C2022
:102C78007B68022283F83D207B681B685B68FB60E9
:102C88007B681B689B68BB60FB6823F07003FB6074
:102C98003B681B68FA681343FB607B681B68FA682B
:102CA8005A607B681B68214A934222D07B681B6864
:102CB800B3F1804F1DD07B681B681D4A934218D022
:102CC8007B681B681B4A934213D07B681B681A4AAF
:102CD80093420ED07B681B68184A934209D07B68E0
:102CE8001B68174A934204D07B681B68154A9342B5
:102CF8000CD1BB6823F08003BB603B685B68BA6893
:102D08001343BB607B681B68BA689A607B680122C2
:102D180083F83D207B68002283F83C200023184676
:102D28001437BD465DF8047B704700BF00000140C2
:102D38000004004000080040000C0040000401406E
:102D4800004001400018004080B485B000AF7860B2
:102D580039600023FB607B6893F83C30012B01D17C
:102D680002233DE07B68012283F83C20FB6823F0C6
:102D7800FF023B68DB681343FB60FB6823F4407287
:102D88003B689B681343FB60FB6823F480623B68E5
:102D98005B681343FB60FB6823F400623B681B68B5
:102DA8001343FB60FB6823F480523B681B691343A1
:102DB800FB60FB6823F400523B685B691343FB60CC
:102DC800FB6823F480423B68DB691343FB607B6844
:102DD8001B68FA685A647B68002283F83C20002349
:102DE80018461437BD465DF8047B704780B483B03D
:102DF80000AF786000BF0C37BD465DF8047B7047B4
:102E080080B483B000AF786000BF0C37BD465DF872
:102E1800047B704780B582B000AF78607B68002B78
:102E280001D101233FE07B6893F83930DBB2002BF6
:102E380006D17B68002283F83820786802F0E6FA29
:102E48007B68242283F839207B681B687A681268BB
:102E5800D26822F40052DA60786800F039FC7B68A6
:102E68001B687A681268126922F490421A617B68BA
:102E78001B687A681268526922F02A025A617B68D4
:102E88001B687A681268D26842F40052DA607B687C
:102E98000022DA637B68202283F839207B682022AD
:102EA80083F83A20002318460837BD4680BD80B510
:102EB80088B002AFF860B9603B601346FB8000231E
:102EC8007B61FB6893F83930DBB2202B40F08280BD
:102ED800BB68002B02D0FB88002B01D101237AE0CC
:102EE800FB6893F83830012B01D1022373E0FB68AB
:102EF800012283F83820FB680022DA63FB6821226C
:102F080083F83920FDF7E4FF7861FB68FA889A8432
:102F1800FB68FA88DA84FB68002283F8382041E0ED
:102F2800FB68DB8C9BB2013B9AB2FB68DA84FB68D6
:102F38009B68B3F5805F21D13B6800937B690022D1
:102F48008021F86800F05AFA0346002B01D00323C9
:102F580041E0BB683B61FB681B683A691288C2F3B1
:102F680008025A60FB681B69002B03D1BB68023357
:102F7800BB6017E0BB680133BB6013E03B6800939C
:102F88007B6900228021F86800F038FA0346002B9C
:102F980001D003231FE0FB681A68BB68591CB9609D
:102FA8001B785360FB68DB8C9BB2002BB8D13B6865
:102FB80000937B6900224021F86800F01FFA03465D
:102FC800002B01D0032306E0FB68202283F8392078
:102FD800002300E0022318461837BD4680BD80B59F
:102FE80088B002AFF860B9603B601346FB800023ED
:102FF8007B61FB6893F83A30DBB2202B40F090807D
:10300800BB68002B02D0FB88002B01D1012388E08C
:10301800FB6893F83830012B01D1022381E0FB686B
:10302800012283F83820FB680022DA63FB68222239
:1030380083F83A20FDF74CFF7861FB68FA889A8597
:10304800FB68FA88DA85FB68002283F838205CE0A0
:10305800FB68DB8D9BB2013B9AB2FB68DA85FB68A3
:103068009B68B3F5805F2BD13B6800937B69002296
:103078002021F86800F0C2F90346002B01D0032391
:103088004FE0BB683B61FB681B69002B0CD1FB68F8
:103098001B685B689BB2C3F308039AB23B691A804A
:1030A800BB680233BB6030E0FB681B685B689BB29F
:1030B800DBB29AB23B691A80BB680133BB6024E07B
:1030C8003B6800937B6900222021F86800F096F99C
:1030D8000346002B01D0032323E0FB681B69002B68
:1030E80008D1BB685A1CBA60FA6812685268D2B232
:1030F8001A700AE0BB685A1CBA60FA68126852680B
:10310800D2B202F07F02D2B21A70FB68DB8D9BB29A
:10311800002B9DD1FB68202283F83A20002300E091
:10312800022318461837BD4680BD80B485B000AF6D
:10313800F860B9601346FB80FB6893F83A30DBB25D
:10314800202B40D1BB68002B02D0FB88002B01D17B
:10315800012339E0FB6893F83830012B01D10223B1
:1031680032E0FB68012283F83820FB68BA689A626B
:10317800FB68FA889A85FB68FA88DA85FB6800227A
:10318800DA63FB68222283F83A20FB68002283F87E
:103198003820FB681B68FA681268D26842F48072AB
:1031A800DA60FB681B68FA681268526942F001022B
:1031B8005A61FB681B68FA681268D26842F02002FC
:1031C800DA60002300E0022318461437BD465DF894
:1031D800047B704780B588B000AF78607B681B6857
:1031E8001B68FB617B681B68DB68BB617B681B68CD
:1031F8005B697B6100233B610023FB60FB6903F093
:103208000F033B613B69002B0DD1FB6903F02003E1
:10321800002B08D0BB6903F02003002B03D078688B
:1032280000F0D5F9D1E03B69002B00F0B0807B6954
:1032380003F00103002B05D1BB6903F49073002B45
:1032480000F0A580FB6903F00103002B0AD0BB69DD
:1032580003F48073002B05D07B68DB6B43F001021D
:103268007B68DA63FB6903F00403002B0AD07B69EF
:1032780003F00103002B05D07B68DB6B43F00202EF
:103288007B68DA63FB6903F00203002B0AD07B69D1
:1032980003F00103002B05D07B68DB6B43F00402CD
:1032A8007B68DA63FB6903F00803002B0FD0BB6966
:1032B80003F02003002B04D17B6903F00103002BEA
:1032C80005D07B68DB6B43F008027B68DA637B68B8
:1032D800DB6B002B78D0FB6903F02003002B07D0B1
:1032E800BB6903F02003002B02D0786800F06FF967
:1032F8007B681B685B6903F04003402B0CBF01230C
:103308000023DBB2FB607B68DB6B03F00803002B58
:1033180002D1FB68002B31D0786800F0B9F87B68DF
:103328001B685B6903F04003402B23D17B681B6853
:103338007A681268526922F040025A617B685B6BB6
:10334800002B13D07B685B6B214A1A657B685B6B2B
:103358001846FDF7FAFE0346002B16D07B685B6B18
:103368001B6D7A68526B104698470EE0786800F03B
:103378003BF80AE0786800F037F806E0786800F073
:1033880033F87B680022DA631EE000BF1CE0FB69AB
:1033980003F08003002B08D0BB6903F08003002BE7
:1033A80003D0786800F0A6F80FE0FB6903F040034B
:1033B800002B0AD0BB6903F04003002B05D07868C6
:1033C80000F0EDF800BF00E000BF2037BD4680BD2B
:1033D800D534000880B483B000AF786000BF0C37E4
:1033E800BD465DF8047B704780B483B000AF786059
:1033F80000BF0C37BD465DF8047B704780B584B0CC
:1034080000AFF860B9603B601346FB712CE0BB6904
:10341800B3F1FF3F28D0BB69002B07D0FDF758FD5B
:1034280002463B68D21ABB699A421DD9FB681B68E1
:10343800FA681268D26822F4D072DA60FB681B68F6
:10344800FA681268526922F001025A61FB68202268
:1034580083F83920FB68202283F83A20FB68002291
:1034680083F8382003230FE0FB681B681A68BB68E1
:103478001A40BB689A420CBF01230023DBB21A46EC
:10348800FB799A42C3D0002318461037BD4680BD49
:1034980080B483B000AF78607B681B687A68126874
:1034A800D26822F49072DA607B681B687A681268C6
:1034B800526922F001025A617B68202283F83A207F
:1034C80000BF0C37BD465DF8047B704780B584B0FB
:1034D80000AF78607B689B6BFB60FB680022DA8535
:1034E800FB680022DA84F868FFF77EFF00BF103718
:1034F800BD4680BD80B485B000AF78607B6893F826
:103508003930DBB2212B43D17B689B68B3F5805FF0
:1035180019D17B681B6AFB607B681B68FA68128894
:10352800C2F308025A607B681B69002B05D17B68CF
:103538001B6A9A1C7B681A620EE07B681B6A5A1C1D
:103548007B681A6208E07B681A687B681B6A581CEB
:10355800796808621B7853607B68DB8C9BB2013BFF
:103568009BB27A681946D184002B0FD17B681B68FF
:103578007A681268D26822F08002DA607B681B6879
:103588007A681268D26842F04002DA60002300E0EC
:10359800022318461437BD465DF8047B704780B592
:1035A80082B000AF78607B681B687A681268D2685E
:1035B80022F04002DA607B68202283F8392078689C
:1035C800FFF708FF002318460837BD4680BD80B5C1
:1035D80084B000AF78607B6893F83A30DBB2222B76
:1035E80071D17B689B68B3F5805F23D17B689B6A48
:1035F800FB607B681B69002B0ED17B681B685B68CE
:103608009BB2C3F308039AB2FB681A807B689B6A73
:103618009A1C7B689A6229E07B681B685B689BB28E
:10362800DBB29AB2FB681A807B689B6A5A1C7B687B
:103638009A621BE07B681B69002B0AD17B689B6A36
:10364800591C7A6891627A6812685268D2B21A7004
:103658000CE07B689B6A591C7A6891627A681268E8
:103668005268D2B202F07F02D2B21A707B68DB8D48
:103678009BB2013B9BB27A681946D185002B20D1B9
:103688007B681B687A681268D26822F02002DA60C8
:103698007B681B687A681268D26822F48072DA60E4
:1036A8007B681B687A681268526922F001025A61C5
:1036B8007B68202283F83A20786801F0F3F9002328
:1036C80002E0002300E0022318461037BD4680BD03
:1036D8002DE9F04FA3B000AFF867FB6F1968FB6FD7
:1036E8001B681B6923F44052FB6FDB6813430B61B3
:1036F800FB6F9A68FB6F1B691A43FB6F5B691A4380
:10370800FB6FDB691343C7F88430FB6F1968FB6FE5
:103718001B68DB6823F4164222F00C02D7F88430C9
:103728001343CB60FB6F1968FB6F1B685B6923F45D
:103738004072FB6F9B6913434B61FB6FDB69B3F509
:10374800004F40F07181FB6F1B68B44A934205D06B
:10375800FB6F1B68B24A934240F0B180FEF71AFB38
:10376800C7F88000FB6F1D68D7F8803019464FF006
:1037780000020B461446DB1844EB04045B1844EBC8
:103788000204E0007864786C40EA53707864DB00E7
:103798003B64D7E9103413EB010844EB02094046B7
:1037A8004946FB6F5B684FF00004DB1844EB0404E8
:1037B8001A462346FDF79EF903460C461A46994BCE
:1037C800A3FB02235B091E01D7F8803019464FF08E
:1037D80000020B461446DB1844EB04045B1844EB68
:1037E8000204E000F863F86B40EA5370F863DB000A
:1037F800BB63D7E90E3413EB010844EB02094046DA
:103808004946FB6F5B684FF00004DB1844EB040487
:103818001A462346FDF76EF903460C461A46814BB5
:10382800A3FB02135B09642101FB03F3D31ADB003A
:1038380032337C4AA2FB03235B095B0003F4F87371
:103848001E44D7F8803019464FF000020B46144644
:10385800DB1844EB04045B1844EB0204E0007863D3
:10386800786B40EA53707863DB003B63D7E90C342C
:1038780013EB010844EB020940464946FB6F5B68BD
:103888004FF00004DB1844EB04041A462346FDF706
:1038980031F903460C461A46624BA3FB02135B0937
:1038A800642101FB03F3D31ADB0032335D4AA2FB28
:1038B80003235B0903F007033344AB6040E2FEF7E0
:1038C80055FAC7F88000FB6F1A683A67D7F8803056
:1038D80019464FF000020B461446DB1844EB04046B
:1038E8005B1844EB0204E000F862F86A40EA53709F
:1038F800F862DB00BB62D7E90A345D1844EB0206C4
:1039080028463146FB6F5B684FF00004DB1844EB38
:1039180004041A462346FDF7EDF803460C461A46FA
:10392800404BA3FB02235B091E01D7F880301946E0
:103938004FF000020B461446DB1844EB04045B18F6
:1039480044EB02044FEAC40B4BEA537B4FEAC30A29
:1039580053465C4613EB010A44EB020B50465946AA
:10396800FB6F5B684FF00004DB1844EB04041A4655
:103978002346FDF7BFF803460C461A46294BA3FB1E
:1039880002135B09642101FB03F3D31ADB00323312
:10399800244AA2FB03235B095B0003F4F8731E446B
:1039A800D7F8803019464FF000020B461446DB1852
:1039B80044EB04045B1844EB02044FEAC40949EAE7
:1039C80053794FEAC30843464C4613EB010844EBCE
:1039D800020940464946FB6F5B684FF00004DB185C
:1039E80044EB04041A462346FDF784F803460C46C4
:1039F8001A460C4BA3FB02135B09642101FB03F37A
:103A0800D31ADB003233074AA2FB03235B0903F016
:103A1800070333443A6F936092E100BF00100140FE
:103A2800001401401F85EB51FB6F1A68C14B9A4285
:103A380005D0FB6F1A68C04B9A4240F0BF80FEF772
:103A4800A9F9C7F88000FB6F1E68D7F880301946BF
:103A58004FF000020B461446DB1844EB04045B18D5
:103A680044EB0204E0007862786A40EA53707862B6
:103A7800DB003B62D7E9083413EB010844EB020989
:103A880040464946FB6F5B684FF00004A200FA65A8
:103A9800FA6D42EA9372FA659B00BB65D7E9162373
:103AA800FDF728F803460C461A46A44BA3FB02234D
:103AB8005B091D01D7F8803019464FF000020B460C
:103AC8001446DB1844EB04045B1844EB0204E000E2
:103AD800F861F86940EA5370F861DB00BB61D7E927
:103AE800063413EB010844EB020940464946FB6FD4
:103AF8005B684FF00004A2007A657A6D42EA93721F
:103B08007A659B003B65D7E91423FCF7F3FF03466E
:103B18000C461A46894BA3FB02135B09642101FB7F
:103B280003F3D31A1B013233844AA2FB03235B0934
:103B380003F0F0031D44D7F8803019464FF0000217
:103B48000B461446DB1844EB04045B1844EB0204F0
:103B5800E0007861786940EA53707861DB003B6186
:103B6800D7E9043413EB010844EB020940464946FF
:103B7800FB6F5B684FF00004A200FA64FA6C42EA3B
:103B88009372FA649B00BB64D7E91223FCF7B2FF77
:103B980003460C461A46694BA3FB02135B096421D2
:103BA80001FB03F3D31A1B013233644AA2FB03233C
:103BB8005B0903F00F032B44B360C1E0FEF7D6F8AE
:103BC800C7F88000FB6F1B68BB65D7F880301946C3
:103BD8004FF000020B461446DB1844EB04045B1854
:103BE80044EB0204E60046EA5376DD002B463446F1
:103BF8005D1844EB020628463146FB6F5B684FF0C0
:103C08000004A5007D677D6F45EA93757D679C007C
:103C18003C67D7E91C23FCF76DFF03460C461A46A0
:103C2800464BA3FB02135B091D01D7F880301946E8
:103C38004FF000020B461446DB1844EB04045B18F3
:103C480044EB0204E000F860F86840EA5370F8605A
:103C5800D800B860D7E9023413EB010844EB020935
:103C680040464946FB6F5B684FF00004A600FE66BD
:103C7800FE6E46EA9376FE669C00BC66D7E91A2378
:103C8800FCF738FF03460C461A462C4BA3FB0213DD
:103C98005B09642101FB03F3D31A1B013233274A62
:103CA800A2FB03135B0903F0F0031D44D7F880302F
:103CB80019464FF000020B461446DB1844EB040487
:103CC8005B1844EB0204E0007860786840EA5370BF
:103CD8007860D800386097E8180013EB010844EBC7
:103CE800020940464946FB6F5B684FF00004A60096
:103CF8007E667E6E46EA93767E669C003C66D7E9D1
:103D08001823FCF7F7FE03460C461A460B4BA3FB99
:103D180002135B09642101FB03F3D31A1B0132333D
:103D2800064AA2FB03135B0903F00F032B44BA6D89
:103D3800936005E000100140001401401F85EB511D
:103D480000BF8C37BD46BDE8F08F00BF80B58CB092
:103D580000AF07F11C0300221A605A609A60DA600B
:103D68001A610023BB61684A674B1B6B43F0100361
:103D78001363654B1B6B03F01003BB61BB69002326
:103D88007B61614A604B1B6B43F0040313635E4B1A
:103D98001B6B03F004037B617B6900233B615A4A78
:103DA800594B1B6B43F080031363574B1B6B03F09A
:103DB80080033B613B690023FB60534A524B1B6BFA
:103DC80043F001031363504B1B6B03F00103FB60CB
:103DD800FB680023BB604C4A4B4B1B6B43F0020350
:103DE8001363494B1B6B03F00203BB60BB680023E2
:103DF8007B60454A444B1B6B43F008031363424BFB
:103E08001B6B03F008037B607B68002238213F4866
:103E1800FDF758FB00224FF400513D48FDF752FBD7
:103E2800012201213A48FDF74DFB00224FF4704171
:103E38003848FDF747FB00224FF471613648FDF71B
:103E480041FB3823FB6101233B6200237B62002393
:103E5800BB6207F11C0319462C48FDF799F942F299
:103E68000103FB6101233B6200237B620023BB62E9
:103E780007F11C0319462648FDF78AF90423FB615C
:103E880000233B6200237B6207F11C03194621488B
:103E9800FDF77EF94FF47043FB6101233B62002379
:103EA8007B620023BB6207F11C0319461948FDF722
:103EB8006FF94FF47163FB6101233B6200237B625E
:103EC8000023BB6207F11C0319461348FDF760F98C
:103ED8002023FB6100233B6200237B6207F11C0364
:103EE80019460D48FDF754F90223FB610B4B3B6261
:103EF80000237B6207F11C0319460448FDF748F9C3
:103F080000BF3037BD4680BD003802400010024077
:103F18000008024000040240000C02400000121099
:103F280080B487B000AFF860B9601346FB71002316
:103F3800FB750EE0FB7DFA6813441A78FB7DB968BF
:103F48000B441B789A4201D0002307E0FB7D013324
:103F5800FB75FA7DFB799A42ECD3012318461C378E
:103F6800BD465DF8047B704780B48BB000AF7860C5
:103F780000237B6200233B620023FB770023BB778F
:103F880000237B8200233B820023FB810023BB614B
:103F980015E0BB695B007A6813441B881A467B6A84
:103FA80013447B62BB695B007A6813441B88002B4F
:103FB80002D0BB7F0133BB77BB690133BB61BB69EF
:103FC800592BE6DDBB7F7A6AB2FBF3F37B824FF4B1
:103FD80087737B6115E07B695B007A6813441B88F3
:103FE8001A463B6A13443B627B695B007A68134458
:103FF8001B88002B02D0FB7F0133FB777B690133E1
:104008007B617B69B3F5B47FE5DBFB7F3A6AB2FB82
:10401800F3F33B827A8A3B8AD31A9BB2FB81B7F9C6
:104028000E3018462C37BD465DF8047B70470000FB
:1040380090B583B000AF78607B681B68924A934262
:1040480040F016814FF080435B6A904A13604FF04E
:10405800804300225A628E4B5B6A8C4A53608C4BB9
:1040680000225A628B4B5B6A884A9360894B002214
:104078005A62894B5B6A854AD360874B00225A6231
:10408800824B1B681846FCF7DDF97BA3D3E90023B4
:10409800FCF74EFA03460C4644EC173BB0EE470AD1
:1040A800F0EE670A01F08CFA51EC100B74A3D3E917
:1040B8000023FCF73DFA03460C4618462146FCF758
:1040C800F9FC0246754B1A60704B5B681846FCF7A2
:1040D800B9F969A3D3E90023FCF72AFA03460C4689
:1040E80044EC173BB0EE470AF0EE670A01F068FAB5
:1040F80051EC100B62A3D3E90023FCF719FA03462D
:104108000C4618462146FCF7D5FC0246634B5A601C
:104118005E4B9B681846FCF795F957A3D3E9002333
:10412800FCF706FA03460C4644EC173BB0EE470A88
:10413800F0EE670A01F044FA51EC100B50A3D3E9F2
:104148000023FCF7F5F903460C4618462146FCF710
:10415800B1FC0246514B9A604C4BDB681846FCF7A1
:1041680071F945A3D3E90023FCF7E2F903460C46AD
:1041780044EC173BB0EE470AF0EE670A01F020FA6C
:1041880051EC100B3EA3D3E90023FCF7D1F9034609
:104198000C4618462146FCF78DFC02463F4BDA6078
:1041A8003F4B1A683D4B1B68D31A1A463D4B1A60A1
:1041B8003B4B1A68394B5B68D31A1A46394B5A601D
:1041C800374B1A68354B9B68D31A1A46354B9A6099
:1041D800334B1A68314BDB68D31A1A46314BDA6015
:1041E800314B1A682F4B1B681946304B1B6803FB71
:1041F80001F313441A462E4B1A602B4B5A68294B6D
:104208005B681946294B1B6803FB01F313441A46E4
:10421800274B5A60244B9A68224B9B681946234BBC
:104228001B6803FB01F313441A46214B9A601E4B8B
:10423800DA681C4BDB6819461C4B1B6803FB01F34F
:1042480013441A461A4BDA60194B1B681A46164B68
:104258001A60174B5B681A46134B5A60144B9B68DD
:104268001A46114B9A60124BDB681A460E4BDA60FD
:1042780000BF0C37BD4690BDC7BAB88D06F0863F63
:10428800F6285C8FC285644000100040CC000020F6
:104298000004004000080040000C0040DC00002042
:1042A80008000020EC000020100000200C00002076
:1042B800FC00002080B500AFFCF7A4FD00F074FB03
:1042C800FFF744FD00F08EFC00F050FD00F0A2FD69
:1042D80000F0F4FD00F09AFE01F044F801F06CF8EB
:1042E80000F040FE00F0CAFB40F6B830FCF7FCFDD9
:1042F8000021B848FDF7E6FD0421B648FDF7E2FDC8
:104308000821B448FDF7DEFD0C21B248FDF7DAFDBF
:1043180001224FF48051B048FDF7D4F800224FF441
:104328000051AD48FDF7CEF801224FF48041AA486C
:10433800FDF7C8F800224FF40041A748FDF7C2F87E
:1043480001224FF48071A548FDF7BCF800224FF414
:104358000071A248FDF7B6F801224FF480619F482A
:10436800FDF7B0F800224FF400619C48FDF7AAF869
:104378004FF0804300225A62994B00225A62994BAF
:1043880000225A62984B00225A623C219748FDF756
:1043980069FE3C219648FDF765FE3C219548FDF7EE
:1043A80061FE3C219448FDF75DFE9448FDF731FD20
:1043B800012293499348FEF7B8FE914B03221A70E5
:1043C800914B1B78002B00F086800A2305228F4929
:1043D8008F48FEF704FE0346002B40F090808B4B7D
:1043E8001B789B08DAB28B4B1A70884B1B7803F04A
:1043F8000103002B14BF01230023DAB2864B1A7085
:10440800824B9B78DB01814A52785208D2B213431F
:10441800002B00DA3F339B119AB2804B1A807B4BFA
:104428001B791B02794AD2781343002B00DA033335
:104438009B109AB27A4B1A80794B1B8841F28732CB
:10444800934208D9754B1B881A46764B41F288313E
:1044580023F8121007E0714B1B881A46704B198815
:10446800704B23F812106C4B1B78002B47D06D480B
:10447800FFF77AFD03461A466B4B1A806A4BB3F96D
:1044880000309B00694A13441A46694B1A60664B10
:10449800B3F900309B005B42644A13441A46644BEC
:1044A8005A60614BB3F900309B00604A13441A46C6
:1044B8005F4B9A605C4BB3F900309B005B425B4AF0
:1044C80013441A465A4BDA604FF4B4720021554827
:1044D80001F06EF813E00A23072256494C48FEF70C
:1044E8007EFD0346002B0AD1072253495148FFF7A6
:1044F80017FD0346002B02D0434B01221A704A4B8A
:10450800B3F90030002B0ADD002210214B48FCF7DC
:10451800D9FF012220214948FCF7D4FF19E0424B7A
:10452800B3F90030002B0ADA012210214348FCF7C6
:10453800C9FF002220214148FCF7C4FF09E00022FE
:1045480010213E48FCF7BEFF002220213B48FCF723
:10455800B9FF2B4B1B78012B74D1394B00225A63BE
:10456800374B00229A63364B0022DA63344B002221
:104578001A6401224FF480511748FCF7A3FF002268
:104588004FF400511448FCF79DFF01224FF480417D
:104598001148FCF797FF00224FF400410E48FCF742
:1045A80091FF01224FF480710C48FCF78BFF002229
:1045B8004FF400710948FCF785FF01224FF4806130
:1045C8000648FCF77FFF00224FF400610348FCF720
:1045D80079FFC0E1FC04002000040240000C024006
:1045E8000004004000080040000C00403C0500208A
:1045F8007C040020FC0300203C040020BC040020B4
:10460800B8000020BC0500200C0100201801002083
:104618007C0500201D0100201E010020F803002059
:10462800FA03002020010020F0030020FC000020F5
:10463800BC000020100100202800002000100240CB
:10464800000001407C4B1B78022B10D17B4B4FF4B0
:10465800FA525A63794B4FF4FA529A63774B4FF4F4
:10466800FA52DA63754B4FF4FA521A6473E1724BDB
:104678001B78032B44D100224FF480517048FCF77B
:1046880021FF01224FF400516D48FCF71BFF002267
:104698004FF480416A48FCF715FF01224FF40041AE
:1046A8006748FCF70FFF00224FF480716548FCF75C
:1046B80009FF01224FF400716248FCF703FF002252
:1046C8004FF480615F48FCF7FDFE01224FF4006162
:1046D8005C48FCF7F7FE594B4FF4FA525A63574BB4
:1046E8004FF4FA529A63554B4FF4FA52DA63534B2C
:1046F8004FF4FA521A644FF47A70FCF7F5FB2AE18A
:104708004D4B1B78032B40F0A98001224FF4005138
:104718004D48FCF7D7FE002210214C48FCF7D2FE8A
:10472800002220214948FCF7CDFE01224FF4805198
:104738004348FCF7C7FE00224FF400514048FCF7FD
:10474800C1FE00224FF480413D48FCF7BBFE012228
:104758004FF400413A48FCF7B5FE01224FF480714E
:104768003848FCF7AFFE00224FF400713548FCF7DB
:10477800A9FE00224FF480613248FCF7A3FE012213
:104788004FF400612F48FCF79DFE2C4B304A1288ED
:104798005A632A4B2E4A12889A63284B2C4A12884D
:1047A800DA63264B2A4A12881A644FF47A70FCF7A7
:1047B8009BFB224B00225A63204B00229A631F4B1B
:1047C8000022DA631D4B00221A6401224FF4805143
:1047D8001B48FCF777FE00224FF400511848FCF7FD
:1047E80071FE01224FF480411548FCF76BFE002250
:1047F8004FF400411248FCF765FE01224FF4807126
:104808001048FCF75FFE00224FF400710D48FCF7DA
:1048180059FE01224FF480610A48FCF753FE00223A
:104828004FF400610748FCF74DFE64230222094952
:104838000948FEF73CFB8EE0B8000020000001406C
:1048480000040240000C0240000802400010024030
:1048580006000020200000207C050020484B1B7823
:10486800052B78D101224FF400514648FCF72AFE67
:10487800002210214448FCF725FE0022202142484E
:10488800FCF720FE6423022240494148FEF70FFB53
:10489800404B00221A80404B00225A633E4B0022B4
:1048A8009A633D4B0022DA633B4B00221A644FF4B3
:1048B8007A70FCF719FB01224FF480513748FCF756
:1048C80001FE00224FF400513448FCF7FBFD0022A2
:1048D8004FF480413148FCF7F5FD01224FF40041C7
:1048E8002E48FCF7EFFD01224FF480712C48FCF7AD
:1048F800E9FD00224FF400712948FCF7E3FD00228E
:104908004FF480612648FCF7DDFD01224FF4006179
:104918002348FCF7D7FD204B224A12885A631E4BC6
:10492800204A12889A631C4B1E4A1288DA631A4B73
:104938001C4A12881A644FF47A70FCF7D5FA164BA1
:1049480000225A63144B00229A63134B0022DA6345
:10495800114B00221A6400224FF400510948FCF759
:10496800B1FD002210210848FCF7ACFD00222021EF
:104978000548FCF7A7FD024B00221A701DE500BF91
:10498800B800002000080240001002402400002067
:104998007C050020F00300200000014000040240D4
:1049A800000C02400600002080B594B000AF07F16B
:1049B800200330220021184600F0FAFD07F10C030D
:1049C80000221A605A609A60DA601A610023BB609C
:1049D800284A284B1B6C43F080531364254B1B6CEF
:1049E80003F08053BB60BB6800237B60224A224BE4
:1049F8001B6843F4804313601F4B1B6803F4804318
:104A08007B607B6801233B624FF480337B62022327
:104A1800BB634FF48003FB6304233B64A8237B64DC
:104A28000223BB640723FB6407F120031846FCF745
:104A380063FD0346002B01D000F04CF80F23FB6008
:104A480002233B6100237B614FF4A053BB614FF409
:104A58008053FB6107F10C0305211846FCF7BCFFE6
:104A68000346002B01D000F035F800BF5037BD4693
:104A780080BD00BF003802400070004080B500AF24
:104A8800002200212620FCF72AFB2620FCF743FB06
:104A9800002200213620FCF722FB3620FCF73BFBE6
:104AA80000BF80BD80B582B000AF78607B681B68AE
:104AB800054A934204D1012204490548FEF735FB13
:104AC80000BF0837BD4680BD00440040B800002044
:104AD800BC05002080B400AF00BFBD465DF8047B74
:104AE8007047000080B582B000AF00237B60104A99
:104AF8000F4B5B6C43F4804353640D4B5B6C03F4C6
:104B080080437B607B6800233B60094A084B1B6C31
:104B180043F080531364064B1B6C03F080533B60D7
:104B28003B680720FCF7D0FA00BF0837BD4680BDB8
:104B38000038024080B400AF00BFBD465DF8047B7A
:104B4800704780B400AFFEE780B400AFFEE780B4E2
:104B580000AFFEE780B400AFFEE780B400AF00BF4F
:104B6800BD465DF8047B704780B400AF00BFBD460A
:104B78005DF8047B704780B400AF00BFBD465DF8A8
:104B8800047B704780B500AFFCF78EF900BF80BD8D
:104B980080B500AF0248FEF71DFB00BF80BD00BF17
:104BA800BC05002080B500AF0248FDF792FA00BFAF
:104BB80080BD00BFBC04002080B400AF084A084B89
:104BC800D3F8883043F47003C2F88830044B4FF0B0
:104BD80000629A6000BFBD465DF8047B704700BF65
:104BE80000ED00E080B596B000AF07F14803002261
:104BF8001A605A609A60DA6007F1400300221A606E
:104C08005A6007F1240300221A605A609A60DA6039
:104C18001A615A619A613B1D20220021184600F052
:104C2800C7FC504B504A1A604E4BA7225A604D4B56
:104C380000229A604B4B42F20F72DA60494B002215
:104C48001A61484B00225A61464B00229A61454836
:104C5800FDF7B4F80346002B01D0FFF73BFF4FF4F4
:104C68008053BB6407F1480319463E48FDF700FC32
:104C78000346002B01D0FFF72DFF3A48FDF7EDF86A
:104C88000346002B01D0FFF725FF00233B640023D8
:104C98007B6407F1400319463248FDF7D9FF034604
:104CA800002B01D0FFF716FF60237B620023BB6255
:104CB8000023FB6200233B6300237B630023BB6369
:104CC8000023FB6307F12403002219462548FDF75A
:104CD80009FB0346002B01D0FFF7FCFE07F1240374
:104CE800042219461F48FDF7FDFA0346002B01D0A0
:104CF800FFF7F0FE07F12403082219461948FDF7CB
:104D0800F1FA0346002B01D0FFF7E4FE07F1240374
:104D18000C2219461348FDF7E5FA0346002B01D08B
:104D2800FFF7D8FE00237B600023BB600023FB60F5
:104D380000233B6100237B614FF40053BB610023D8
:104D48003B623B1D19460748FDF7FEFF0346002B53
:104D580001D0FFF7BFFE034800F0CAFA00BF58377A
:104D6800BD4680BDFC0400200000014080B58CB029
:104D780000AF07F10C0324220021184600F018FCAC
:104D88003B1D00221A605A60214B4FF080421A6086
:104D98001F4B00225A601E4B00229A601C4B4FF694
:104DA800FF72DA601A4B00221A61194B00229A61CD
:104DB8000323FB6000233B6101237B610023BB616C
:104DC8000023FB6100233B6201237B620023BB625B
:104DD8000023FB6207F10C0319460D48FDF7B0F8F4
:104DE8000346002B01D0FFF775FE00237B600023EC
:104DF800BB603B1D19460648FDF72AFF0346002BFA
:104E080001D0FFF767FE00BF3037BD4680BD00BF49
:104E18003C05002080B58CB000AF07F10C032422BC
:104E28000021184600F0C4FB3B1D00221A605A609E
:104E3800204B214A1A601F4B00225A601D4B00224A
:104E48009A601C4B4FF6FF72DA601A4B00221A6107
:104E5800184B00229A610323FB6000233B61012366
:104E68007B610023BB610023FB6100233B620123BC
:104E78007B620023BB620023FB6207F10C03194627
:104E88000C48FDF75DF80346002B01D0FFF722FE22
:104E980000237B600023BB603B1D19460548FDF7D6
:104EA800D7FE0346002B01D0FFF714FE00BF3037B2
:104EB800BD4680BD7C0400200004004080B58CB055
:104EC80000AF07F10C0324220021184600F070FB04
:104ED8003B1D00221A605A60204B214A1A601F4B62
:104EE80000225A601D4B00229A601C4B4FF6FF723D
:104EF800DA601A4B00221A61184B00229A610323C8
:104F0800FB6000233B6101237B610023BB6100231D
:104F1800FB6100233B6201237B620023BB62002309
:104F2800FB6207F10C0319460C48FDF709F8034624
:104F3800002B01D0FFF7CEFD00237B600023BB6070
:104F48003B1D19460548FDF783FE0346002B01D09B
:104F5800FFF7C0FD00BF3037BD4680BDFC03002011
:104F68000008004080B58CB000AF07F10C03242284
:104F78000021184600F01CFB3B1D00221A605A60F5
:104F8800204B214A1A601F4B00225A601D4B0022F9
:104F98009A601C4B4FF6FF72DA601A4B00221A61B6
:104FA800184B00229A610323FB6000233B61012315
:104FB8007B610023BB610023FB6100233B6201236B
:104FC8007B620023BB620023FB6207F10C031946D6
:104FD8000C48FCF7B5FF0346002B01D0FFF77AFD1C
:104FE80000237B600023BB603B1D19460548FDF785
:104FF8002FFE0346002B01D0FFF76CFD00BF3037B2
:10500800BD4680BD3C040020000C004080B582B045
:1050180000AF3B4600221A605A60154B154A1A60C9
:10502800134B41F267025A60114B00229A60104BF1
:1050380040F2E732DA600E4B00229A610C48FCF726
:10504800BDFE0346002B01D0FFF744FD00233B6063
:1050580000237B603B4619460548FDF7F9FD0346EA
:10506800002B01D0FFF736FD00BF0837BD4680BDD5
:10507800BC0400200010004080B485B000AF786008
:105088007B681B68154A93420ED10023FB60144AC3
:10509800134B5B6C43F001035364114B5B6C03F0DF
:1050A8000103FB60FB6812E07B681B680D4A9342B2
:1050B8000DD10023BB600A4A094B1B6C43F0100357
:1050C8001364074B1B6C03F01003BB60BB6800BF85
:1050D8001437BD465DF8047B704700BF00000140EF
:1050E800003802400010004080B590B000AF7860F2
:1050F80007F12C0300221A605A609A60DA601A617C
:105108007B681B68B3F1804F4AD10023BB62714AA8
:10511800704B1B6C43F0010313646E4B1B6C03F064
:105128000103BB62BB6A00237B626A4A694B1B6B43
:1051380043F001031363674B1B6B03F001037B62AE
:105148007B6A00233B62634A624B1B6B43F002039A
:105158001363604B1B6B03F002033B623B6A202323
:10516800FB6202233B6300237B630023BB630123B1
:10517800FB6307F12C0319465748FCF709F8082385
:10518800FB6202233B6300237B630023BB63012391
:10519800FB6307F12C0319465048FBF7F9FF95E02C
:1051A8007B681B684E4A93422CD10023FB61494A15
:1051B800484B1B6C43F002031364464B1B6C03F013
:1051C8000203FB61FB690023BB61424A414B1B6B35
:1051D80043F0010313633F4B1B6B03F00103BB61F7
:1051E800BB69C023FB6202233B6300237B6300236C
:1051F800BB630223FB6307F12C0319463648FBF710
:10520800C7FF63E07B681B68364A93422DD10023B1
:105218007B61304A2F4B1B6C43F0040313642D4B06
:105228001B6C03F004037B617B6900233B61294A03
:10523800284B1B6B43F008031363264B1B6B03F0CF
:1052480008033B613B694FF44053FB6202233B6315
:1052580000237B630023BB630223FB6307F12C035A
:1052680019462148FBF794FF30E07B681B681F4A0A
:1052780093422BD10023FB60164A164B1B6C43F05C
:1052880008031364134B1B6C03F00803FB60FB68F3
:105298000023BB600F4A0F4B1B6B43F001031363E2
:1052A8000C4B1B6B03F00103BB60BB680323FB6261
:1052B80002233B6300237B630023BB630223FB635E
:1052C80007F12C0319460448FBF762FF00BF40377B
:1052D800BD4680BD00380240000002400004024084
:1052E8000004004000080040000C0240000C004090
:1052F80080B588B000AF786007F10C0300221A600F
:105308005A609A60DA601A617B681B68124A934295
:105318001ED10023BB60114A104B1B6B43F01003D6
:1053280013630E4B1B6B03F01003BB60BB684FF499
:10533800D443FB6002233B6100237B610023BB61F4
:105348000123FB6107F10C0319460548FBF720FF11
:1053580000BF2037BD4680BD000001400038024034
:105368000010024080B500AF114B124A1A60104B72
:105378004FF416525A600E4B00229A600C4B0022D2
:10538800DA600B4B00221A61094B0C225A61084B58
:1053980000229A61064B0022DA610548FDF73AFDC2
:1053A8000346002B01D0FFF795FB00BF80BD00BF6F
:1053B800BC0500200044004080B500AF114B124AE4
:1053C8001A60104B4FF4E1325A600E4B00229A607B
:1053D8000C4B0022DA600B4B00221A61094B0C229D
:1053E8005A61084B00229A61064B0022DA6105488F
:1053F800FDF710FD0346002B01D0FFF76BFB00BF44
:1054080080BD00BF7C0500200048004080B58CB0FE
:1054180000AF786007F11C0300221A605A609A6096
:10542800DA601A617B681B68324A93422CD10023E8
:10543800BB61314A304B1B6C43F4003313642E4B71
:105448001B6C03F40033BB61BB6900237B612A4AF0
:10545800294B1B6B43F001031363274B1B6B03F0B2
:1054680001037B617B690C23FB6102233B62002300
:105478007B620323BB620723FB6207F11C03194607
:105488001E48FBF785FE31E07B681B681C4A934287
:105498002CD100233B61184A174B1B6C43F4802323
:1054A8001364154B1B6C03F480233B613B69002399
:1054B800FB60114A104B1B6B43F0020313630E4B46
:1054C8001B6B03F00203FB60FB684FF44063FB6156
:1054D80002233B6200237B620323BB620723FB6238
:1054E80007F11C0319460748FBF752FE00BF303787
:1054F800BD4680BD00440040003802400000024024
:105508000048004000040240DFF834D0002103E0E6
:105518000C4B5B58435004310B480C4B42189A42D1
:10552800F6D30B4A02E0002342F8043B094B9A42A7
:10553800F9D3FFF741FB00F017F8FEF7BBFE704701
:1055480000000220305A0008000000209C000020C3
:105558009C000020FC050020FEE70000014B1868B5
:10556800704700BF3400002070B50D4E0D4CA41BD1
:10557800A4100025A54209D10B4E0C4C00F018FAD6
:10558800A41BA4100025A54205D170BD56F82530EE
:1055980098470135EEE756F8253098470135F2E788
:1055A800285A0008285A0008285A00082C5A0008C7
:1055B80002440346934200D1704703F8011BF9E700
:1055C800F0B52DED028B384E8BB055EC104B00F03A
:1055D80073F896F90030B0EE408AF0EE608A013335
:1055E8002CD045EC104B00F0D9F938B32AA3D3E9F5
:1055F800002320462946FBF72BFA0746002830D01F
:1056080003230093294B01930023089396F9003054
:10561800CDE90445CDE90245C3B9254B4FF06042B9
:10562800CDE90623684600F0C1F9A8B1089B1BB173
:10563800FFF794FF089B03609DED068BB0EE480AC8
:10564800F0EE680A0BB0BDEC028BF0BD19490020E2
:10565800CDE90601022BE5D1FFF780FF2223036085
:10566800E4E70FA3D3E9002320462946FBF7D2F944
:105678000028E3D0042300930C4B0193002200235D
:10568800CDE906230897CDE90445CDE9024596F909
:105698000030DFE7AFF30080EF39FAFE422E864094
:1056A80051302DD5104987C098000020E8590008CE
:1056B800FFFFEF470000F07F2DE9F74F55EC104B47
:1056C800AD4A25F0004797424FEAD57640F2AF80C1
:1056D800AA4A974215D9C5F31303234309D010EEFC
:1056E800102A2B4620462946FAF770FD04460D4637
:1056F80002E00EB10024002545EC104B03B0BDE8D4
:10570800F08F87A3D3E9002310EE100A2946FBF790
:105718009FF938B184A3D3E9002310461946FAF754
:1057280007FFE3E782A3D3E9002320462946FBF7D6
:1057380071F90028DED1924B9F424FEAC60700F26A
:105748008E80904B3B44D3E9002320462946FAF744
:105758003BFD8D4B1F4497ED007B8DED007B824612
:10576800C6F101008B46861BDDE9002350465946E9
:10577800FAF72AFD04460D4622462B4620462946BE
:10578800FAF7D6FE6CA3D3E9002380468946FAF7D8
:10579800CFFE6BA3D3E90023FAF716FD42464B462A
:1057A800FAF7C6FE68A3D3E90023FAF70FFD4246CD
:1057B8004B46FAF7BDFE66A3D3E90023FAF704FDCA
:1057C80042464B46FAF7B4FE63A3D3E90023FAF73F
:1057D800FDFC42464B46FAF7ABFE02460B46204616
:1057E8002946FAF7F1FC8046894602460B462046D0
:1057F8002946002E62D1FAF79BFE002206460F4684
:105808004FF0804340464946FAF7DEFC02460B4615
:1058180030463946FAF7B6FF22462B46FAF7D4FC4B
:1058280002460B4600205949FAF7CEFC5EE7584B72
:105838009F4280D8574B9F423CD83BA3D3E90023D3
:1058480010EE100A2946FAF7C1FC00224F4BFBF76D
:10585800FFF888B300224D4B2046294644E74E4EB8
:105868003FA3D3E900233E4420462946FAF760FEC9
:10587800D6E90023FAF7AAFCFBF7F4F80646FAF78C
:10588800F1FD39A3D3E9002380468946FAF750FE93
:1058980002460B4620462946FAF796FC34A3D3E97C
:1058A800002382468B4640464946FAF741FECDE939
:1058B800000159E700265FE706465DE7FAF738FE7C
:1058C800424604460D464B4600204FF08041FAF709
:1058D8007BFC02460B4620462946FAF753FF024650
:1058E8000B46DDE90001FAF76FFC52465B46FAF712
:1058F8006BFC0B46024625490020FAF765FC6FF45D
:105908007F739E4202DB01EB0651EFE606F57A76DD
:1059180001EB065100224FF0B87300E7AFF30080A7
:10592800EF39FAFE422E86409C7500883CE4377EAB
:1059380051302DD5104987C0D0A4BE726937663E54
:10594800F16BD2C541BDBB3E2CDE25AF6A56113F77
:1059580093BDBE166CC1663F3E5555555555C53F5E
:10596800FE822B654715F73F0000E0FE422EE63F1A
:10597800763C7935EF39EA3D412E8640FFFFEF7FCF
:10598800B1A2F03F005A0008105A00080000F03F8A
:10599800422ED63FFFFF2F3EF059000810EE903AF6
:1059A80043F0004000F58010C00F7047002070479A
:1059B800F8B500BFF8BC08BC9E467047F8B500BFF4
:0859C800F8BC08BC9E467047C4
:1059D000000000000000000001020304060708099F
:1059E0000000000001020304657870000000000060
:1059F000000000000000E03F000000000000E0BFE9
:105A00000000E0FE422EE63F0000E0FE422EE6BF30
:105A1000763C7935EF39EA3D763C7935EF39EABDA8
:085A20000CB1FF7F0100000042
:045A2800AD010008C4
:045A2C0089010008E4
:105A3000100000000100A00FB80B000001000000E2
:105A4000B80B0000B80B0000B80B0000B80B00004A
:105A5000A5200000A5250000A55A050000408100F2
:105A60000024F400380000200000000000000000C6
:105A70000000000000000000000000000000000026
:105A80000000000000000000000000000000000016
:105A90000000000000000000000000000000000006
:105AA00000000000000000000000000000000000F6
:105AB00000000000000000000000000000000000E6
:0C5AC000000000000000000001000000D9
:040000050800551189
