:020000040800F2
:1000000000000220C1970008758900088389000854
:10001000898900088F890008958900080000000080
:100020000000000000000000000000009B890008A4
:10003000A989000800000000B7890008C5890008E8
:1000400011980008119800081198000811980008EC
:10005000119800081198000811980008D18900082B
:1000600011980008119800081198000811980008CC
:1000700011980008119800081198000811980008BC
:1000800011980008119800081198000811980008AC
:10009000119800081198000811980008119800089C
:1000A000119800081198000811980008119800088C
:1000B000119800081198000811980008119800087C
:1000C000119800081198000811980008119800086C
:1000D000119800081198000811980008E18900089B
:1000E000119800081198000811980008119800084C
:1000F000119800081198000811980008119800083C
:10010000119800081198000811980008119800082B
:10011000119800081198000811980008119800081B
:10012000119800081198000811980008119800080B
:1001300011980008119800081198000811980008FB
:10014000119800081198000811980008F589000816
:1001500011980008119800081198000811980008DB
:1001600011980008119800081198000811980008CB
:10017000119800081198000811980008000000006C
:08018000119800081198000815
:1001880010B5054C237833B9044B13B10448AFF3C9
:1001980000800123237010BD94000020000000009F
:1001A800149A000808B5034B1BB103490348AFF381
:1001B800008008BD0000000098000020149A000884
:1001C80053B94AB9002908BF00281CBF4FF0FF31B6
:1001D8004FF0FF3000F07AB9ADF1080C6DE904CEAC
:1001E80000F006F8DDF804E0DDE9022304B070470A
:1001F8002DE9F0478C460D460446089E002B51D148
:100208008A4217466DD9B2FA82FEBEF1000F0BD0B2
:10021800CEF1200C01FA0EF520FA0CFC02FA0EF7CA
:100228004CEA050C00FA0EF44FEA174A250CBCFB01
:10023800FAF81FFA87F90AFB18CC45EA0C4508FBBF
:1002480009F3AB420AD9ED1908F1FF3280F0238196
:10025800AB4240F22081A8F102083D44ED1AA4B255
:10026800B5FBFAF00AFB105544EA054400FB09F90E
:10027800A14509D9E41900F1FF3380F00A81A145AD
:1002880040F2078102383C44A4EB090440EA0840E4
:100298000021002E61D024FA0EF40023346073602C
:1002A800BDE8F0878B4207D9002E54D0002186E89C
:1002B80021000846BDE8F087B3FA83F1002940F031
:1002C8008E80AB4202D3824200F2FA80841A65EB38
:1002D80003050120AC46002E3FD086E81010BDE88B
:1002E800F08712B90127B7FBF2F7B7FA87FEBEF11C
:1002F800000F34D1EB1B3A0C1FFA87FC0121B3FB2A
:10030800F2F8250C02FB183345EA03450CFB08F309
:10031800AB4207D9ED1908F1FF3002D2AB4200F227
:10032800D1808046ED1AA3B2B5FBF2F002FB10555E
:1003380043EA05440CFB00FCA44507D9E41900F185
:10034800FF3302D2A44500F2B8801846A4EB0C048F
:1003580040EA08409DE731463046BDE8F087CEF1D7
:10036800200405FA0EF307FA0EF720FA04F83A0CFF
:1003780025FA04F448EA0308B4FBF2F14FEA1845F9
:1003880002FB11441FFA87FC45EA044501FB0CF304
:10039800AB4200FA0EF409D9ED1901F1FF3080F0F3
:1003A8008A80AB4240F2878002393D44EB1A1FFA3B
:1003B80088F5B3FBF2F002FB103345EA034500FB76
:1003C8000CF3AB4207D9ED1900F1FF386FD2AB42FD
:1003D8006DD902383D44EB1A40EA01418FE7C1F17B
:1003E800200722FA07F88B4005FA01F448EA0303CC
:1003F80020FA07FE4FEA134CFD404EEA040EB5FB07
:10040800FCF94FEA1E440CFB19551FFA83F844EA1D
:10041800054509FB08F4AC4202FA01F200FA01FAB8
:1004280008D9ED1809F1FF3043D2AC4241D9A9F1FE
:1004380002091D442D1B1FFA8EFEB5FBFCF00CFBB8
:1004480010554EEA054400FB08F8A04507D9E41802
:1004580000F1FF3529D2A04527D902381C4440EACB
:100468000940A4EB0804A0FB02894C45C6464D464A
:1004780015D312D056B1BAEB0E0364EB050404FA97
:1004880007F7CB401F43CC40376074600021BDE8BC
:10049800F0871846F8E69046E0E6C245EAD2B8EB9F
:1004A800020E69EB03050138E4E72846D7E7404622
:1004B80091E78146BEE7014678E702383C4445E7C4
:1004C800084608E7A8F102083D442BE7704700BF3B
:1004D80080B500AF0E4A0E4B1B6843F400731360DF
:1004E8000B4A0B4B1B6843F480631360084A084BA4
:1004F8001B6843F480731360032000F04BF900205D
:1005080000F008F808F00AFA0023184680BD00BF7A
:10051800003C024080B582B000AF7860124B1A6888
:10052800124B1B7819464FF47A73B3FBF1F3B2FB05
:10053800F3F3184600F063F90346002B01D00123BA
:100548000EE07B680F2B0AD8002279684FF0FF3045
:1005580000F02BF9064A7B681360002300E00123B2
:1005680018460837BD4680BD2C0000200400002036
:100578000000002080B400AF064B1B781A46064BDB
:100588001B681344044A136000BFBD465DF8047B32
:10059800704700BF04000020B800002080B400AFFE
:1005A800034B1B681846BD465DF8047B704700BFC7
:1005B800B800002080B584B000AF7860FFF7EEFF88
:1005C800B8607B68FB60FB68B3F1FF3F05D0094B5F
:1005D8001B781A46FB681344FB6000BFFFF7DEFF79
:1005E8000246BB68D21AFB689A42F7D300BF10379D
:1005F800BD4680BD0400002080B485B000AF78609F
:100608007B6803F00703FB600C4BDB68BB60BA68D0
:100618004FF6FF031340BB60FB681A02BB68134325
:1006280043F0BF6343F40033BB60044ABB68D36044
:1006380000BF1437BD465DF8047B704700ED00E04D
:1006480080B400AF044BDB681B0A03F007031846AD
:10065800BD465DF8047B704700ED00E080B483B0D0
:1006680000AF0346FB7197F90730002B0BDB0949F4
:1006780097F907305B09FA7902F01F02012000FAA6
:1006880002F241F8232000BF0C37BD465DF8047B19
:10069800704700BF00E100E080B483B000AF0346BC
:1006A8003960FB7197F90730002B0ADB0D4997F980
:1006B80007303A68D2B21201D2B20B4483F8002351
:1006C8000AE00949FB7903F00F03043B3A68D2B208
:1006D8001201D2B20B441A7600BF0C37BD465DF842
:1006E800047B704700E100E000ED00E080B489B0D1
:1006F80000AFF860B9607A60FB6803F00703FB613C
:10070800FB69C3F10703042B28BF0423BB61FB6902
:100718000433062B02D9FB69033B00E000237B610D
:100728000122BB6902FA03F35A1EBB681A407B69AF
:100738009A4001217B6901FA03F3591E7B680B403B
:10074800134318462437BD465DF8047B7047000004
:1007580080B582B000AF78607B68013BB3F1807FE1
:1007680001D301230FE00A4A7B68013B53600F2144
:100778004FF0FF30FFF790FF054B00229A60044BC3
:1007880007221A60002318460837BD4680BD00BFFF
:1007980010E000E080B582B000AF78607868FFF7BD
:1007A8002BFF00BF0837BD4680BD80B586B000AFBF
:1007B8000346B9607A60FB7300237B61FFF740FF53
:1007C80078617A68B9687869FFF790FF024697F907
:1007D8000F3011461846FFF75FFF00BF1837BD46B8
:1007E80080BD80B582B000AF0346FB7197F9073032
:1007F8001846FFF733FF00BF0837BD4680BD80B5F8
:1008080082B000AF78607868FFF7A2FF0346184609
:100818000837BD4680BD80B483B000AF78607B6880
:1008280093F83530DBB2022B04D07B6880225A65FE
:1008380001230CE07B68052283F835207B681B6860
:100848007A681268126822F001021A6000231846BA
:100858000C37BD465DF8047B7047000080B489B052
:1008680000AF7860396000237B6100233B6100237F
:10087800BB610023FB616BE10122FB6902FA03F310
:100888007B613B681A687B6913403B613A697B6905
:100898009A4240F05A813B685B68012B0BD03B6859
:1008A8005B68022B07D03B685B68112B03D03B6861
:1008B8005B68122B30D17B689B68BB61FB695B006E
:1008C800032202FA03F3DB43BA691340BB613B68B6
:1008D800DA68FB695B0002FA03F3BA691343BB6188
:1008E8007B68BA699A607B685B68BB610122FB69B7
:1008F80002FA03F3DB43BA691340BB613B685B68E8
:100908001B0903F00102FB6902FA03F3BA691343F6
:10091800BB617B68BA695A607B68DB68BB61FB694D
:100928005B00032202FA03F3DB43BA691340BB619D
:100938003B689A68FB695B0002FA03F3BA691343E0
:10094800BB617B68BA69DA603B685B68022B03D0DD
:100958003B685B68122B23D1FB69DA087B68083295
:1009680053F82230BB61FB6903F007039B000F2299
:1009780002FA03F3DB43BA691340BB613B681A69A7
:10098800FB6903F007039B0002FA03F3BA691343F8
:10099800BB61FB69DA087B680832B96943F8221041
:1009A8007B681B68BB61FB695B00032202FA03F3E7
:1009B800DB43BA691340BB613B685B6803F0030221
:1009C800FB695B0002FA03F3BA691343BB617B68F6
:1009D800BA691A603B685B6803F08053002B00F02B
:1009E800B4800023FB605F4A5E4B5B6C43F480433A
:1009F80053645C4B5B6C03F48043FB60FB685A4AAE
:100A0800FB699B08023352F82330BB61FB6903F092
:100A180003039B000F2202FA03F3DB43BA69134076
:100A2800BB617B68514A93422BD07B68504A934202
:100A380025D07B684F4A93421FD07B684E4A934229
:100A480019D07B684D4A934213D07B684C4A934235
:100A58000DD07B684B4A934207D07B684A4A934241
:100A680001D107230EE008230CE006230AE0052342
:100A780008E0042306E0032304E0022302E0012344
:100A880000E00023FA6902F0030292009340BA6979
:100A98001343BB613449FB699B080233BA6941F8C7
:100AA80023203A4B1B68BB613B69DB43BA6913409F
:100AB800BB613B685B6803F48033002B03D0BA69E1
:100AC8003B691343BB61314ABB6913602F4B5B68B9
:100AD800BB613B69DB43BA691340BB613B685B6838
:100AE80003F40033002B03D0BA693B691343BB619D
:100AF800264ABB695360254B9B68BB613B69DB4356
:100B0800BA691340BB613B685B6803F48013002B30
:100B180003D0BA693B691343BB611C4ABB69936044
:100B28001A4BDB68BB613B69DB43BA691340BB61A5
:100B38003B685B6803F40013002B03D0BA693B6978
:100B48001343BB61114ABB69D360FB690133FB6185
:100B5800FB690F2B7FF690AE00BF2437BD465DF8CA
:100B6800047B704700380240003801400000024012
:100B78000004024000080240000C0240001002403D
:100B88000014024000180240001C0240003C0140D2
:100B980080B483B000AF78600B467B8013467B70CF
:100BA8007B78002B03D07A887B689A6103E07B8886
:100BB8001A047B689A6100BF0C37BD465DF8047B58
:100BC8007047000080B582B000AF0346FB80084B39
:100BD8005A69FB881340002B06D0054AFB885361ED
:100BE800FB88184607F0A6FC00BF0837BD4680BD45
:100BF800003C0140F0B58FB00AAF78607B68002BED
:100C080001D1012354E07B681B68FB607B6893F883
:100C1800B932DBB2002B06D17B68002283F8B822F8
:100C2800786808F01FFB7B68032283F8B922FB6809
:100C3800DB6B03F48073002B02D17B6800221A61FE
:100C48007B681B68184604F091FD7B681B683B6055
:100C58007E686D4606F110040FCC0FC50FCC0FC58A
:100C680094E8030085E80300331D0ECB386804F0D0
:100C78000BFD7B681B680121184604F088FD7B6822
:100C88001B683B607E686D4606F110040FCC0FC5EB
:100C98000FCC0FC594E8030085E80300331D0ECB85
:100CA800386804F09BFE7B68012283F8B922002390
:100CB80018461437BD46F0BD90B589B004AF7860CA
:100CC800084611461A460346FB700B46BB7013468E
:100CD8007B707B6893F8B832012B01D102237FE047
:100CE8007B68012283F8B822FA78796813469B005A
:100CF8001344DB000B443D3300221A70FA787968FC
:100D080013469B001344DB000B4438337A781A707F
:100D1800FA78796813469B001344DB000B44403390
:100D28003A8D1A80FA78796813469B001344DB00E1
:100D38000B443933FA781A70FA78796813469B00AD
:100D48001344DB000B443F3397F824201A70FA78D9
:100D5800BB7803F07F03D8B2796813469B0013442D
:100D6800DB000B443A3302461A7097F90230002B25
:100D78000ADAFA78796813469B001344DB000B44BF
:100D88003B3301221A7009E0FA78796813469B0010
:100D98001344DB000B443B3300221A70FA7879685D
:100DA80013469B001344DB000B443C3397F8202088
:100DB8001A707B6818687C78BA78F9783B8D02934A
:100DC80097F82430019397F820300093234604F0D5
:100DD8008FFF0346FB737B68002283F8B822FB7BF6
:100DE80018461437BD4690BD80B584B000AF786012
:100DF8000B46FB700023FB737B6893F8B832012B1A
:100E080001D102230FE07B68012283F8B8227B68B6
:100E18001B68FA781146184605F0D5F97B68002258
:100E280083F8B822FB7B18461037BD4680BD00000A
:100E380080B582B000AF7860084611461A4603466E
:100E4800FB700B46BB7013467B70FA7879681346C3
:100E58009B001344DB000B443B33BA781A70FA78D2
:100E6800796813469B001344DB000B443F337A78C0
:100E78001A703B7C002B0AD1FA78796813469B00DC
:100E88001344DB000B44423303221A7009E0FA785A
:100E9800796813469B001344DB000B44423302225B
:100EA8001A707B78032B00F2D68001A252F823F047
:100EB800C90E000849100008350F0008BF0F0008C8
:100EC8003B7C012B40F0C980BB78002B40F0C580EB
:100ED8003B8B002B09D1FA78796813469B001344A1
:100EE800DB000B44513301221A70FA7879681346F3
:100EF8009B001344DB000B4451331B78002B0AD1B1
:100F0800FA78796813469B001344DB000B4442339C
:100F180000221A70A1E0FA78796813469B001344FE
:100F2800DB000B44423302221A7096E0BB78002B98
:100F380020D1FA78796813469B001344DB000B44F0
:100F480051331B78002B0AD1FA78796813469B0035
:100F58001344DB000B44423300221A707EE0FA7817
:100F6800796813469B001344DB000B44423302228A
:100F78001A7073E0FA78796813469B001344DB0013
:100F88000B4450331B78002B0AD1FA787968134642
:100F98009B001344DB000B44423300221A705DE0CF
:100FA800FA78796813469B001344DB000B444233FC
:100FB80002221A7052E0BB78002B20D1FA787968A7
:100FC80013469B001344DB000B4451331B78002B62
:100FD8000AD1FA78796813469B001344DB000B4466
:100FE800423300221A7039E0FA78796813469B0078
:100FF8001344DB000B44423302221A702EE0FA78C5
:10100800796813469B001344DB000B4450331B786C
:10101800002B0AD1FA78796813469B001344DB0049
:101028000B44423300221A7018E0FA7879681346A4
:101038009B001344DB000B44423302221A700DE07C
:10104800FA78796813469B001344DB000B4442335B
:1010580000221A7002E000BF00E000BFFA78796849
:1010680013469B001344DB000B4444337A691A602F
:10107800FA78398B786813469B001344DB000344E5
:1010880048331960FA78796813469B001344DB00EB
:101098000B445C3300221A70FA78796813469B0077
:1010A8001344DB000B444C3300221A60FA78796849
:1010B80013469B001344DB000B443933FA781A704B
:1010C800FA78796813469B001344DB000B445D33C0
:1010D80000221A707B681868FA7813469B0013443C
:1010E800DB0038337A68D1187B681B69DBB21A4693
:1010F80004F010FF034618460837BD4680BD00BF00
:1011080080B586B000AF78607B681B683B613B693F
:10111800FB607B681B68184604F01DFC0346012B26
:1011280040F0F2807B681B68184604F001FC034617
:10113800002B00F0E8807B681B68184604F0F8FB79
:10114800034603F40013B3F5001F04D17B681B6842
:101158004FF400125A617B681B68184604F0E8FBDC
:10116800034603F48013B3F5801F04D17B681B6822
:101178004FF480125A617B681B68184604F0D8FB4C
:10118800034603F08063B3F1806F04D17B681B686A
:101198004FF080625A617B681B68184604F0C8FBF0
:1011A800034603F00203022B03D17B681B6802226B
:1011B8005A617B681B68184604F0BAFB034603F0C3
:1011C8000053B3F1005F18D1FB6803F588631A4632
:1011D800FB6803F588631B6823F02E0313607868A7
:1011E80008F0BEF87B681B680121184604F0B4FCBF
:1011F8007B681B684FF000525A617B681B68184671
:1012080004F096FB034603F08073B3F1807F02D1AC
:10121800786801F0DDF87B681B68184604F088FBE5
:10122800034603F00803082B06D1786808F07CF819
:101238007B681B6808225A617B681B68184604F0A3
:1012480077FB034603F00073B3F1007F38D17B6866
:101258001B68184604F0A6FFB86000237B6125E0F0
:101268007B6903F00F03BA6822FA03F303F0010362
:10127800002B18D07B695A01FB68134403F5A0635F
:101288001B6803F40043B3F5004F06D17B69DBB25A
:101298001946786800F0CFF805E07B69DBB219469B
:1012A800786800F069FC7B6901337B617B689A6828
:1012B8007B699A42D4D87B681B684FF000725A61E8
:1012C8007B681B68184604F033FB034603F01003E1
:1012D800102B01D1012300E00023002B14D07B68E0
:1012E8001B687A681268926922F010029A6178681D
:1012F80000F0C2FF7B681B687A681268926942F046
:1013080010029A6100E000BF1837BD4680BD80B565
:1013180082B000AF78607B6893F8B832012B01D1B6
:10132800022313E07B68012283F8B8227B681B68DC
:10133800184604F00AFA7B681B680121184604F075
:1013480073FC7B68002283F8B8220023184608370C
:10135800BD4680BD80B582B000AF78607B6893F8E9
:10136800B832012B01D102230DE07B68012283F8FA
:10137800B8227B681B68184605F06AF87B6800226B
:1013880083F8B822002318460837BD4680BD80B5CB
:1013980082B000AF78607B681B68184604F018FCC0
:1013A800034618460837BD4680BD80B483B000AFF9
:1013B80078600B46FB70FA78796813469B001344F3
:1013C800DB000B445C331B7818460C37BD465DF8D0
:1013D800047B704780B483B000AF78600B46FB7025
:1013E800FA78796813469B001344DB000B444C33AE
:1013F8001B6818460C37BD465DF8047B704780B5FE
:1014080082B000AF78607B681B68184604F05EFC09
:10141800034618460837BD4680BD80B582B000AF88
:1014280078607B681B68184604F039FC0346184648
:101438000837BD4680BD80B586B000AF78600B46E2
:10144800FB707B681B687B617B693B61FB78FB6099
:10145800FB685A013B69134403F5A0639B6803F0DA
:101468000403042B1AD1FB685A013B69134403F5A2
:10147800A0631A4604239360FB685A013B6913442E
:1014880003F5A0631946FB685A013B69134403F549
:10149800A063DB6843F00203CB6097E0FB685A0166
:1014A8003B69134403F5A0639B6803F02003202BDA
:1014B80009D1FB685A013B69134403F5A0631A4636
:1014C8002023936082E0FB685A013B69134403F5CB
:1014D800A0639B6803F00803082B35D1FB685A0109
:1014E8003B69134403F5A0631946FB685A013B693D
:1014F800134403F5A063DB6843F00203CB6079680B
:10150800FA6813469B001344DB000B445D33052245
:101518001A70FB685A013B69134403F5A0631A4625
:1015280010239360FB685A013B69134403F5A063D9
:101538001A46082393607B681B68FA68D2B2114682
:10154800184604F040FE41E0FB685A013B69134429
:1015580003F5A0639B6803F48063B3F5806F35D10E
:10156800FB685A013B69134403F5A0631946FB68FD
:101578005A013B69134403F5A063DB6843F0020397
:10158800CB607B681B68FA68D2B21146184604F033
:101598001AFEFB685A013B69134403F5A0631A4617
:1015A800102393607968FA6813469B001344DB00A4
:1015B8000B445D3308221A70FB685A013B691344D7
:1015C80003F5A0631A464FF480639360FB685A01E1
:1015D8003B69134403F5A0639B6803F40073B3F5F8
:1015E800007F23D1FB685A013B69134403F5A063CC
:1015F8001946FB685A013B69134403F5A063DB688D
:1016080043F00203CB607B681B68FA68D2B21146CC
:10161800184604F0D8FDFB685A013B69134403F5EA
:10162800A0631A464FF400739360A1E2FB685A0165
:101638003B69134403F5A0639B6803F00103012B86
:1016480040F0C3807B681B69002B1BD07968FA685F
:1016580013469B001344DB000B4448331A68FB68AD
:1016680059013B690B4403F5A0631B69C3F31203DB
:10167800D11A7868FA6813469B001344DB000344C8
:101688004C3319607968FA6813469B001344DB00F1
:101698000B445D3301221A707968FA6813469B007F
:1016A8001344DB000B44583300221A60FB685A01CC
:1016B8003B69134403F5A0631A46012393607968D4
:1016C800FA6813469B001344DB000B443F331B7836
:1016D800002B0AD07968FA6813469B001344DB0094
:1016E8000B443F331B78022B22D1FB685A013B691C
:1016F800134403F5A0631946FB685A013B69134478
:1017080003F5A063DB6843F00203CB607B681B68CA
:10171800FA68D2B21146184604F055FDFB685A0122
:101728003B69134403F5A0631A461023936035E020
:101738007968FA6813469B001344DB000B443F3377
:101748001B78032B2AD1FB685A013B69134403F524
:10175800A0631946FB685A013B69134403F5A0636B
:101768001B6843F000530B607968FA6813469B00C6
:101778001344DB000B445C3301221A70FB68D8B2B7
:101788007968FA6813469B001344DB000B445C330A
:101798001B781A460146786807F0F0FD7968FA6800
:1017A80013469B001344DB000B4450331B7883F033
:1017B8000103D8B27968FA6813469B001344DB002A
:1017C8000B44503302461A70D2E1FB685A013B6958
:1017D800134403F5A0639B6803F00203022B40F057
:1017E800F280FB685A013B69134403F5A06319466C
:1017F800FB685A013B69134403F5A063DB6823F0D7
:101808000203CB607968FA6813469B001344DB0037
:101818000B445D331B78012B0AD17968FA681346AB
:101828009B001344DB000B445C3301221A70B0E0C8
:101838007968FA6813469B001344DB000B445D3358
:101848001B78052B0AD17968FA6813469B00134464
:10185800DB000B445C3305221A709AE07968FA6859
:1018680013469B001344DB000B445D331B78062BA7
:101878000AD07968FA6813469B001344DB000B44CE
:101888005D331B78082B56D17968FA6813469B009C
:101898001344DB000B4458331B68591C7868FA68FA
:1018A80013469B001344DB000344583319607968DE
:1018B800FA6813469B001344DB000B4458331B683B
:1018C800032B14D97968FA6813469B001344DB008C
:1018D8000B44583300221A607968FA6813469B0053
:1018E8001344DB000B445C3304221A7009E0796866
:1018F800FA6813469B001344DB000B445C33022256
:101908001A70FB685A013B69134403F5A0631B680E
:10191800BB60BB6823F08043BB60BB6843F00043F7
:10192800BB60FB685A013B69134403F5A0631A4680
:10193800BB6813602DE07968FA6813469B0013446E
:10194800DB000B445D331B78032B22D17968FA68DE
:1019580013469B001344DB000B445C3302221A70CD
:10196800FB685A013B69134403F5A0631B68BB601D
:10197800BB6823F08043BB60BB6843F00043BB6097
:10198800FB685A013B69134403F5A0631A46BB6818
:101998001360FB685A013B69134403F5A0631A46B8
:1019A80002239360FB68D8B27968FA6813469B00F3
:1019B8001344DB000B445C331B781A4601467868F5
:1019C80007F0DCFCD4E0FB685A013B69134403F5DB
:1019D800A0639B6803F08003802B3FD1FB685A010A
:1019E8003B69134403F5A0631946FB685A013B6938
:1019F800134403F5A063DB6843F00203CB60796806
:101A0800FA6813469B001344DB000B4458331B68E9
:101A1800591C7868FA6813469B001344DB0003449A
:101A2800583319607968FA6813469B001344DB0041
:101A38000B445D3306221A707B681B68FA68D2B2C1
:101A48001146184604F0BFFBFB685A013B69134472
:101A580003F5A0631A468023936089E0FB685A0166
:101A68003B69134403F5A0639B6803F01003102B34
:101A78007ED17968FA6813469B001344DB000B4457
:101A88003F331B78032B23D17968FA6813469B00F0
:101A98001344DB000B44583300221A60FB685A01D8
:101AA8003B69134403F5A0631946FB685A013B6977
:101AB800134403F5A063DB6843F00203CB607B6843
:101AC8001B68FA68D2B21146184604F07CFB46E05F
:101AD8007968FA6813469B001344DB000B443F33D4
:101AE8001B78002B0AD07968FA6813469B001344C8
:101AF800DB000B443F331B78022B30D17968FA683E
:101B080013469B001344DB000B44583300221A6031
:101B18007B681B69002B22D17968FA6813469B0001
:101B28001344DB000B445D3303221A70FB685A012F
:101B38003B69134403F5A0631946FB685A013B69E6
:101B4800134403F5A063DB6843F00203CB607B68B2
:101B58001B68FA68D2B21146184604F034FBFB68D9
:101B68005A013B69134403F5A0631A461023936096
:101B780000BF1837BD4680BD80B586B000AF78601D
:101B88000B46FB707B681B687B617B693B61FB785C
:101B9800FB60FB685A013B69134403F5A0639B682B
:101BA80003F00403042B1AD1FB685A013B69134460
:101BB80003F5A0631A4604239360FB685A013B6946
:101BC800134403F5A0631946FB685A013B691344A3
:101BD80003F5A063DB6843F00203CB6047E3FB68CF
:101BE8005A013B69134403F5A0639B6803F0200383
:101BF800202B42D1FB685A013B69134403F5A063CB
:101C08001A46202393607968FA6813469B001344A8
:101C1800DB000B443D331B78012B40F028837968A7
:101C2800FA6813469B001344DB000B443D33002243
:101C38001A707968FA6813469B001344DB000B445A
:101C48005C3302221A70FB685A013B69134403F59E
:101C5800A0631946FB685A013B69134403F5A06366
:101C6800DB6843F00203CB607B681B68FA68D2B27A
:101C78001146184604F0A7FAF9E2FB685A013B69D5
:101C8800134403F5A0639B6803F04003402B40D145
:101C98007968FA6813469B001344DB000B445D33F4
:101CA80004221A707968FA6813469B001344DB0013
:101CB8000B443D3301221A707968FA6813469B0079
:101CC8001344DB000B44583300221A60FB685A01A6
:101CD8003B69134403F5A0631946FB685A013B6945
:101CE800134403F5A063DB6843F00203CB607B6811
:101CF8001B68FA68D2B21146184604F064FAFB6809
:101D08005A013B69134403F5A0631A4640239360C4
:101D1800ADE2FB685A013B69134403F5A0639B6875
:101D280003F40073B3F5007F23D1FB685A013B69C4
:101D3800134403F5A0631946FB685A013B69134431
:101D480003F5A063DB6843F00203CB607B681B6884
:101D5800FA68D2B21146184604F035FAFB685A01FF
:101D68003B69134403F5A0631A464FF4007393606C
:101D78007DE2FB685A013B69134403F5A0639B6845
:101D880003F00103012B36D17968FA6813469B00EA
:101D98001344DB000B44583300221A60FB685A01D5
:101DA8003B69134403F5A0631946FB685A013B6974
:101DB800134403F5A063DB6843F00203CB607B6840
:101DC8001B68FA68D2B21146184604F0FCF9FB68A1
:101DD8005A013B69134403F5A0631A460123936033
:101DE8007968FA6813469B001344DB000B445D33A3
:101DF80001221A703BE2FB685A013B69134403F560
:101E0800A0639B6803F00803082B2CD1FB685A01D8
:101E18003B69134403F5A0631A4608239360FB68E3
:101E28005A013B69134403F5A0631946FB685A013C
:101E38003B69134403F5A063DB6843F00203CB60FE
:101E48007B681B68FA68D2B21146184604F0BBF9E1
:101E58007968FA6813469B001344DB000B445D3332
:101E680005221A7003E2FB685A013B69134403F523
:101E7800A0639B6803F01003102B56D17968FA68A9
:101E880013469B001344DB000B44583300221A60AE
:101E98007968FA6813469B001344DB000B445D33F2
:101EA80003221A707968FA6813469B001344DB0012
:101EB8000B443D331B78002B14D17968FA6813461C
:101EC8009B001344DB000B443C331B78002B09D1E7
:101ED8007968FA6813469B001344DB000B443D33D2
:101EE80001221A70FB685A013B69134403F5A06389
:101EF8001946FB685A013B69134403F5A063DB6884
:101F080043F00203CB607B681B68FA68D2B21146C3
:101F1800184604F058F9FB685A013B69134403F565
:101F2800A0631A4610239360A1E1FB685A013B693C
:101F3800134403F5A0639B6803F08003802B2CD126
:101F4800FB685A013B69134403F5A0631946FB6813
:101F58005A013B69134403F5A063DB6843F00203AD
:101F6800CB607B681B68FA68D2B21146184604F049
:101F78002AF97968FA6813469B001344DB000B447E
:101F88005D3306221A70FB685A013B69134403F556
:101F9800A0631A468023936069E1FB685A013B6994
:101FA800134403F5A0639B6803F48063B3F5806F63
:101FB80036D1FB685A013B69134403F5A0631946FF
:101FC800FB685A013B69134403F5A063DB6843F0DF
:101FD8000203CB607B681B68FA68D2B211461846C8
:101FE80004F0F1F8FB685A013B69134403F5A06358
:101FF8001A4610239360FB685A013B69134403F5A2
:10200800A0631A464FF4806393607968FA681346B0
:102018009B001344DB000B445D3308221A7026E151
:10202800FB685A013B69134403F5A0639B6803F0FE
:102038000203022B40F01B81FB685A013B691344E1
:1020480003F5A0631946FB685A013B69134403F57D
:10205800A063DB6823F00203CB607968FA68134653
:102068009B001344DB000B445D331B78012B37D1F5
:102078007968FA6813469B001344DB000B445C3311
:1020880001221A707968FA6813469B001344DB0032
:102098000B443F331B78022B0BD07968FA68134640
:1020A8009B001344DB000B443F331B78032B40F0A9
:1020B800C5807968FA6813469B001344DB000B441B
:1020C80051331B7883F00103D8B27968FA68134654
:1020D8009B001344DB000B44513302461A70ADE0F9
:1020E8007968FA6813469B001344DB000B445D33A0
:1020F8001B78032B0AD17968FA6813469B001344AE
:10210800DB000B445C3302221A7097E07968FA68A6
:1021180013469B001344DB000B445D331B78042BF0
:102128000AD17968FA6813469B001344DB000B4414
:102138005C3302221A7081E07968FA6813469B00C2
:102148001344DB000B445D331B78052B0AD17968F7
:10215800FA6813469B001344DB000B445C330522EA
:102168001A706BE07968FA6813469B001344DB0029
:102178000B445D331B78062B0AD07968FA6813463E
:102188009B001344DB000B445D331B78082B55D1AF
:102198007968FA6813469B001344DB000B445833F4
:1021A8001B68591C7868FA6813469B001344DB00C7
:1021B8000344583319607968FA6813469B0013443E
:1021C800DB000B4458331B68032B14D97968FA6871
:1021D80013469B001344DB000B44583300221A605B
:1021E8007968FA6813469B001344DB000B445C33A0
:1021F80004221A7009E07968FA6813469B001344B0
:10220800DB000B445C3302221A70FB685A013B69FD
:10221800134403F5A0631B68BB60BB6823F08043CD
:10222800BB60BB6843F00043BB60FB685A013B6975
:10223800134403F5A0631A46BB681360FB685A0190
:102248003B69134403F5A0631A4602239360FB68B5
:10225800D8B27968FA6813469B001344DB000B4434
:102268005C331B781A460146786807F087F800BF88
:102278001837BD4680BD000080B58AB000AF7860D1
:102288007B681B687B627B6A3B627B681B681B6A96
:10229800FB61FB6903F00F03BB61FB695B0C03F097
:1022A8000F037B61FB691B09C3F30A033B617B696D
:1022B800022B03D0052B00F0828083E03B69002BC2
:1022C8007FD07968BA6913469B001344DB000B443E
:1022D80044331B68002B74D07B6818687968BA6926
:1022E80013469B001344DB000B4444331B683A69D4
:1022F80092B2194603F0F3FA7968BA6913469B005B
:102308001344DB000B4444331A683B69D1187868DE
:10231800BA6913469B001344DB0003444433196035
:102328007968BA6913469B001344DB000B444C33AD
:102338001A683B69D1187868BA6913469B00134438
:10234800DB0003444C331960BB695A013B6A1344F0
:1023580003F5A0631A691D4B1340002B31D0BB69EC
:102368005A013B6A134403F5A0631B68FB60FB68D2
:1023780023F08043FB60FB6843F00043FB60BB69CC
:102388005A013B6A134403F5A0631A46FB681360BD
:102398007968BA6913469B001344DB000B44503339
:1023A8001B7883F00103D8B27968BA6913469B0099
:1023B8001344DB000B44503302461A7001E000BF9F
:1023C80000E000BF00BF2837BD4680BD0000F81FF1
:1023D80080B586B000AF78607B681B687B617B69DD
:1023E8003B613B6903F588631B68FB603B6903F548
:1023F80088631B68BB60BB6823F02E03BB60FB6867
:1024080003F00203022B13D1FB6803F00103012B35
:102418000AD17B681B687A681268926922F00052B8
:102428009A61786806F08EFFBB6843F00203BB60D0
:10243800FB6803F00803082B48D1BB6843F0080386
:10244800BB60FB6803F00403042B29D17B689B69FC
:10245800022B13D1FB6803F4C023B3F5802F06D1F8
:102468007B681B680221184603F076FB11E07B6845
:102478001B680121184603F06FFB0AE07B68DB68E4
:10248800012B06D13B6903F580631A464EF660239B
:102498005360786806F080FF786806F053FF15E00F
:1024A800786806F087FF3B6903F588631A463B693D
:1024B80003F588631B6823F02E0313607B681B6891
:1024C8007A681268926942F000529A61FB6803F0D8
:1024D8002003202B03D1BB6843F02003BB603B697A
:1024E80003F588631A46BB68136000BF1837BD46FA
:1024F80080BD000090B585B000AF78607B68002B88
:1025080001D101231FE17B6893F83D30DBB2002B3A
:1025180006D17B68002283F83C20786805F00AFF22
:102528007B68242283F83D207B681B687A681268E0
:10253800126822F001021A607B681B687A681268C8
:10254800126842F400421A607B681B687A68126855
:10255800126822F400421A6001F0DCF9F8607B6826
:102568005B687B4A934207D8FB687A4A934294BFD8
:1025780001230023DBB206E0FB68774A934294BF4D
:1025880001230023DBB2002B01D00123DBE0FB6831
:10259800724AA2FB03239B0CBB607B681B687A68AA
:1025A8001268526822F03F01BA680A435A607B6891
:1025B8001A687B681B681B6A23F03F017B685B68AD
:1025C8006348834202D8BB68013309E0BB684FF413
:1025D800967000FB03F36248A0FB03039B090133D9
:1025E8000B4313627B6818687B681B68DB6923F4FC
:1025F8004F4222F0FF027B685B6855498B420DD839
:10260800FB68591E7B685B685B00B1FBF3F3013321
:10261800C3F30B03042B38BF04234FE07B689B688C
:10262800002B11D1FB685C1E7B6859680B465B0068
:102638000B44B4FBF3F30133C3F30B03002B0CBFC0
:1026480001230023DBB212E0FB685C1E7B6859683B
:102658000B469B000B4499000B44B4FBF3F3013386
:10266800C3F30B03002B0CBF01230023DBB2002BA9
:1026780001D0012322E07B689B68002B0ED1FB6808
:102688005C1E7B6859680B465B000B44B4FBF3F394
:102698000133C3F30B0343F400430FE0FB685C1EF4
:1026A8007B6859680B469B000B4499000B44B4FBAC
:1026B800F3F30133C3F30B0343F440431343C36100
:1026C8007B681B687A681268126822F0C0017A6811
:1026D800D0697A68126A02430A431A607B681A68EA
:1026E8007B681B689B6823F4034323F0FF03796826
:1026F80008697968C96801430B4393607B681B6864
:102708007A681268D26822F0FF017A6850697A689C
:10271800926902430A43DA607B681B687A68126828
:10272800126842F001021A607B6800221A647B6812
:10273800202283F83D207B6800221A637B680022F0
:1027480083F83E20002318461437BD4690BD00BFCD
:10275800A08601007F841E00FF083D0083DE1B4326
:10276800D34D621080B588B000AF78607B68002BCD
:1027780001D1012327E17B6893F84130DBB2002BBC
:1027880009D17B68002283F840207B68904A5A630D
:10279800786805F047FE7B68022283F841207B6851
:1027A8001A687B681B68DB6923F47B6323F00F03DB
:1027B800D3617B681B6802221A627B685B69022B03
:1027C80060D07B68DB68002B02D110237B6101E0BD
:1027D80020237B617B689B68202B02D87B695B0088
:1027E8007B61012001F0A0F9F8607B681B69B3F5F3
:1027F800007F25D17B68DB68002B10D07B699B00AC
:10280800FA68B2FBF3F213469B0013445B001A46C6
:102818007B685B69B2FBF3F305333B611FE07B69BF
:10282800DB00FA68B2FBF3F213469B0013445B002B
:102838001A467B685B69B2FBF3F305333B610EE034
:10284800FA687B69B2FBF3F213469B0013445B0002
:102858001A467B685B69B2FBF3F305333B613B695E
:102868005C4AA2FB0323DB083B613B6903F00103DD
:10287800BB613A69BB69D31A5B08FB61BB691B0280
:10288800BB6103E00223FB610023BB61FB69012BF1
:1028980002D9FB69FF2B07D97B685B6C43F01002F8
:1028A8007B685A6401238EE07B681B687A6811692B
:1028B800BA691143FA690A431A627B681A687B6825
:1028C8001B68DB6923F47B6323F00F03796848688E
:1028D8007968896808437968C968084379688969A3
:1028E80001430B4343F40063D3617B681B6A012BEC
:1028F80061D17B68384A5A637B681B68374A9342C0
:1029080001D1374A01E04FF040227B681B68334908
:102918008B4201D1324B01E04FF04023DB6923F4B5
:102928007B6323F00F03D3617B681B682B4A9342B8
:1029380001D12B4B01E04FF0402302221A627B6841
:102948001B68264A934201D1254B01E04FF04023F2
:10295800DB697B817B685B68B3F5007F03D07B68AC
:102968005B68002B03D14FF480733B6101E00023C7
:102978003B613B699AB27B689B6899B27B68DB686C
:1029880098B27B689B699BB203439BB20B439BB293
:1029980013439AB27B8913439BB243F400637B8150
:1029A8007B681B680D4A934201D10D4B01E04FF043
:1029B80040237A89DA617B6800225A647B680122A5
:1029C80083F84120002318462037BD4680BD00BF4C
:1029D800E32A0008CDCCCCCCF92B00080038004005
:1029E8000034004080B483B000AF786000BF0C377B
:1029F800BD465DF8047B704780B483B000AF786053
:102A080000BF0C37BD465DF8047B704780B483B0C7
:102A180000AF786000BF0C37BD465DF8047B704797
:102A280080B582B000AF78607B681B687A68526AAC
:102A38001288DA607B685B6A9A1C7B685A627B68DA
:102A48005B8D9BB2013B9AB27B685A857B685B8D34
:102A58009BB2002B0ED17B681B687A68126852689B
:102A680022F0A0025A607B68012283F8412078682E
:102A7800FFF7B8FF00BF0837BD4680BD80B582B0FC
:102A880000AF78607B68DB6A7A681268D26892B2B5
:102A98001A807B68DB6A9A1C7B68DA627B685B8ECB
:102AA8009BB2013B9AB27B685A867B685B8E9BB26D
:102AB800002B0ED17B681B687A681268526822F076
:102AC80060025A607B68012283F841207868FFF72A
:102AD80093FF00BF0837BD4680BD80B586B000AF04
:102AE80078607B681B689B687B617B6893F84130E2
:102AF800DBB2042B3AD17B6903F00103012B09D126
:102B08007B681B685B6803F04003402B02D1786840
:102B1800FFF7B4FF7B6903F04003402B26D17B68A5
:102B28001B685B6803F02003202B1FD17B681B68A0
:102B38007A681268526822F060025A6000233B618A
:102B48007B681B68DB683B617B681B689B683B6133
:102B58003B697B68012283F841207B685B6C43F00A
:102B680002027B685A647868FFF750FF7B6893F825
:102B78004130DBB2032B36D17B6903F00203022B11
:102B880009D17B681B685B6803F08003802B02D146
:102B98007868FFF745FF7B6903F00803082B22D10B
:102BA8007B681B685B6803F02003202B1BD17B68C4
:102BB8001B687A681268526822F0A0025A600023E3
:102BC800FB607B681B689B68FB60FB687B68012275
:102BD80083F841207B685B6C43F004027B685A648D
:102BE8007868FFF713FF00BF1837BD4680BD0000A7
:102BF80080B588B000AF78607B681B689B68FB6114
:102C08007B681B68A24A934201D1A24B01E04FF0B6
:102C180040239B68BB617B681B685B687B617B6842
:102C28001B689B4A934201D19A4B01E04FF0402325
:102C38005B683B617B685B68B3F5007F04D07B68A9
:102C48005B68002B40F09980FB6903F00203022BBC
:102C580007D17B6903F08003002B02D0786800F06D
:102C680025F9BB6903F00103012B07D13B6903F088
:102C78004003002B02D0786800F0C6F9BB6903F066
:102C88004003402B3AD13B6903F02003002B35D099
:102C98007B681B687E4A934201D17E4B01E04FF06E
:102CA80040237A6812687A498A4201D1794A01E058
:102CB8004FF04022526822F060025A607B681B681D
:102CC8007A681268526822F0A0025A600023FB60FA
:102CD8007B681B68DB68FB607B681B689B68FB6024
:102CE800FB687B68012283F841207B685B6C43F0BA
:102CF80002027B685A647868FFF788FEFB6903F074
:102D08000803082B40F0BE807B6903F02003002BEA
:102D180000F0B8807B681B687A681268526822F0F5
:102D2800A0025A607B681B68594A934201D1594BEB
:102D380001E04FF040237A68126855498A4201D170
:102D4800544A01E04FF04022526822F060025A6073
:102D58000023BB607B681B689B68BB60BB687B68A3
:102D6800012283F841207B685B6C43F004027B6896
:102D78005A647868FFF74AFE84E0BB6903F00203EF
:102D8800022B07D13B6903F08003002B02D078683F
:102D980000F0BEF8FB6903F00103012B07D17B6942
:102DA80003F04003002B02D0786800F0FBF8FB69C1
:102DB80003F04003402B2FD17B6903F02003002B45
:102DC8002AD07B681B687A681268526822F0600211
:102DD8005A607B681B682E4A934201D12D4B01E053
:102DE8004FF040237A68126829498A4201D1294A5A
:102DF80001E04FF04022526822F0A0025A607B683E
:102E0800012283F841207B685B6C43F002027B68F7
:102E18005A647868FFF7FAFDBB6903F00803082BCA
:102E280031D13B6903F02003002B2CD07B681B6851
:102E3800174A934201D1174B01E04FF040237A68BB
:102E4800126813498A4201D1124A01E04FF0402228
:102E5800526822F0A0025A607B681B687A68126880
:102E6800526822F060025A607B68012283F8412090
:102E78007B685B6C43F004027B685A647868FFF7F0
:102E8800C5FD00E000BF00BF2037BD4680BD00BFC4
:102E9800003800400034004080B483B000AF786050
:102EA80000BF0C37BD465DF8047B704780B582B023
:102EB80000AF78607B681A687B685B6A981C7968E1
:102EC80048621B88D3607B685B8D9BB2013B9AB2DA
:102ED8007B685A857B685B8D9BB2002B13D17B681E
:102EE8001B687A681268526822F0A0025A607B68F0
:102EF8005B8E9BB2002B06D17B68012283F84120B0
:102F08007868FFF7C9FF00BF0837BD4680BD0000DD
:102F180080B582B000AF78607B681B681F4A934217
:102F280001D11F4A01E04FF040227B685B6A981C80
:102F3800796848621B88D3607B685B8D9BB2013BD4
:102F48009AB27B685A857B685B8D9BB2002B21D136
:102F58007B681B68114A934201D1114B01E04FF085
:102F680040237A6812680D498A4201D10C4A01E06F
:102F78004FF04022526822F0A0025A607B685B8EB4
:102F88009BB2002B06D17B68012283F84120786828
:102F9800FFF782FF00BF0837BD4680BD00380040FC
:102FA8000034004080B582B000AF78607B68DB6A8F
:102FB800991C7A68D1627A681268D26892B21A80CB
:102FC8007B685B8E9BB2013B9AB27B685A867B68B2
:102FD8005B8E9BB2002B13D17B681B687A681268E2
:102FE800526822F060025A607B685B8D9BB2002BAE
:102FF80006D17B68012283F841207868FFF74CFFEF
:1030080000BF0837BD4680BD80B582B000AF78608C
:103018007B68DB6A991C7A68D1627A6812681E49F3
:103028008A4201D11D4A01E04FF04022D26892B293
:103038001A807B685B8E9BB2013B9AB27B685A868A
:103048007B685B8E9BB2002B21D17B681B68124A80
:10305800934201D1114B01E04FF040237A68126886
:103068000D498A4201D10D4A01E04FF040225268D1
:1030780022F060025A607B685B8D9BB2002B06D100
:103088007B68012283F841207868FFF705FF00BFBD
:103098000837BD4680BD00BF0038004000340040FE
:1030A80080B586B000AF78607B68002B01D1012322
:1030B8005BE27B681B6803F00103002B75D0A34B10
:1030C8009B6803F00C03042B0CD0A04B9B6803F007
:1030D8000C03082B12D19D4B5B6803F48003B3F5F6
:1030E800800F0BD1994B1B6803F40033002B5BD086
:1030F8007B685B68002B57D1012336E27B685B68ED
:10310800B3F5803F06D1914A904B1B6843F4803356
:1031180013601DE07B685B68B3F5A02F0CD18B4A68
:103128008A4B1B6843F480231360884A874B1B68CB
:1031380043F4803313600BE0844A844B1B6823F408
:1031480080331360814A814B1B6823F4802313600A
:103158007B685B68002B13D0FDF720FA386108E024
:10316800FDF71CFA02463B69D31A642B01D90323E5
:10317800FBE1764B1B6803F40033002BF0D014E01E
:10318800FDF70CFA386108E0FDF708FA02463B69DA
:10319800D31A642B01D90323E7E16C4B1B6803F4B2
:1031A8000033002BF0D100E000BF7B681B6803F000
:1031B8000203002B63D0654B9B6803F00C03002BC4
:1031C8000BD0624B9B6803F00C03082B1CD15F4BA0
:1031D8005B6803F48003002B16D15C4B1B6803F07B
:1031E8000203002B05D07B68DB68012B01D001238B
:1031F800BBE15649554B1B6823F0F8027B681B69F5
:10320800DB0013430B603AE07B68DB68002B20D0BF
:103218004F4B01221A60FDF7C1F9386108E0FDF74C
:10322800BDF902463B69D31A022B01D903239CE15D
:10323800464B1B6803F00203002BF0D04349434B75
:103248001B6823F0F8027B681B69DB0013430B60E3
:1032580015E03F4B00221A60FDF7A0F9386108E03D
:10326800FDF79CF902463B69D31A022B01D90323C7
:103278007BE1364B1B6803F00203002BF0D17B681F
:103288001B6803F00803002B30D07B685B69002BB8
:1032980016D0304B01221A60FDF780F9386108E03A
:1032A800FDF77CF902463B69D31A022B01D90323A7
:1032B8005BE1264B5B6F03F00203002BF0D015E0B7
:1032C800244B00221A60FDF769F9386108E0FDF720
:1032D80065F902463B69D31A022B01D9032344E15D
:1032E8001A4B5B6F03F00203002BF0D17B681B685D
:1032F80003F00403002B00F0A0800023FB75134BA0
:103308001B6C03F08053002B0FD10023BB600F4AC6
:103318000E4B1B6C43F0805313640C4B1B6C03F077
:103328008053BB60BB680123FB750B4B1B6803F420
:103338008073002B21D1084A074B1B6843F4807324
:103348001360FDF72BF9386111E000BF0038024027
:1033580000004742800E474200700040FDF71EF90A
:1033680002463B69D31A022B01D90323FDE0814BA6
:103378001B6803F48073002BF0D07B689B68012BDB
:1033880006D17D4A7C4B1B6F43F0010313671CE099
:103398007B689B68052B0CD1774A774B1B6F43F0F2
:1033A80004031367744A744B1B6F43F001031367DC
:1033B8000BE0714A704B1B6F23F0010313676E4AD1
:1033C8006D4B1B6F23F0040313677B689B68002B0E
:1033D80015D0FDF7E3F838610AE0FDF7DFF802469B
:1033E8003B69D31A41F28832934201D90323BCE0E6
:1033F800614B1B6F03F00203002BEED014E0FDF7C6
:10340800CDF838610AE0FDF7C9F802463B69D31ADE
:1034180041F28832934201D90323A6E0564B1B6F31
:1034280003F00203002BEED1FB7D012B05D1524A9C
:10343800514B1B6C23F0805313647B689B69002BF2
:1034480000F092804C4B9B6803F00C03082B5CD077
:103458007B689B69022B41D1484B00221A60FDF71B
:103468009DF8386108E0FDF799F802463B69D31AE0
:10347800022B01D9032378E03F4B1B6803F000734C
:10348800002BF0D13C497B68DA697B681B6A1A43D8
:103498007B685B6A9B011A437B689B6A5B08013BFC
:1034A8001B041A437B68DB6A1B0613434B60334BD0
:1034B80001221A60FDF772F8386108E0FDF76EF82E
:1034C80002463B69D31A022B01D903234DE02A4B4C
:1034D8001B6803F00073002BF0D045E0274B002257
:1034E8001A60FDF75BF8386108E0FDF757F8024607
:1034F8003B69D31A022B01D9032336E01E4B1B6804
:1035080003F00073002BF0D12EE07B689B69012B40
:1035180001D1012329E0184B9B68FB60FB6803F489
:1035280080027B68DB699A421CD1FB6803F03F028A
:103538007B681B6A9A4215D1FA6847F6C073134034
:103548007A68526A93420DD1FB6803F440327B6873
:103558009B6A9A4206D1FB6803F070627B68DB6A5B
:103568009A4201D0012300E0002318461837BD46CF
:1035780080BD00BF00700040003802406000474234
:1035880080B584B000AF786039607B68002B01D1CA
:103598000123CCE0684B1B6803F00F023B689A429A
:1035A8000CD2654B3A68D2B21A70634B1B6803F0B1
:1035B8000F023B689A4201D00123B8E07B681B6880
:1035C80003F00203002B20D07B681B6803F0040380
:1035D800002B05D0594A594B9B6843F4E05393603C
:1035E8007B681B6803F00803002B05D0534A534B34
:1035F8009B6843F4604393605049504B9B6823F0A9
:10360800F0027B689B6813438B607B681B6803F040
:103618000103002B44D07B685B68012B07D1474B23
:103628001B6803F40033002B19D101237FE07B686A
:103638005B68022B03D07B685B68032B07D13F4B89
:103648001B6803F00073002B09D101236FE03B4B8B
:103658001B6803F00203002B01D1012367E03749FF
:10366800364B9B6823F003027B685B6813438B60CF
:10367800FCF794FFF8600AE0FCF790FF0246FB684D
:10368800D31A41F28832934201D903234FE02B4BDE
:103698009B6803F00C027B685B689B009A42EBD145
:1036A800254B1B6803F00F023B689A420CD9224B4A
:1036B8003A68D2B21A70204B1B6803F00F023B68BD
:1036C8009A4201D0012332E07B681B6803F00403AF
:1036D800002B08D01949194B9B6823F4E0527B68EA
:1036E800DB6813438B607B681B6803F00803002BBF
:1036F80009D01249114B9B6823F460427B681B690F
:10370800DB0013438B6000F021F801460B4B9B68EC
:103718001B0903F00F030A4AD35C21FA03F3094A91
:103728001360094B1B681846FCF7F4FE0023184683
:103738001037BD4680BD00BF003C02400038024043
:10374800309A00082C000020000000202DE9F04FDE
:103758008FB000AF0023FB6200237B630023BB62B2
:1037680000233B63624B9B6803F00C03042B07D0D8
:10377800082B08D0002B40F0B2805E4B3B63B1E0D1
:103788005D4B3B63AEE05A4B5B6803F03F03FB6263
:10379800574B5B6803F48003002B4ED0544B5B6897
:1037A8009B094FF0000440F2FF114FF0000201EABC
:1037B800030102EA04020B46144660017862786A43
:1037C80040EAD36078625B013B62D7E908345B1A50
:1037D80064EB02044FEA841949EA93694FEA8318B3
:1037E800B8EB030869EB04094FEAC903FB61FB69FD
:1037F80043EA5873FB614FEAC803BB61D7E90689FE
:1038080018EB010849EB02094FEA49237B617B6900
:1038180043EAD8537B614FEA48233B61D7E90489DF
:1038280040464946FB6A4FF000041A462346FCF717
:10383800C7FC03460C467B6343E02D4B5B689B0942
:103848004FF0000440F2FF114FF0000201EA0301BB
:1038580002EA04020B4614466001F860F86840EA80
:10386800D360F8605B01BB60D7E902345B1A64EB94
:103878000204A60146EA93669D01ED1A66EB04066A
:10388800F3007B607B6843EA55737B60EB003B6029
:1038980097E860006D1846EB02064FEA862B4BEA64
:1038A800955B4FEA852A55465E4628463146FB6AAF
:1038B8004FF000041A462346FCF782FC03460C46E8
:1038C8007B630B4B5B681B0C03F0030301335B004A
:1038D800BB627A6BBB6AB2FBF3F33B6302E0054B56
:1038E8003B6300BF3B6B18463C37BD46BDE8F08FD5
:1038F800003802400024F40000127A0080B400AFBF
:10390800034B1B681846BD465DF8047B704700BF33
:103918002C00002080B500AFFFF7F0FF0146054BF3
:103928009B689B0A03F00703034AD35C21FA03F35D
:10393800184680BD00380240409A000880B500AFA4
:10394800FFF7DCFF0146054B9B685B0B03F00703A1
:10395800034AD35C21FA03F3184680BD00380240BD
:10396800409A000880B586B000AF786000237B617C
:1039780000233B617B681B6803F00103002B05D122
:103988007B681B6803F00403002B35D0624B0022D0
:103998001A60FCF703FE786108E0FCF7FFFD0246B9
:1039A8007B69D31A022B01D90323B0E05B4B1B6858
:1039B80003F00063002BF0D158497B685B689A01DB
:1039C8007B689B681B071343C1F88430524B012264
:1039D8001A60FCF7E3FD786108E0FCF7DFFD0246BA
:1039E8007B69D31A022B01D9032390E04B4B1B6848
:1039F80003F00063002BF0D07B681B6803F0020320
:103A0800002B00F083800023FB60444A434B1B6C6F
:103A180043F080531364414B1B6C03F08053FB60ED
:103A2800FB683F4A3E4B1B6843F480731360FCF706
:103A3800B5FD786108E0FCF7B1FD02467B69D31A51
:103A4800022B01D9032362E0354B1B6803F4807312
:103A5800002BF0D0314B1B6F03F440733B613B6983
:103A6800002B2FD07B68DB6803F440723B699A42D5
:103A780028D02A4B1B6F23F440733B61294B01224A
:103A88001A60284B00221A60244A3B691367234BAB
:103A98001B6F03F00103012B14D1FCF77FFD786144
:103AA8000AE0FCF77BFD02467B69D31A41F28832B3
:103AB800934201D903232AE0184B1B6F03F002033A
:103AC800002BEED07B68DB6803F44073B3F5407FCE
:103AD8000DD11249114B9B6823F4F8127B68DB68FF
:103AE80023F0704323F4407313438B6005E00B4AC3
:103AF8000A4B9B6823F4F81393600849074B1A6F25
:103B08007B68DB68C3F30B0313430B67002318467A
:103B18001837BD4680BD00BF6800474200380240E4
:103B280000700040400E474280B487B000AF786014
:103B380000237B6100233B610023FB600023BB6003
:103B48007B68012B3DD1224B9B6803F40003FB608B
:103B5800FB68002B04D0012B2FD11E4B7B612FE07B
:103B68001B4B5B6803F48003B3F5800F08D1184B37
:103B78005B6803F03F03184AB2FBF3F33B6107E0CD
:103B8800134B5B6803F03F03144AB2FBF3F33B614A
:103B98000F4BD3F884309B09C3F308033A6902FB3F
:103BA80003F3BB600A4BD3F884301B0F03F0070301
:103BB800BA68B2FBF3F37B6102E000237B6100BFCC
:103BC80000BF7B6918461C37BD465DF8047B70470B
:103BD800003802400080BB0000127A000024F40084
:103BE80080B582B000AF78607B68002B01D10123DB
:103BF80055E07B6800229A627B6893F85130DBB20B
:103C0800002B06D17B68002283F85020786804F0E6
:103C18003DFE7B68022283F851207B681B687A6826
:103C28001268126822F040021A607B681B687A6882
:103C380051687A68926811437A68D26811437A6841
:103C4800126911437A68526911437A68926902F4D9
:103C5800007211437A68D26911437A68126A114373
:103C68007A68926A0A431A607B681B687A68926964
:103C7800120C02F004017A68526A0A435A607B689F
:103C88001B687A681268D26922F40062DA617B687C
:103C980000225A657B68012283F8512000231846C8
:103CA8000837BD4680BD80B582B000AF78607B68BC
:103CB800002B01D101231DE07B6893F83D30DBB276
:103CC800002B06D17B68002283F83C20786805F039
:103CD8007FF87B68022283F83D207B681A687B683E
:103CE80004331946104600F0FBF97B68012283F87B
:103CF8003D20002318460837BD4680BD80B582B0F8
:103D080000AF78607B68002B01D101231DE07B6840
:103D180093F83D30DBB2002B06D17B68002283F894
:103D28003C20786800F015F87B68022283F83D2073
:103D38007B681A687B6804331946104600F0D0F98E
:103D48007B68012283F83D20002318460837BD46CA
:103D580080BD80B483B000AF786000BF0C37BD462B
:103D68005DF8047B7047000080B584B000AF7860D0
:103D780039607B681B6801223968184600F09AFC94
:103D88007B681B68154A934204D07B681B68144AF9
:103D9800934201D1012300E00023002B07D07B6868
:103DA8001B687A681268526C42F400425A647B6855
:103DB8001B689B6803F00703FB60FB68062B07D0B2
:103DC8007B681B687A681268126842F001021A6000
:103DD800002318461037BD4680BD00BF00000140D3
:103DE8000004014080B584B000AFF860B9607A6023
:103DF800FB6893F83C30012B01D10223B4E0FB6847
:103E0800012283F83C20FB68022283F83D207B686E
:103E18000C2B00F29F8001A252F823F0593E0008B3
:103E28005D3F00085D3F00085D3F0008993E0008BF
:103E38005D3F00085D3F00085D3F0008DB3E00086D
:103E48005D3F00085D3F00085D3F00081B3F00081C
:103E5800FB681B68B968184600F0E2F9FB681B6844
:103E6800FA681268926942F008029A61FB681B6856
:103E7800FA681268926922F004029A61FB681B686A
:103E8800FA6812689169BA6812690A439A6162E02D
:103E9800FB681B68B968184600F032FAFB681B68B3
:103EA800FA681268926942F400629A61FB681B68BA
:103EB800FA681268926922F480629A61FB681B684A
:103EC800FA6812689169BA68126912020A439A611B
:103ED80041E0FB681B68B968184600F087FAFB6880
:103EE8001B68FA681268D26942F00802DA61FB6856
:103EF8001B68FA681268D26922F00402DA61FB686A
:103F08001B68FA681268D169BA6812690A43DA61EB
:103F180021E0FB681B68B968184600F0DBFAFB680B
:103F28001B68FA681268D26942F40062DA61FB68B9
:103F38001B68FA681268D26922F48062DA61FB6849
:103F48001B68FA681268D169BA68126912020A43D2
:103F5800DA6100E000BFFB68012283F83D20FB68BE
:103F6800002283F83C20002318461037BD4680BD48
:103F780080B584B000AF786039607B6893F83C30D6
:103F8800012B01D10223A6E07B68012283F83C20A3
:103F98007B68022283F83D207B681B689B68FB6076
:103FA800FB6823F07703FB60FB6823F47F43FB6027
:103FB8007B681B68FA689A603B681B68402B67D06F
:103FC800402B0BD8102B73D0102B02D8002B6FD09E
:103FD80078E0202B6CD0302B6AD073E0702B0DD09A
:103FE800702B04D8502B33D0602B41D06AE0B3F546
:103FF800805F66D0B3F5005F17D063E07B68186810
:104008003B6899683B685A683B68DB6800F032FB9C
:104018007B681B689B68FB60FB6843F07703FB6069
:104028007B681B68FA689A604CE07B6818683B6894
:1040380099683B685A683B68DB6800F01BFB7B6843
:104048001B687A681268926842F480429A6039E084
:104058007B6818683B6859683B68DB681A4600F05B
:104068008FFA7B681B685021184600F0E8FA29E0AF
:104078007B6818683B6859683B68DB681A4600F03B
:10408800AEFA7B681B686021184600F0D8FA19E080
:104098007B6818683B6859683B68DB681A4600F01B
:1040A8006FFA7B681B684021184600F0C8FA09E0DF
:1040B8007B681A683B681B681946104600F0BFFA0F
:1040C80000E000BF7B68012283F83D207B68002266
:1040D80083F83C20002318461037BD4680BD0000F9
:1040E80080B485B000AF786039607B681B68FB607E
:1040F8007B68404A934213D07B68B3F1804F0FD05E
:104108007B683D4A93420BD07B683C4A934207D078
:104118007B683B4A934203D07B683A4A934208D172
:10412800FB6823F07003FB603B685B68FA68134325
:10413800FB607B682F4A93422BD07B68B3F1804F9A
:1041480027D07B682C4A934223D07B682B4A934222
:104158001FD07B682A4A93421BD07B68294A934226
:1041680017D07B68284A934213D07B68274A93422A
:104178000FD07B68264A93420BD07B68254A93422E
:1041880007D07B68244A934203D07B68234A934232
:1041980008D1FB6823F44073FB603B68DB68FA686E
:1041A8001343FB60FB6823F080023B685B691343A1
:1041B800FB607B68FA681A603B689A687B68DA6219
:1041C8003B681A687B689A627B680A4A934203D004
:1041D8007B680C4A934203D13B681A697B681A636F
:1041E8007B6801225A6100BF1437BD465DF8047B25
:1041F800704700BF00000140000400400008004074
:10420800000C00400004014000400140004401400F
:104218000048014000180040001C004000200040F9
:1042280080B487B000AF786039607B681B6A23F080
:1042380001027B681A627B681B6A7B617B685B682A
:104248003B617B689B69FB60FB6823F07003FB6044
:10425800FB6823F00303FB603B681B68FA681343A1
:10426800FB607B6923F002037B613B689B687A698A
:1042780013437B617B68204A934203D07B681F4AC3
:1042880093420CD17B6923F008037B613B68DB68B0
:104298007A6913437B617B6923F004037B617B6844
:1042A800154A934203D07B68144A934211D13B6963
:1042B80023F480733B613B6923F400733B613B68E3
:1042C8005B693A6913433B613B689B693A691343ED
:1042D8003B617B683A695A607B68FA689A613B6817
:1042E8005A687B685A637B687A691A6200BF1C3710
:1042F800BD465DF8047B70470000014000040140A2
:1043080080B487B000AF786039607B681B6A23F09F
:1043180010027B681A627B681B6A7B617B685B683A
:104328003B617B689B69FB60FB6823F4E043FB60AF
:10433800FB6823F44073FB603B681B681B02FA6848
:104348001343FB607B6923F020037B613B689B6818
:104358001B017A6913437B617B68224A934203D02D
:104368007B68214A93420DD17B6923F080037B61EE
:104378003B68DB681B017A6913437B617B6923F027
:1043880040037B617B68174A934203D07B68164AD7
:10439800934213D13B6923F480633B613B6923F467
:1043A80000633B613B685B699B003A6913433B616F
:1043B8003B689B699B003A6913433B617B683A6998
:1043C8005A607B68FA689A613B685A687B689A63A6
:1043D8007B687A691A6200BF1C37BD465DF8047BAA
:1043E800704700BF000001400004014080B487B05E
:1043F80000AF786039607B681B6A23F480727B6841
:104408001A627B681B6A7B617B685B683B617B68BF
:10441800DB69FB60FB6823F07003FB60FB6823F03B
:104428000303FB603B681B68FA681343FB607B6906
:1044380023F400737B613B689B681B027A69134312
:104448007B617B68214A934203D07B68204A934270
:104458000DD17B6923F400637B613B68DB681B0239
:104468007A6913437B617B6923F480637B617B6892
:10447800164A934203D07B68154A934213D13B698D
:1044880023F480533B613B6923F400533B613B6851
:104498005B691B013A6913433B613B689B691B01DC
:1044A8003A6913433B617B683A695A607B68FA68EA
:1044B800DA613B685A687B68DA637B687A691A62F2
:1044C80000BF1C37BD465DF8047B70470000014003
:1044D8000004014080B487B000AF786039607B6821
:1044E8001B6A23F480527B681A627B681B6A3B61F3
:1044F8007B685B687B617B68DB69FB60FB6823F436
:10450800E043FB60FB6823F44073FB603B681B6877
:104518001B02FA681343FB603B6923F400533B61B9
:104528003B689B681B033A6913433B617B68124AEB
:10453800934203D07B68114A934209D17B6923F4E3
:1045480080437B613B685B699B017A6913437B61AC
:104558007B687A695A607B68FA68DA613B685A68EE
:104568007B681A647B683A691A6200BF1C37BD46CB
:104578005DF8047B704700BF000001400004014063
:1045880080B487B000AFF860B9607A60FB681B6AD6
:104598007B61FB681B6A23F00102FB681A62FB68F7
:1045A8009B693B613B6923F0F0033B617B681B011E
:1045B8003A6913433B617B6923F00A037B617A699B
:1045C800BB6813437B61FB683A699A61FB687A6947
:1045D8001A6200BF1C37BD465DF8047B704780B483
:1045E80087B000AFF860B9607A60FB681B6A23F097
:1045F8001002FB681A62FB689B697B61FB681B6A97
:104608003B617B6923F470437B617B681B037A6998
:1046180013437B613B6923F0A0033B61BB681B012B
:104628003A6913433B61FB687A699A61FB683A69A6
:104638001A6200BF1C37BD465DF8047B704780B422
:1046480085B000AF786039607B689B68FB60FB6869
:1046580023F07003FB603A68FB68134343F00703D9
:10466800FB607B68FA689A6000BF1437BD465DF846
:10467800047B704780B487B000AFF860B9607A6097
:104688003B60FB689B687B617B6923F47F437B61AC
:104698003B681A027B681A43BB6813437A69134361
:1046A8007B61FB687A699A6000BF1C37BD465DF87C
:1046B800047B704780B487B000AFF860B9607A6057
:1046C800BB6803F01F03012202FA03F37B61FB6856
:1046D8001A6A7B69DB431A40FB681A62FB681A6A2C
:1046E800BB6803F01F03796801FA03F31A43FB68F8
:1046F8001A6200BF1C37BD465DF8047B7047000096
:1047080080B485B000AF786039607B6893F83C303E
:10471800012B01D102235AE07B68012283F83C2057
:104728007B68022283F83D207B681B685B68FB601E
:104738007B681B689B68BB60FB6823F07003FB60A9
:104748003B681B68FA681343FB607B681B68FA6860
:104758005A607B681B68214A934222D07B681B6899
:10476800B3F1804F1DD07B681B681D4A934218D057
:104778007B681B681B4A934213D07B681B681A4AE4
:1047880093420ED07B681B68184A934209D07B6815
:104798001B68174A934204D07B681B68154A9342EA
:1047A8000CD1BB6823F08003BB603B685B68BA68C8
:1047B8001343BB607B681B68BA689A607B680122F8
:1047C80083F83D207B68002283F83C2000231846AC
:1047D8001437BD465DF8047B704700BF00000140F8
:1047E8000004004000080040000C004000040140A4
:1047F800004001400018004080B485B000AF7860E8
:1048080039600023FB607B6893F83C30012B01D1B1
:1048180002233DE07B68012283F83C20FB6823F0FB
:10482800FF023B68DB681343FB60FB6823F44072BC
:104838003B689B681343FB60FB6823F480623B681A
:104848005B681343FB60FB6823F400623B681B68EA
:104858001343FB60FB6823F480523B681B691343D6
:10486800FB60FB6823F400523B685B691343FB6001
:10487800FB6823F480423B68DB691343FB607B6879
:104888001B68FA685A647B68002283F83C2000237E
:1048980018461437BD465DF8047B704780B582B072
:1048A80000AF78607B68002B01D101233FE07B6873
:1048B80093F83930DBB2002B06D17B68002283F8ED
:1048C8003820786804F0D0FB7B68242283F83920EC
:1048D8007B681B687A681268D26822F40052DA6032
:1048E800786800F093FB7B681B687A681268126925
:1048F80022F490421A617B681B687A6812685269D0
:1049080022F02A025A617B681B687A681268D268AA
:1049180042F40052DA607B680022DA637B68202266
:1049280083F839207B68202283F83A200023184630
:104938000837BD4680BD80B588B002AFF860B96061
:104948003B601346FB8000237B61FB6893F839309A
:10495800DBB2202B40F08280BB68002B02D0FB88A2
:10496800002B01D101237AE0FB6893F83830012B42
:1049780001D1022373E0FB68012283F83820FB6829
:104988000022DA63FB68212283F83920FBF706FE50
:104998007861FB68FA889A84FB68FA88DA84FB688D
:1049A800002283F8382041E0FB68DB8C9BB2013B96
:1049B8009AB2FB68DA84FB689B68B3F5805F21D103
:1049C8003B6800937B6900228021F86800F0B4F905
:1049D8000346002B01D0032341E0BB683B61FB6821
:1049E8001B683A691288C2F308025A60FB681B699F
:1049F800002B03D1BB680233BB6017E0BB680133EF
:104A0800BB6013E03B6800937B6900228021F86853
:104A180000F092F90346002B01D003231FE0FB6846
:104A28001A68BB68591CB9601B785360FB68DB8C3B
:104A38009BB2002BB8D13B6800937B6900224021D0
:104A4800F86800F079F90346002B01D0032306E04B
:104A5800FB68202283F83920002300E0022318464F
:104A68001837BD4680BD80B485B000AFF860B96026
:104A78001346FB80FB6893F83A30DBB2202B40D119
:104A8800BB68002B02D0FB88002B01D1012339E041
:104A9800FB6893F83830012B01D1022332E0FB6820
:104AA800012283F83820FB68BA689A62FB68FA88A2
:104AB8009A85FB68FA88DA85FB680022DA63FB6866
:104AC800222283F83A20FB68002283F83820FB680A
:104AD8001B68FA681268D26842F48072DA60FB6870
:104AE8001B68FA681268526942F001025A61FB6851
:104AF8001B68FA681268D26842F02002DA60002364
:104B080000E0022318461437BD465DF8047B704761
:104B180080B588B000AF78607B681B681B68FB6154
:104B28007B681B68DB68BB617B681B685B697B61B2
:104B380000233B610023FB60FB6903F00F033B612B
:104B48003B69002B0DD1FB6903F02003002B08D033
:104B5800BB6903F02003002B03D0786800F0D5F977
:104B6800D1E03B69002B00F0B0807B6903F00103C2
:104B7800002B05D1BB6903F49073002B00F0A580CE
:104B8800FB6903F00103002B0AD0BB6903F48073AF
:104B9800002B05D07B68DB6B43F001027B68DA638E
:104BA800FB6903F00403002B0AD07B6903F00103BF
:104BB800002B05D07B68DB6B43F002027B68DA636D
:104BC800FB6903F00203002B0AD07B6903F00103A1
:104BD800002B05D07B68DB6B43F004027B68DA634B
:104BE800FB6903F00803002B0FD0BB6903F0200317
:104BF800002B04D17B6903F00103002B05D07B68EF
:104C0800DB6B43F008027B68DA637B68DB6B002BA5
:104C180078D0FB6903F02003002B07D0BB6903F0B1
:104C28002003002B02D0786800F06FF97B681B68BE
:104C38005B6903F04003402B0CBF01230023DBB268
:104C4800FB607B68DB6B03F00803002B02D1FB6879
:104C5800002B31D0786800F0B9F87B681B685B6975
:104C680003F04003402B23D17B681B687A681268E5
:104C7800526922F040025A617B685B6B002B13D0AB
:104C88007B685B6B214A1A657B685B6B1846FBF790
:104C9800C2FD0346002B16D07B685B6B1B6D7A68E0
:104CA800526B104698470EE0786800F03BF80AE02F
:104CB800786800F037F806E0786800F033F87B6829
:104CC8000022DA631EE000BF1CE0FB6903F08003EA
:104CD800002B08D0BB6903F08003002B03D0786851
:104CE80000F0A6F80FE0FB6903F04003002B0AD0A0
:104CF800BB6903F04003002B05D0786800F0EDF89D
:104D080000BF00E000BF2037BD4680BD114E00083F
:104D180080B483B000AF786000BF0C37BD465DF843
:104D2800047B704780B483B000AF786000BF0C3755
:104D3800BD465DF8047B704780B584B000AFF8606D
:104D4800B9603B601346FB712CE0BB69B3F1FF3FD0
:104D580028D0BB69002B07D0FBF720FC02463B6834
:104D6800D21ABB699A421DD9FB681B68FA68126897
:104D7800D26822F4D072DA60FB681B68FA6812689D
:104D8800526922F001025A61FB68202283F8392017
:104D9800FB68202283F83A20FB68002283F8382039
:104DA80003230FE0FB681B681A68BB681A40BB68DE
:104DB8009A420CBF01230023DBB21A46FB799A42C0
:104DC800C3D0002318461037BD4680BD80B483B0D9
:104DD80000AF78607B681B687A681268D26822F432
:104DE8009072DA607B681B687A681268526922F0F0
:104DF80001025A617B68202283F83A2000BF0C37F1
:104E0800BD465DF8047B704780B584B000AF78601C
:104E18007B689B6BFB60FB680022DA85FB680022DD
:104E2800DA84F868FFF77EFF00BF1037BD4680BD03
:104E380080B485B000AF78607B6893F83930DBB216
:104E4800212B43D17B689B68B3F5805F19D17B68C0
:104E58001B6AFB607B681B68FA681288C2F3080249
:104E68005A607B681B69002B05D17B681B6A9A1CFA
:104E78007B681A620EE07B681B6A5A1C7B681A62A0
:104E880008E07B681A687B681B6A581C79680862A6
:104E98001B7853607B68DB8C9BB2013B9BB27A68C2
:104EA8001946D184002B0FD17B681B687A68126879
:104EB800D26822F08002DA607B681B687A68126820
:104EC800D26842F04002DA60002300E0022318466C
:104ED8001437BD465DF8047B704780B582B000AFDB
:104EE80078607B681B687A681268D26822F0400292
:104EF800DA607B68202283F839207868FFF708FF9A
:104F0800002318460837BD4680BD80B584B000AF81
:104F180078607B6893F83A30DBB2222B71D17B68DA
:104F28009B68B3F5805F23D17B689B6AFB607B68D5
:104F38001B69002B0ED17B681B685B689BB2C3F3AF
:104F480008039AB2FB681A807B689B6A9A1C7B6884
:104F58009A6229E07B681B685B689BB2DBB29AB2F5
:104F6800FB681A807B689B6A5A1C7B689A621BE004
:104F78007B681B69002B0AD17B689B6A591C7A687D
:104F880091627A6812685268D2B21A700CE07B6833
:104F98009B6A591C7A6891627A6812685268D2B220
:104FA80002F07F02D2B21A707B68DB8D9BB2013BA4
:104FB8009BB27A681946D185002B20D17B681B6883
:104FC8007A681268D26822F02002DA607B681B686F
:104FD8007A681268D26822F48072DA607B681B688B
:104FE8007A681268526922F001025A617B682022AD
:104FF80083F83A20786803F0F3FB002302E00023EB
:1050080000E0022318461037BD4680BD2DE9F04F59
:10501800A3B000AFF867FB6F1968FB6F1B681B69CB
:1050280023F44052FB6FDB6813430B61FB6F9A68F4
:10503800FB6F1B691A43FB6F5B691A43FB6FDB69E4
:105048001343C7F88430FB6F1968FB6F1B68DB6874
:1050580023F4164222F00C02D7F884301343CB60B5
:10506800FB6F1968FB6F1B685B6923F44072FB6F69
:105078009B6913434B61FB6FDB69B3F5004F40F04D
:105088007181FB6F1B68B44A934205D0FB6F1B68A4
:10509800B24A934240F0B180FEF750FCC7F8800056
:1050A800FB6F1D68D7F8803019464FF000020B4699
:1050B8001446DB1844EB04045B1844EB0204E000DC
:1050C8007864786C40EA53707864DB003B64D7E915
:1050D800103413EB010844EB020940464946FB6FC4
:1050E8005B684FF00004DB1844EB04041A462346BF
:1050F800FBF766F803460C461A46994BA3FB0223B6
:105108005B091E01D7F8803019464FF000020B46A4
:105118001446DB1844EB04045B1844EB0204E0007B
:10512800F863F86B40EA5370F863DB00BB63D7E9B8
:105138000E3413EB010844EB020940464946FB6F65
:105148005B684FF00004DB1844EB04041A4623465E
:10515800FBF736F803460C461A46814BA3FB0213AD
:105168005B09642101FB03F3D31ADB0032337C4A69
:10517800A2FB03235B095B0003F4F8731E44D7F812
:10518800803019464FF000020B461446DB1844EBFA
:1051980004045B1844EB0204E0007863786B40EA8F
:1051A80053707863DB003B63D7E90C3413EB0108D9
:1051B80044EB020940464946FB6F5B684FF0000428
:1051C800DB1844EB04041A462346FAF7F9FF0346B2
:1051D8000C461A46624BA3FB02135B09642101FBD0
:1051E80003F3D31ADB0032335D4AA2FB03235B09C6
:1051F80003F007033344AB6040E2FEF78BFBC7F8CC
:105208008000FB6F1A683A67D7F8803019464FF06C
:1052180000020B461446DB1844EB04045B1844EB0D
:105228000204E000F862F86A40EA5370F862DB00B2
:10523800BB62D7E90A345D1844EB020628463146BA
:10524800FB6F5B684FF00004DB1844EB04041A465C
:105258002346FAF7B5FF03460C461A46404BA3FB14
:1052680002235B091E01D7F8803019464FF000026F
:105278000B461446DB1844EB04045B1844EB0204A9
:105288004FEAC40B4BEA537B4FEAC30A53465C46CA
:1052980013EB010A44EB020B50465946FB6F5B685F
:1052A8004FF00004DB1844EB04041A462346FAF7CF
:1052B80087FF03460C461A46294BA3FB02135B09DA
:1052C800642101FB03F3D31ADB003233244AA2FB27
:1052D80003235B095B0003F4F8731E44D7F880309E
:1052E80019464FF000020B461446DB1844EB040441
:1052F8005B1844EB02044FEAC40949EA53794FEAC0
:10530800C30843464C4613EB010844EB02094046E8
:105318004946FB6F5B684FF00004DB1844EB04045C
:105328001A462346FAF74CFF03460C461A460C4B1E
:10533800A3FB02135B09642101FB03F3D31ADB000F
:105348003233074AA2FB03235B0903F00703334404
:105358003A6F936092E100BF0010014000140140D1
:105368001F85EB51FB6F1A68C14B9A4205D0FB6F42
:105378001A68C04B9A4240F0BF80FEF7DFFAC7F8C0
:105388008000FB6F1E68D7F8803019464FF0000286
:105398000B461446DB1844EB04045B1844EB020488
:1053A800E0007862786A40EA53707862DB003B621A
:1053B800D7E9083413EB010844EB02094046494693
:1053C800FB6F5B684FF00004A200FA65FA6D42EAD1
:1053D8009372FA659B00BB65D7E91623FAF7F0FECE
:1053E80003460C461A46A44BA3FB02235B091D0186
:1053F800D7F8803019464FF000020B461446DB18E8
:1054080044EB04045B1844EB0204E000F861F8691B
:1054180040EA5370F861DB00BB61D7E9063413EB4F
:10542800010844EB020940464946FB6F5B684FF0B0
:105438000004A2007A657A6D42EA93727A659B004D
:105448003B65D7E91423FAF7BBFE03460C461A4618
:10545800894BA3FB02135B09642101FB03F3D31AF5
:105468001B013233844AA2FB03235B0903F0F003D8
:105478001D44D7F8803019464FF000020B461446F9
:10548800DB1844EB04045B1844EB0204E000786189
:10549800786940EA53707861DB003B61D7E90434EE
:1054A80013EB010844EB020940464946FB6F5B6871
:1054B8004FF00004A200FA64FA6C42EA9372FA64AC
:1054C8009B00BB64D7E91223FAF77AFE03460C4621
:1054D8001A46694BA3FB02135B09642101FB03F322
:1054E800D31A1B013233644AA2FB03235B0903F07E
:1054F8000F032B44B360C1E0FEF70CFAC7F8800035
:10550800FB6F1B68BB65D7F8803019464FF0000267
:105518000B461446DB1844EB04045B1844EB020406
:10552800E60046EA5376DD002B4634465D1844EB28
:10553800020628463146FB6F5B684FF00004A50061
:105548007D677D6F45EA93757D679C003C67D7E969
:105558001C23FAF735FE03460C461A46464BA3FBB6
:1055680002135B091D01D7F8803019464FF000027D
:105578000B461446DB1844EB04045B1844EB0204A6
:10558800E000F860F86840EA5370F860D800B86046
:10559800D7E9023413EB010844EB020940464946B7
:1055A800FB6F5B684FF00004A600FE66FE6E46EADD
:1055B8009376FE669C00BC66D7E91A23FAF700FECC
:1055C80003460C461A462C4BA3FB02135B096421C5
:1055D80001FB03F3D31A1B013233274AA2FB03133F
:1055E8005B0903F0F0031D44D7F8803019464FF0EB
:1055F80000020B461446DB1844EB04045B1844EB2A
:105608000204E0007860786840EA53707860D80057
:10561800386097E8180013EB010844EB020940468C
:105628004946FB6F5B684FF00004A6007E667E6EFD
:1056380046EA93767E669C003C66D7E91823FAF71B
:10564800BFFD03460C461A460B4BA3FB02135B092E
:10565800642101FB03F3D31A1B013233064AA2FB70
:1056680003135B0903F00F032B44BA6D936005E045
:1056780000100140001401401F85EB5100BF8C371A
:10568800BD46BDE8F08F00BF84B080B584B000AFE0
:10569800786007F11C0080E80E003B6B012B22D1DB
:1056A8007B689B6B23F480327B689A637B68DB683A
:1056B80023F4840323F040037A68D3607B68DB68B3
:1056C80023F440127B68DA60FB6C012B05D17B6800
:1056D800DB6843F480127B68DA60786800F04AF986
:1056E8000346FB731AE07B68DB6843F040027B6883
:1056F800DA60786800F03EF90346FB733B6C002BD8
:1057080006D17B689B6B43F480327B689A6305E023
:105718007B689B6B23F480327B689A63BB6A012B9E
:105728000BD17B689B6843F006027B689A607B68B4
:105738009B6843F020027B689A60FB7B1846103711
:10574800BD46BDE8804004B0704780B483B000AF68
:1057580078607B689B6843F001027B689A6000234D
:1057680018460C37BD465DF8047B704780B483B09B
:1057780000AF78607B689B6823F001027B689A60C1
:10578800002318460C37BD465DF8047B704780B58A
:1057980082B000AF78600B46FB707B68DB6823F053
:1057A800C0427B68DA60FB78012B06D17B68DB6836
:1057B80043F000527B68DA600BE0FB78002B06D1DF
:1057C8007B68DB6843F080427B68DA6001E0012394
:1057D80003E03220FAF7EEFE002318460837BD46EC
:1057E80080BD000080B485B000AF786039600023C8
:1057F800FB603B689B0143F020027B681A61FB68F1
:105808000133FB60FB68094A934201D9032306E090
:105818007B681B6903F02003202BF0D00023184677
:105828001437BD465DF8047B704700BF400D030088
:1058380080B485B000AF78600023FB607B681022DD
:105848001A61FB680133FB60FB68094A934201D97E
:10585800032306E07B681B6903F01003102BF0D0CC
:10586800002318461437BD465DF8047B704700BF17
:10587800400D030080B489B000AFF860B9601146EC
:105888001A460B46FB711346BB80FB687B61BB68FD
:10589800FB6197F82830002B1AD1BB8803339B088B
:1058A8003B610023BB610FE0FB791A037B6913445A
:1058B80003F580531A46FB691B681360FB690433C0
:1058C800FB61BB690133BB61BA693B699A42EBD39F
:1058D800002318462437BD465DF8047B704780B422
:1058E80089B000AFF860B9601346FB80FB687B6144
:1058F800BB68FB61FB8803339B083B610023BB61EA
:105908000BE07B6903F580531A68FB691A60FB6931
:105918000433FB61BB690133BB61BA693B699A42D5
:10592800EFD3FB6918462437BD465DF8047B704702
:1059380080B485B000AF78607B685B69FB607B688A
:105948009B69FA681340FB60FB6818461437BD462C
:105958005DF8047B704780B483B000AF78607B68E3
:105968005B6903F0010318460C37BD465DF8047BFC
:105978007047000080B485B000AF78600023FB60FA
:10598800FB680133FB60FB68134A934201D9032388
:105998001BE07B681B69002BF2DA0023FB607B6845
:1059A8001B6943F001027B681A61FB680133FB60E5
:1059B800FB68094A934201D9032306E07B681B6907
:1059C80003F00103012BF0D0002318461437BD461D
:1059D8005DF8047B704700BF400D030084B080B5BC
:1059E80084B000AF786007F11C0080E80E007B6887
:1059F800BB60BB6803F560631A46002313607B68CD
:105A08009B6B43F400127B689A637B689B6B23F45F
:105A180000227B689A637B689B6B23F480227B68F7
:105A28009A637B68DB6B03F48073002B1AD07B6A64
:105A3800032B0BD1BB6803F580631A46BB6803F5DB
:105A480080631B6843F00403136016E0BB6803F52A
:105A580080631A46BB6803F580631B6823F0040360
:105A680013600AE0BB6803F580631A46BB6803F558
:105A780080631B6823F00403136010217868FFF724
:105A8800B1FE7868FFF7D4FE0023FB6015E0FB68E1
:105A98005A01BB68134403F5A0631A464FF0FF335D
:105AA8009360FB685A01BB68134403F5A0631A4668
:105AB8000023D360FB680133FB603A6AFB689A42B3
:105AC800E5D80121786800F0AFF8C820FAF772FD30
